:020000040000FA
:0600000055EF09F01200AB
:0A0006000100FE0100006A00000086
:0400100001000000EB
:0C001400060EF66E000EF76E000EF86E81
:1000200000010900F550656F0900F550666F03E1A6
:10003000656701D03DD00900F550606F0900F550AB
:10004000616F0900F550626F09000900F550E96E13
:100050000900F550EA6E090009000900F550636FC8
:100060000900F550646F09000900F6CF67F0F7CF7B
:1000700068F0F8CF69F060C0F6FF61C0F7FF62C0BA
:10008000F8FF0001635302E1645307E00900F550F3
:10009000EE6E6307F8E26407F9D767C0F6FF68C041
:1000A000F7FF69C0F8FF00016507000E665BBFD768
:0200B00012003C
:0E00B200D9CFE6FFDACFE6FFE1CFD9FFE2CFEC
:1000C000DAFFE652DF6AFF0EE76EFC0EDBCF00F0D0
:1000D000E75000160050A96EFB0EDB50A86EA69EDE
:1000E000A69CA684F250800B01E0010EDF6EF29E0A
:1000F000550EA76EAA0EA76EA682A6B2FED7DF5037
:10010000E8B0F28EE8A0F29EA694E552E552E5CF63
:08011000DAFFE7CFD9FF12006E
:08011800D9CFE6FFDACFE6FFC4
:10012000E1CFD9FFE2CFDAFFFF0EE76EFC0EDBCFA7
:1001300000F0FD0EDBCF01F0E7500016016A005021
:10014000A96EA69CA69EA68000000000A85000D024
:0C015000E552E5CFDAFFE7CFD9FF12003F
:04015C00FB0EE3CFE4
:10016000F6FFFC0EE3CFF7FFFD0EE3CFF8FFFE0E28
:10017000E3CFE9FFFF0EE3CFEAFFE9CFF3FFEACFDA
:0E018000F4FF0900F5CFEFFFEE66FBD712008B
:02018E00FF0E62
:10019000E350176EEF0E01D0F30EE76EE72ECEEFB1
:1001A00000F00C0E166EE76AE72ED4EF00F0162E64
:0C01B000D3EF00F0172ECCEF00F012008F
:0401BC00FF0EE350FF
:1001C000176E480E01D04C0EE76EE72EFED7E76A99
:0C01D000E72EFED7172EF7D70000120014
:0401DC00000EF36EB0
:1001E00000EE00F0080E01D81200EA6002D0EE6ABC
:0C01F000FCD7F350E9601200EE6AFCD767
:0201FC001200EF
:0101FE000000
:10020000D9CFE6FFE1CFD9FFFD0EDBCFE9FFFE0E30
:10021000DBCFEAFFEF5015E0B6EC08F00009FCE197
:10022000FD0EDBCFE9FFFE0EDBCFEAFFEF50E66EFF
:10023000C3EC08F0E552FD0EDB2AFE0EE5E3DB2AF7
:0A024000E3D7E552E7CFD9FF120023
:06024A00D9CFE6FFE1CF71
:10025000D9FFE652DF6ADF6AFB0EDB50DF5C1FE28C
:10026000DF50E76EFC0EDBCFE9FFFD0EDBCFEAFFD0
:10027000E750E926000EEA22EF50E66EFE0EDB5054
:10028000DF24E66EE66A59EC00F0E552E552E552ED
:10029000010EE66E71EC09F0E552DF2ADDD7E5527A
:1002A000E552E7CFD9FF1200D9CFE6FFE1CFD9FF62
:1002B000E652DF6ADF6AFB0EDB50DF5C20E2FE0EF7
:1002C000DB50DF24E66EE66A8CEC00F0E552E55286
:1002D000E66EDF50E76EFC0EDBCFE9FFFD0EDBCFF5
:1002E000EAFFE750E926000EEA22E552E750EF6EFA
:1002F000010EE66E71EC09F0E552DF2ADCD7E5521B
:10030000E552E7CFD9FF1200D9CFE6FFE1CFD9FF01
:10031000570EE126D950320FE96EDACFEAFF530EBD
:10032000EE6E650EEE6E6A0EEE6E610EEE6E200ED5
:10033000EE6E620EEE6E650EEE6E6D0EEE6E200EC1
:10034000EE6E760EEE6E690EEE6E6E0EEE6E640E54
:10035000EE6E6F0EEE6E210EEE6EEE6A8F0EEE6E8C
:10036000D950430FE96EDACFEAFF200EEE6EEE6E43
:10037000EE6E4C0EEE6E430EEE6E440EEE6E200EE2
:10038000EE6E310EEE6E360EEE6E200EEE6E780EC6
:10039000EE6E200EEE6E320EEE6EEE6AEE6AEE6AD3
:1003A000EE6A540EDB6A550EDB6A560EDB6AF8D82D
:1003B000020EE66E2EEC08F0E5520CEC09F0550E3C
:1003C000DB6A560EDB6A550EDBCF00F0560EDBCF34
:1003D00001F0D890015004E6640E005C000E015854
:1003E00008E28EEC08F0550EDB2A560EECE3DB2A11
:1003F000EAD70A0EE66EF80E026E120E036E046A5B
:1004000002C0E6FFE66E04C0E6FFD950190FE66EA3
:10041000000EDA20E66EAEEC00F0056E050EE15E31
:100420000550F3CF00F0F4CF01F0F3CFE6FFF4CFA7
:10043000E6FFE66A0ADFE552E552E552E552190E9B
:10044000E66ED9CFE6FFDACFE6FFE66A2DDFE552AA
:10045000E552E552E552010EE66ED5EC08F0E552A4
:10046000B6EC08F00009FCE101EC07F0540EF3CF04
:10047000DBFF280EE66EDEEC00F0E552540EDB509A
:100480004708F2E0540EDB50EFE0540EDB50310829
:100490000DE1540EDBCFE6FFE66A00EC01F0E55219
:1004A000E552B6EC08F00009DFE0FBD7540EDB5054
:1004B00032080DE1540EDBCFE6FFE66A00EC01F0F6
:1004C000E552E552B6EC08F00009CEE0FBD7540E39
:1004D000DB5033080DE1540EDBCFE6FFE66A00EC9B
:1004E00001F0E552E552B6EC08F00009BDE0FBD79B
:1004F000540EDB5034080DE1540EDBCFE6FFE66A04
:1005000000EC01F0E552E552B6EC08F00009ACE071
:10051000FBD7540EDB5035080DE1540EDBCFE6FF60
:10052000E66A00EC01F0E552E552B6EC08F000098D
:100530009BE0FBD7540EDB5036080DE1540EDBCFA9
:10054000E6FFE66A00EC01F0E552E552B6EC08F091
:1005500000098AE0FBD7540EDB5037080EE1540E39
:10056000DBCFE6FFE66A00EC01F0E552E552B6ECBF
:1005700008F0000901E178D7FAD7540EDB503808AB
:1005800001E072D7540EDBCFE6FFE66A00EC01F023
:10059000E552E552B6EC08F0000901E165D7FAD75B
:1005A000926A936A946A956A966A0F0EC16E806A1F
:1005B000816A826A836A846A1200D9CFE6FFE1CF3A
:1005C000D9FF240EE126FD0EDBCFE9FFFE0EDBCFC7
:1005D000EAFFEECFDFFF010EEECFDBFF020EEECF24
:1005E000DBFF030EEECFDBFF040EE76EFD0EDBCF6D
:1005F000E9FFFE0EDBCFEAFFE750E926000EEA2214
:10060000040EEECFDBFF050EEECFDBFF060EEECFC6
:10061000DBFF070EEECFDBFF080EDB6A090EDB6A9D
:100620000A0EDB6A0B0EDB6AB90EF36E100EF3CF07
:10063000DBFF790EF36E110EF3CFDBFF370EF36E97
:10064000120EF3CFDBFF9E0EF36E130EF3CFDBFF24
:10065000FB0EDBCFE9FFFC0EDBCFEAFF140EEECF83
:10066000DBFF150EEECFDBFF160EEECFDBFF170E16
:10067000EECFDBFF040EE76EFB0EDBCFE9FFFC0ED7
:10068000DBCFEAFFE750E926000EEA22180EEECF94
:10069000DBFF190EEECFDBFF1A0EEECFDBFF1B0EDA
:1006A000EECFDBFF080EE76EFB0EDBCFE9FFFC0EA3
:1006B000DBCFEAFFE750E926000EEA221C0EEECF60
:1006C000DBFF1D0EEECFDBFF1E0EEECFDBFF1F0E9E
:1006D000EECFDBFF0C0EE76EFB0EDBCFE9FFFC0E6F
:1006E000DBCFEAFFE750E926000EEA22200EEECF2C
:1006F000DBFF210EEECFDBFF220EEECFDBFF230E62
:10070000EECFDBFF0C0EDB6A0D0EDB6A0E0EDB6A32
:100710000F0EDB6AD9500C0FE96EDACFEAFF200E1C
:10072000EE5C000EEE58000EEE58000EEE5801E39F
:100730001CD1D950080FE96EDACFEAFF100EDB505A
:10074000EE26110EDB50EE22120EDB50EE22130EBF
:10075000DB50EE22040EDBCF04F0050EDBCF05F0FC
:10076000060EDBCF06F0070EDBCF07F0040E1F0BE3
:1007700007E0D8900436053606360736E806F9E174
:10078000D950140FE96EDACFEAFF0450EE24006E60
:100790000550EE20016E0650EE20026E0750EE204E
:1007A000036E080EDBCF08F0090EDBCF09F00A0E4E
:1007B000DBCF0AF00B0EDBCF0BF0D950040FE96E44
:1007C000DACFEAFFEE500826EE500922EE500A2258
:1007D000EE500B220850001A0950011A0A50021A52
:1007E0000B50031A040EDBCF10F0050EDBCF11F017
:1007F000060EDBCF12F0070EDBCF13F0050ED890FC
:100800001332123211321032E806F9E1D950180FC2
:10081000E96EDACFEAFF1050EE240C6E1150EE2094
:100820000D6E1250EE200E6E1350EE200F6E0C5017
:10083000001A0D50011A0E50021A0F50031A0050E0
:10084000DE260150DE220250DE220350DD22DD5280
:10085000DD52D9CFE9FFDACFEAFFEECF04F0EECFD9
:1008600005F0EECF06F0EFCF07F0040E1F0B07E008
:10087000D8900436053606360736E806F9E1D95031
:100880001C0FE96EDACFEAFF0450EE24006E05502B
:10089000EE20016E0650EE20026E0750EE20036E31
:1008A000080EDBCF08F0090EDBCF09F00A0EDBCF14
:1008B0000AF00B0EDBCF0BF0D9CFE9FFDACFEAFF5E
:1008C000EE500826EE500922EE500A22EE500B227E
:1008D0000850001A0950011A0A50021A0B50031A44
:1008E000D9CFE9FFDACFEAFFEECF10F0EECF11F06B
:1008F000EECF12F0EFCF13F0050ED8901332123274
:1009000011321032E806F9E1D950200FE96EDACF42
:10091000EAFF1050EE240C6E1150EE200D6E1250B6
:10092000EE200E6E1350EE200F6E0C50001A0D507C
:10093000011A0E50021A0F50031AD950040FE96E13
:10094000DACFEAFF0050EE260150EE220250EE22EE
:100950000350EE22D9500C0FE96EDACFEAFFEE2AEF
:10096000000EEE22EE22EE22D5D6FD0EDBCFE9FF01
:10097000FE0EDBCFEAFFDFCFEEFF010EDBCFEEFF97
:10098000020EDBCFEEFF030EDBCFEEFF040EE76EB1
:10099000FD0EDBCFE9FFFE0EDBCFEAFFE750E926D5
:1009A000000EEA22040EDBCFEEFF050EDBCFEEFFDA
:1009B000060EDBCFEEFF070EDBCFEEFF240EE15C71
:1009C00002E2E16AE552E16EE552E7CFD9FF12009B
:1009D000D9CFE6FFE1CFD9FF240EE126FD0EDBCF14
:1009E000E9FFFE0EDBCFEAFFEECFDFFF010EEECF19
:1009F000DBFF020EEECFDBFF030EEECFDBFF040EBC
:100A0000E76EFD0EDBCFE9FFFE0EDBCFEAFFE7501E
:100A1000E926000EEA22040EEECFDBFF050EEECF34
:100A2000DBFF060EEECFDBFF070EEECFDBFF200E67
:100A3000F36E080EF3CFDBFF370EF36E090EF3CF24
:100A4000DBFFEF0EF36E0A0EF3CFDBFFC60EF36E85
:100A50000B0EF3CFDBFFB90EF36E100EF3CFDBFFFF
:100A6000790EF36E110EF3CFDBFF370EF36E120E1D
:100A7000F3CFDBFF9E0EF36E130EF3CFDBFFFB0E07
:100A8000DBCFE9FFFC0EDBCFEAFF140EEECFDBFF7E
:100A9000150EEECFDBFF160EEECFDBFF170EEECFFF
:100AA000DBFF040EE76EFB0EDBCFE9FFFC0EDBCFB6
:100AB000EAFFE750E926000EEA22180EEECFDBFF30
:100AC000190EEECFDBFF1A0EEECFDBFF1B0EEECFC3
:100AD000DBFF080EE76EFB0EDBCFE9FFFC0EDBCF82
:100AE000EAFFE750E926000EEA221C0EEECFDBFFFC
:100AF0001D0EEECFDBFF1E0EEECFDBFF1F0EEECF87
:100B0000DBFF0C0EE76EFB0EDBCFE9FFFC0EDBCF4D
:100B1000EAFFE750E926000EEA22200EEECFDBFFC7
:100B2000210EEECFDBFF220EEECFDBFF230EEECF4A
:100B3000DBFF0C0EDB6A0D0EDB6A0E0EDB6A0F0E9E
:100B4000DB6AD9500C0FE96EDACFEAFF200EEE5CBB
:100B5000000EEE58000EEE58000EEE5801E31ED1C6
:100B6000D9CFE9FFDACFEAFFEECF04F0EECF05F000
:100B7000EECF06F0EFCF07F0040E1F0B07E0D89082
:100B80000436053606360736E806F9E1D9501C0F5B
:100B9000E96EDACFEAFF0450EE24006E0550EE2035
:100BA000016E0650EE20026E0750EE20036E080E16
:100BB000DBCF08F0090EDBCF09F00A0EDBCF0AF01D
:100BC0000B0EDBCF0BF0D9CFE9FFDACFEAFFEE5007
:100BD0000826EE500922EE500A22EE500B22085051
:100BE000001A0950011A0A50021A0B50031AD9CFE1
:100BF000E9FFDACFEAFFEECF10F0EECF11F0EECF43
:100C000012F0EFCF13F0050ED890133212321132DA
:100C10001032E806F9E1D950200FE96EDACFEAFF89
:100C20001050EE240C6E1150EE200D6E1250EE207E
:100C30000E6E1350EE200F6E0C50001A0D50011A5C
:100C40000E50021A0F50031AD950040FE96EDACF72
:100C5000EAFF0050EE5E0150EE5A0250EE5A035089
:100C6000EE5A040EDBCF04F0050EDBCF05F0060EC6
:100C7000DBCF06F0070EDBCF07F0040E1F0B07E0FB
:100C8000D8900436053606360736E806F9E1D9501D
:100C9000140FE96EDACFEAFF0450EE24006E05501F
:100CA000EE20016E0650EE20026E0750EE20036E1D
:100CB000080EDBCF08F0090EDBCF09F00A0EDBCF00
:100CC0000AF00B0EDBCF0BF0D950040FE96EDACF30
:100CD000EAFFEE500826EE500922EE500A22EE50AE
:100CE0000B220850001A0950011A0A50021A0B5020
:100CF000031A040EDBCF10F0050EDBCF11F0060E49
:100D0000DBCF12F0070EDBCF13F0050ED8901332B5
:100D1000123211321032E806F9E1D950180FE96E9B
:100D2000DACFEAFF1050EE240C6E1150EE200D6E5B
:100D30001250EE200E6E1350EE200F6E0C50001A63
:100D40000D50011A0E50021A0F50031AD9CFE9FFA5
:100D5000DACFEAFF0050EE5E0150EE5A0250EE5A32
:100D60000350EE5AD950080FE96EDACFEAFF100EA1
:100D7000DB50EE5E110EDB50EE5A120EDB50EE5AD7
:100D8000130EDB50EE5AD9500C0FE96EDACFEAFFA2
:100D9000EE2A000EEE22EE22EE22D3D6FD0EDBCF9F
:100DA000E9FFFE0EDBCFEAFFDFCFEEFF010EDBCF68
:100DB000EEFF020EDBCFEEFF030EDBCFEEFF040EE5
:100DC000E76EFD0EDBCFE9FFFE0EDBCFEAFFE7505B
:100DD000E926000EEA22040EDBCFEEFF050EDBCF84
:100DE000EEFF060EDBCFEEFF070EDBCFEEFF240E8D
:100DF000E15C02E2E16AE552E16EE552E7CFD9FF3C
:020E00001200DE
:0E0E0200D9CFE6FFE1CFD9FFE652DF6A959621
:100E10009594959295909588958A958C958E8396C4
:100E2000838483828380000083B80ED000016A052A
:100E300003E1470E0ED108D0310EDF6E956A000136
:100E4000010E6A6FDF5005D183BA0ED000016A052A
:100E500003E1470EFED008D0340EDF6E956A000124
:100E6000010E6A6FDF50F5D083BC0ED000016A0519
:100E700003E1470EEED008D0370EDF6E956A000111
:100E8000010E6A6FDF50E5D083BE0ED000016A0507
:100E900003E1470EDED008D0460EDF6E956A0001F2
:100EA000010E6A6FDF50D5D083868394838283805E
:100EB000000083B80ED000016A0503E1470EC9D0D7
:100EC00008D0320EDF6E956A0001010E6A6FDF50A6
:100ED000C0D083BA0ED000016A0503E1470EB9D035
:100EE00008D0350EDF6E956A0001010E6A6FDF5083
:100EF000B0D083BC0ED000016A0503E1470EA9D033
:100F000008D0380EDF6E956A0001010E6A6FDF505F
:100F1000A0D083BE0ED000016A0503E1470E99D030
:100F200008D0300EDF6E956A0001010E6A6FDF5047
:100F300090D08386838483928380000083B80ED010
:100F400000016A0503E1470E84D008D0330EDF6E3E
:100F5000956A0001010E6A6FDF507BD083BA0ED014
:100F600000016A0503E1470E74D008D0360EDF6E2B
:100F7000956A0001010E6A6FDF506BD083BC0ED002
:100F800000016A0503E1470E64D008D0390EDF6E18
:100F9000956A0001010E6A6FDF505BD083BE0ED0F0
:100FA00000016A0503E1470E54D008D0450EDF6EFC
:100FB000956A0001010E6A6FDF504BD083868384EF
:100FC00083828390000083B80ED000016A0503E19C
:100FD000470E3FD008D0410EDF6E956A0001010E2A
:100FE0006A6FDF5036D083BA0ED000016A0503E184
:100FF000470E2FD008D0420EDF6E956A0001010E19
:101000006A6FDF5026D083BC0ED000016A0503E171
:10101000470E1FD008D0430EDF6E956A0001010E07
:101020006A6FDF5016D083BE0ED000016A0503E15F
:10103000470E0FD008D0440EDF6E956A0001010EF6
:101040006A6FDF5006D0956A00016A6BDF6ADF5075
:0C10500000D0E552E552E7CFD9FF1200B6
:04105C00D9CFE6FF03
:10106000E1CFD9FF050EE1260F0EDF6EDE52060E30
:10107000DD6E010EF36E020EF3CFDBFF84928490DF
:1010800084940F0EC16E966A936A030EDB6AF36E48
:10109000DBCFF4FFE850F45C07E2300E816E33D80A
:1010A0003DD8030EDB2AF3D7FE0EDB0402E1300E3F
:1010B00001D0380E816E27D831D8030EDB6AF36E6B
:1010C000DBCFF4FFE850F45C13E2D9CF00F0DACFC5
:1010D00001F0030EDB500F01D924E96E000EDA2077
:1010E000EA6EEF50816E0FD819D8030EDB2AE7D7CE
:1010F0009368050EE15C02E2E16AE552E16EE552B9
:10110000E7CFD9FF120010D884820ED88492120043
:10111000020EE66E63EC09F0E5521200010EE66E77
:10112000C7EC00F0E55212000000000000000000D3
:1011300000000000000000000000000000000000AF
:10114000000000000000000012000000000000008D
:10115000000000000000000000000000000000008F
:101160000000000000000000000012008484849051
:10117000DBDF8482D9DF81AE03D084928494010CBA
:1011800084928494000CD9CFE6FFE1CFD9FF936A13
:10119000FE0EDB50816E84808494B5DF8490C4DFC2
:1011A0009368E552E7CFD9FF1200D9CFE6FFE1CF30
:1011B000D9FF936AFE0EDB50816E84908494A3DF86
:1011C0008490B2DF9368E552E7CFD9FF1200D9CF00
:1011D000E6FFE1CFD9FFFD0EDBCFF6FFFE0EDBCF42
:1011E000F7FF0800F55014E0C1DF0009FDE1FD0E36
:1011F000DBCFF6FFFE0EDBCFF7FF0800F550E66E03
:10120000C2DFE552FD0EDB2AFE0EE5E3DB2AE3D763
:10121000E552E7CFD9FF1200D9CFE6FFE1CFD9FFE2
:10122000210EE126800EE66EC0DFE5529FDF000949
:10123000FDE1200EDB6AF36EDBCFF4FFE850F45CD7
:101240002AE2100EF36E200EDBCFF4FFF350F45CB5
:1012500007E2E66898DFE55289DF000919E0FCD76C
:10126000200EDB5010080EE1C00EE66E9EDFE55248
:101270007DDF0009FDE1E66886DFE55277DF0009E2
:1012800007E0FCD7E6687FDFE55270DF0009FDE18B
:10129000200EDB2AD0D7210EE15C02E2E16AE552A2
:0A12A000E16EE552E7CFD9FF12001E
:0612AA0013EE00F023EE3C
:1012B00000F0F86A159C0AEC00F0FEEC00F084ECFB
:0612C00001F0FBD7120053
:0A12C600FF0EE350176E1B0E00D060
:1012D00001D0200EE76EE72EFED7172EFAD700D0EA
:0212E0001200FA
:0E12E200FF0EE350E84E1200000000D000D0D6
:0812F00000D0E82EFAD712002D
:0812F8004F6C61204D756E641E
:031300006F21005A
:020000040030CA
:0100000000FF
:010001000CF2
:0100020019E4
:010003001EDE
:010005008377
:010006008178
:010008000FE8
:01000900C036
:01000A000FE6
:01000B00E014
:01000C000FE4
:01000D0040B2
:00000001FF
