:020000040000FA
:06000000F2EF00F0120017
:020006001200E6
:0600080057EF07F01200A3
:02000E000100EF
:0C001000FE17000000010000AD00000021
:04001C000E0EF66E60
:10002000000EF76E000EF86E01010900F550B46F76
:100030000900F550B56F03E1B46701D03DD0090068
:10004000F550AF6F0900F550B06F0900F550B16F72
:1000500009000900F550E96E0900F550EA6E090043
:1000600009000900F550B26F0900F550B36F09009F
:100070000900F6CFB6F1F7CFB7F1F8CFB8F1AFC1BD
:10008000F6FFB0C1F7FFB1C1F8FF0101B25302E1C1
:10009000B35307E00900F550EE6EB207F8E2B3077C
:1000A000F9D7B6C1F6FFB7C1F7FFB8C1F8FF010134
:0A00B000B407000EB55BBFD71200C5
:0600BA00D9CFE6FFDACF0A
:1000C000E6FFE1CFD9FFE2CFDAFFE652DF6AFF0EAB
:1000D000E76EFC0EDBCF00F0E75000160050A96E73
:1000E000FB0EDB50A86EA69EA69CA684F250800B49
:1000F00001E0010EDF6EF29E550EA76EAA0EA76EEE
:10010000A682A6B2FED7DF50E8B0F28EE8A0F29E3B
:10011000A694E552E552E5CFDAFFE7CFD9FF12000A
:10012000D9CFE6FFDACFE6FFFA0EE3CFD9FFFB0E19
:10013000E3CFDAFFFC0EE3CFE9FFFD0EE3CFEAFFEA
:10014000F80EE35003E1F90EE35008E0F80EE30681
:1001500002E2F90EE306DE50EE5CF2E0F36EFF0E13
:10016000E3CFDAFFE552FF0EE3CFD9FFE552F350BC
:0201700012007B
:0E017200D9CFE6FFDACFE6FFE1CFD9FFE2CF2B
:10018000DAFFFF0EE76EFC0EDBCF00F0FD0EDBCFDB
:1001900001F0E7500016016A0050A96EA69CA69EC9
:1001A000A68000000000A85000D0E552E5CFDAFF9D
:0601B000E7CFD9FF1200A9
:0A01B600FF0EE350176EEF0E01D0AC
:1001C000F30EE76EE72EE2EF00F00C0E166EE76A14
:1001D000E72EE8EF00F0162EE7EF00F0172EE0EF25
:0401E00000F0120019
:0C01E40013EE00F023EE00F0F86A159C0A
:1001F0000EEC00F003EC00F049EC05F0FBD7120028
:10020000D9CFE6FFE1CFD9FFFD0EDBCFE9FFFE0E30