:020000040000FA
:06000000F2EF00F0120017
:020006001200E6
:06000800AEEF04F012004F
:02000E000100EF
:0C001000B21D000000010000E50000002F
:04001C000E0EF66E60
:10002000000EF76E000EF86E01010900F550EA6F40
:100030000900F550EB6F03E1EA6701D03DD00900FC
:10004000F550E56F0900F550E66F0900F550E76FD0
:1000500009000900F550E96E0900F550EA6E090043
:1000600009000900F550E86F0900F550E96F090033
:100070000900F6CFECF1F7CFEDF1F8CFEEF1E5C1E5
:10008000F6FFE6C1F7FFE7C1F8FF0101E85302E11F
:10009000E95307E00900F550EE6EE807F8E2E907DA
:1000A000F9D7ECC1F6FFEDC1F7FFEEC1F8FF010192
:0A00B000EA07000EEB5BBFD7120059
:0600BA00D9CFE6FFDACF0A
:1000C000E6FFE1CFD9FFE2CFDAFFE652DF6AFF0EAB
:1000D000E76EFC0EDBCF00F0E75000160050A96E73
:1000E000FB0EDB50A86EA69EA69CA684F250800B49
:1000F00001E0010EDF6EF29E550EA76EAA0EA76EEE
:10010000A682A6B2FED7DF50E8B0F28EE8A0F29E3B
:10011000A694E552E552E5CFDAFFE7CFD9FF12000A
:10012000D9CFE6FFDACFE6FFFA0EE3CFD9FFFB0E19
:10013000E3CFDAFFFC0EE3CFE9FFFD0EE3CFEAFFEA
:10014000F80EE35003E1F90EE35008E0F80EE30681
:1001500002E2F90EE306DE50EE5CF2E0F36EFF0E13
:10016000E3CFDAFFE552FF0EE3CFD9FFE552F350BC
:0201700012007B
:0E017200D9CFE6FFDACFE6FFE1CFD9FFE2CF2B
:10018000DAFFFF0EE76EFC0EDBCF00F0FD0EDBCFDB
:1001900001F0E7500016016A0050A96EA69CA69EC9
:1001A000A68000000000A85000D0E552E5CFDAFF9D
:0601B000E7CFD9FF1200A9
:0A01B600FF0EE350176EEF0E01D0AC
:1001C000F30EE76EE72EE2EF00F00C0E166EE76A14
:1001D000E72EE8EF00F0162EE7EF00F0172EE0EF25
:0401E00000F0120019
:0C01E40013EE00F023EE00F0F86A159C0A
:1001F0000EEC00F003EC00F025EC01F0FBD7120050
:10020000D9CFE6FFE1CFD9FFFD0EDBCFE9FFFE0E30
:10021000DBCFEAFFEF5015E011EC0EF00009FCE136
:10022000FD0EDBCFE9FFFE0EDBCFEAFFEF50E66EFF
:100230001EEC0EF0E552FD0EDB2AFE0EE5E3DB2A96
:0A024000E3D7E552E7CFD9FF120023
:06024A00D9CFE6FFE1CF71
:10025000D9FF240EE126010EDB6AD950020FE96EA8
:10026000DACFEAFF550EEE6E530EEE6E450EEE6ED1
:10027000520EEE6EEE6AEE6AEE6AEE6AEE6AEE6AB2
:10028000EE6AEE6AEE6AEE6AEE6AEE6AEE6AD950DD
:10029000130FE96EDACFEAFF4E0EEE6E4F0EEE6EE2
:1002A000560EEE6E410EEE6EEE6AEE6AEE6AEE6A83
:1002B000EE6AEE6AEE6AEE6AEE6AEE6AEE6AEE6A7E
:1002C000EE6A29D8C00EE66E7BEC05F0E552320EE0
:1002D000E66E96EC05F0E552010EE66E86EC05F052
:1002E000E552F28C020EE66E89EC0DF0E55221D853
:1002F000D950130FE66E000EDA20E66ED950020FC9
:10030000E66E000EDA20E66E7CEC0AF0E552E5526D
:10031000E552E552FFD7926A936A946AF00E956EA1
:10032000966A0F0EC16E806A816A826A8368846AE7
:100330001200010EE66E30EC0EF0E55211EC0EF0FC
:100340000009FCE1000EE66E010EE66E51D8E552A2
:10035000E552110EE66E010EE66E8DD8E552E552BD
:100360000101DA6BDB6B320EDBAF02D0D89003D029
:10037000DA5D000EDB5907E2E9EC0DF00101DA2B42
:10038000000EDB23F0D7220EE66E010EE66E30D8AB
:10039000E552E552330EE66E010EE66E6CD8E5527C
:1003A000E5520101DA6BDB6B320EDBAF02D0D89085
:1003B00003D0DA5D000EDB5907E2E9EC0DF0010134
:1003C000DA2B000EDB23F0D7580EE66E010EE66E38
:1003D0000FD8E552E552C00EE66E30EC0EF0E55255
:1003E00011EC0EF00009FCE10101E26BE36B12007D
:1003F000D9CFE6FFE1CFD9FF020EE126DE6ADD6A42
:10040000800EE66E30EC0EF0E55211EC0EF00009B5
:10041000FCE1DE6ADD6ADECF00F0DDCF01F0D890CE
:10042000015004E6110E005C000E01581AE2FD0EA8
:10043000DBCF00F0FE0EDBCF01F0DE500024E96ED2
:10044000DD500120EA6EEF50E66E1EEC0EF0E55234
:1004500011EC0EF00009FCE1DF2A010EDCE3DB2ADF
:10046000DAD7020EE15C02E2E16AE552E16EE552A2
:10047000E7CFD9FF1200D9CFE6FFE1CFD9FF020EB7
:10048000E126DE6ADD6AC00EE66E30EC0EF0E55263
:1004900011EC0EF00009FCE1DE6ADD6ADECF00F04F
:1004A000DDCF01F0D890015004E6110E005C000E83
:1004B00001581AE2FD0EDBCF00F0FE0EDBCF01F09B
:1004C000DE500024E96EDD500120EA6EEF50E66E4A
:1004D0001EEC0EF0E55211EC0EF00009FCE1DF2AF3
:1004E000010EDCE3DB2ADAD7020EE15C02E2E16A0C
:1004F000E552E16EE552E7CFD9FF1200D9CFE6FF12
:10050000E1CFD9FF440E0101D425E96E010ED521BA
:10051000EA6EFE0EDBCFEFFFD42B000ED523030EC9
:10052000D4191BE1D55119E1D06BD16B470EE66EA2
:10053000010EE66E5DDFE552E552330EE66E010E0A
:10054000E66E99DFE552E552C00EE66E30EC0EF035
:10055000E55211EC0EF00009FCE1E552E7CFD9FFBE
:100560001200D9CFE6FFE1CFD9FF7A0E0101D225E3
:10057000E96E010ED321EA6EFE0EDBCFEFFFD22B28
:10058000000ED323060ED21939E1D35137E1D26BD5
:10059000D36BD46BD56B8250010B02E0829201D0F9
:1005A0008282010ED06FD16B580EE66E010EE66EA0
:1005B0001FDFE552E552330EE66E010EE66E5BDF9D
:1005C000E552E552C00EE66E30EC0EF0E55211EC4D
:1005D0000EF00009FCE10101DA6BDB6B320EDBAFE0
:1005E00002D0D89003D0DA5D000EDB5907E2E9ECC7
:1005F0000DF00101DA2B000EDB23F0D7E552E7CF37
:10060000D9FF1200D9CFE6FFE1CFD9FF800E01015B
:10061000D825E96E010ED921EA6EFE0EDBCFEFFF81
:10062000D82B000ED923E552E7CFD9FF1200D9CF3E
:10063000E6FFE1CFD9FF080EE1260101E251E31107
:1006400001E082D1DC51DD1101E128D1FE0EDBCFCA
:10065000E6FFD8DFE5522A0EE66E1EEC0EF0E552FC
:1006600011EC0EF00009FCE1140EE66EDBEC00F07C
:10067000E5520101060ED81901E066D1D95101E019
:1006800063D1DE6ADD6AD86BD96BDE6ADD6ADECFE4
:1006900000F0DDCF01F0D890015004E6030E005CBD
:1006A000000E01580FE2DECFE9FFDDCFEAFF440E76
:1006B000E926010EEA22390EEF6EDF2A010EE7E38A
:1006C000DB2AE5D70101DE51DF1112E0DE6BDF6BC3
:1006D000010EE06FE16B690EE66E010EE66E88DEDC
:1006E000E552E552330EE66E010EE66EC4DEC5D06D
:1006F000E051E11147E0020EDB6A030EDB6A020EF5
:10070000DB6A030EDB6A020EDBCF00F0030EDBCFE9
:1007100001F0D890015004E6060E005C000E01586E
:100720001FE2020EDBCFE9FF030EDBCFEAFF800EF4
:10073000E926010EEA22EF50E66E020EDBCFE9FF5A
:10074000030EDBCFEAFF860EE926010EEA22E55210
:10075000E750EF6E020EDB2A030ED5E3DB2AD3D778
:100760009D0EE66E010EE66E43DEE552E552330E57
:10077000E66E010EE66E7FDEE552E5520101E06BAA
:10078000E16B7DD0010EF36E040EF3CFDBFF050E9F
:10079000DB6A060EDB6A070EDB6ADC6BDD6B010EC3
:1007A000E06FE16BDE6FDF6BD06FD16B060EDB6A43
:1007B000070EDB6A060EDBCF00F0070EDBCF01F081
:1007C000D890015004E6060E005C000E015831E29C
:1007D000D950040FE96EDACFEAFFEE50ED1029E0B0
:1007E000060EDBCFE9FF070EDBCFEAFF860EE92618
:1007F000010EEA22EFCF00F0060EDBCFE9FF070E75
:10080000DBCFEAFF800EE926010EEA22EF50005C02
:1008100006E1010EF36E040EF3CFDBFF02D0040EEF
:10082000DB6A050EDB6A060EDB2A070EC3E3DB2A52
:10083000C1D7D950040FE96EDACFEAFFEE50ED10C0
:1008400004E0580EE66E010E03D0BF0EE66E010EF8
:10085000E66ECEDDE552E552330EE66E010EE66E33
:100860000ADEE552E552140EE66EDBEC00F0E552CE
:10087000580EE66E010EE66EBBDDE552E552140E33
:10088000E66EDBEC00F0E552C00EE66E30EC0EF0EA
:10089000E55211EC0EF0000957E0FBD7D051D11111
:1008A00004E0FE0EDBCFE6FF02D02A0EE66E1EEC61
:1008B0000EF0E55211EC0EF00009FCE1140EE66EAC
:1008C000DBEC00F0E5520101030ED41907E1D5512C
:1008D00005E1FE0EDBCFE6FF44DE04D0FE0EDBCFEB
:1008E000E6FF0CDEE552230E006EFE0EDB50005CD0
:1008F0002BE10101D62B000ED723030ED61924E1DC
:10090000D75122E1010EDC6FDD6B8C0EE66E010E1D
:10091000E66E6EDDE552E552330EE66E010EE66ED2
:10092000AADDE552E552140EE66EDBEC00F0E5526E
:10093000C00EE66E30EC0EF0E55211EC0EF0000940
:10094000FCE10101D66BD76B080EE15C02E2E16AC3
:10095000E552E16EE552E7CFD9FF1200DACFE4FFAE
:10096000E2CFDAFFE9CFE4FFEACFE4FFF6CFE4FF1E
:10097000F7CFE4FFF5CFE4FFF3CFE4FFF4CFE4FFDC
:10098000FACFE4FF00EE14F0020EE80403E3EECF2A
:10099000E4FFFBD700EE00F0140EE80403E3EECF13
:1009A000E4FFFBD7E652F2A482D0F294320ED66E68
:1009B0008350010B1CE00101E40519E183A802D07A
:1009C000310E0BD083AA02D0360E07D083AC02D0F2
:1009D000370E03D083AE04D02A0EE66E28DEE55231
:1009E00083908382839483960101020E5FD08350AB
:1009F000020B1DE0020E0101E45D19E183A802D0A3
:100A0000320E0BD083AA02D0350E07D083AC02D0B1
:100A1000380E03D083AE04D0300EE66E08DEE55209
:100A200083908392838483960101030E3FD0835089
:100A3000040B1DE0030E0101E45D19E183A802D05F
:100A4000330E0BD083AA02D0340E07D083AC02D071
:100A5000390E03D083AE04D0230EE66EE8DDE552F6
:100A600083908392839483860101040E1FD0835068
:100A7000080B1DE0040E0101E45D19E183A802D01A
:100A8000410E0BD083AA02D0420E07D083AC02D015
:100A9000430E03D083AE04D0440EE66EC8DDE552AB
:100AA00083808392839483960101010EE46FE55263
:100AB00000EE13F0140EE80403E3E5CFEDFFFBD7DF
:100AC00000EE15F0020EE80403E3E5CFEDFFFBD7DF
:100AD000E5CFFAFFE5CFF4FFE5CFF3FFE5CFF5FF74
:100AE000E5CFF7FFE5CFF6FFE5CFEAFFE5CFE9FF7A
:100AF000E5CFDAFF1100D9CFE6FFE1CFD9FFFE0E37
:100B0000DB50D56EE552E7CFD9FF1200D9CFE6FF13
:100B1000E1CFD9FFFE0EDB5003E0F28AF28E02D065
:100B2000F29AF29EE552E7CFD9FF1200D9CFE6FF45
:100B3000E1CFD9FFFE0EDB50D66EE552E7CFD9FFED
:100B40001200D9CFE6FFE1CFD9FFFE0EDBCF01F0D7
:100B500001C000F00150D76EFD0EDB50D66EE5529D
:060B6000E7CFD9FF1200EF
:0A0B6600D9CFE6FFE1CFD9FF240E3E
:100B7000E126FD0EDBCFE9FFFE0EDBCFEAFFEECF75
:100B8000DFFF010EEECFDBFF020EEECFDBFF030E29
:100B9000EECFDBFF040EE76EFD0EDBCFE9FFFE0EAE
:100BA000DBCFEAFFE750E926000EEA22040EEECF83
:100BB000DBFF050EEECFDBFF060EEECFDBFF070EF1
:100BC000EECFDBFF080EDB6A090EDB6A0A0EDB6A7A
:100BD0000B0EDB6AB90EF36E100EF3CFDBFF790E4E
:100BE000F36E110EF3CFDBFF370EF36E120EF3CF61
:100BF000DBFF9E0EF36E130EF3CFDBFFFB0EDBCF9E
:100C0000E9FFFC0EDBCFEAFF140EEECFDBFF150E83
:100C1000EECFDBFF160EEECFDBFF170EEECFDBFFC6
:100C2000040EE76EFB0EDBCFE9FFFC0EDBCFEAFF25
:100C3000E750E926000EEA22180EEECFDBFF190E70
:100C4000EECFDBFF1A0EEECFDBFF1B0EEECFDBFF8E
:100C5000080EE76EFB0EDBCFE9FFFC0EDBCFEAFFF1
:100C6000E750E926000EEA221C0EEECFDBFF1D0E38
:100C7000EECFDBFF1E0EEECFDBFF1F0EEECFDBFF56
:100C80000C0EE76EFB0EDBCFE9FFFC0EDBCFEAFFBD
:100C9000E750E926000EEA22200EEECFDBFF210E00
:100CA000EECFDBFF220EEECFDBFF230EEECFDBFF1E
:100CB0000C0EDB6A0D0EDB6A0E0EDB6A0F0EDB6AB2
:100CC000D9500C0FE96EDACFEAFF200EEE5C000E71
:100CD000EE58000EEE58000EEE5801E31CD1D9502C
:100CE000080FE96EDACFEAFF100EDB50EE26110E88
:100CF000DB50EE22120EDB50EE22130EDB50EE2202
:100D0000040EDBCF04F0050EDBCF05F0060EDBCFC3
:100D100006F0070EDBCF07F0040E1F0B07E0D8909C
:100D20000436053606360736E806F9E1D950140FC1
:100D3000E96EDACFEAFF0450EE24006E0550EE2093
:100D4000016E0650EE20026E0750EE20036E080E74
:100D5000DBCF08F0090EDBCF09F00A0EDBCF0AF07B
:100D60000B0EDBCF0BF0D950040FE96EDACFEAFFA0
:100D7000EE500826EE500922EE500A22EE500B22C9
:100D80000850001A0950011A0A50021A0B50031A8F
:100D9000040EDBCF10F0050EDBCF11F0060EDBCF1B
:100DA00012F0070EDBCF13F0050ED890133212327B
:100DB00011321032E806F9E1D950180FE96EDACF96
:100DC000EAFF1050EE240C6E1150EE200D6E125002
:100DD000EE200E6E1350EE200F6E0C50001A0D50C8
:100DE000011A0E50021A0F50031A0050DE2601504D
:100DF000DE220250DE220350DD22DD52DD52D9CF49
:100E0000E9FFDACFEAFFEECF04F0EECF05F0EECF48
:100E100006F0EFCF07F0040E1F0B07E0D890043662
:100E2000053606360736E806F9E1D9501C0FE96E9B
:100E3000DACFEAFF0450EE24006E0550EE20016E7A
:100E40000650EE20026E0750EE20036E080EDBCF38
:100E500008F0090EDBCF09F00A0EDBCF0AF00B0E0B
:100E6000DBCF0BF0D9CFE9FFDACFEAFFEE5008264F
:100E7000EE500922EE500A22EE500B220850001AC2
:100E80000950011A0A50021A0B50031AD9CFE9FF70
:100E9000DACFEAFFEECF10F0EECF11F0EECF12F086
:100EA000EFCF13F0050ED8901332123211321032F8
:100EB000E806F9E1D950200FE96EDACFEAFF1050C9
:100EC000EE240C6E1150EE200D6E1250EE200E6EC0
:100ED0001350EE200F6E0C50001A0D50011A0E50D8
:100EE000021A0F50031AD950040FE96EDACFEAFF45
:100EF0000050EE260150EE220250EE220350EE2268
:100F0000D9500C0FE96EDACFEAFFEE2A000EEE227E
:100F1000EE22EE22D5D6FD0EDBCFE9FFFE0EDBCFB3
:100F2000EAFFDFCFEEFF010EDBCFEEFF020EDBCFDD
:100F3000EEFF030EDBCFEEFF040EE76EFD0EDBCF00
:100F4000E9FFFE0EDBCFEAFFE750E926000EEA22BA
:100F5000040EDBCFEEFF050EDBCFEEFF060EDBCF80
:100F6000EEFF070EDBCFEEFF240EE15C02E2E16A4A
:100F7000E552E16EE552E7CFD9FF1200D9CFE6FF87
:100F8000E1CFD9FF240EE126FD0EDBCFE9FFFE0EF7
:100F9000DBCFEAFFEECFDFFF010EEECFDBFF020E6D
:100FA000EECFDBFF030EEECFDBFF040EE76EFD0E90
:100FB000DBCFE9FFFE0EDBCFEAFFE750E926000EAC
:100FC000EA22040EEECFDBFF050EEECFDBFF060EAE
:100FD000EECFDBFF070EEECFDBFF200EF36E080E29
:100FE000F3CFDBFF370EF36E090EF3CFDBFFEF0E0F
:100FF000F36E0A0EF3CFDBFFC60EF36E0B0EF3CFCC
:10100000DBFFB90EF36E100EF3CFDBFF790EF36E3C
:10101000110EF3CFDBFF370EF36E120EF3CFDBFFB3
:101020009E0EF36E130EF3CFDBFFFB0EDBCFE9FF5B
:10103000FC0EDBCFEAFF140EEECFDBFF150EEECF7A
:10104000DBFF160EEECFDBFF170EEECFDBFF040E3D
:10105000E76EFB0EDBCFE9FFFC0EDBCFEAFFE750CC
:10106000E926000EEA22180EEECFDBFF190EEECFB6
:10107000DBFF1A0EEECFDBFF1B0EEECFDBFF080E01
:10108000E76EFB0EDBCFE9FFFC0EDBCFEAFFE7509C
:10109000E926000EEA221C0EEECFDBFF1D0EEECF7E
:1010A000DBFF1E0EEECFDBFF1F0EEECFDBFF0C0EC5
:1010B000E76EFB0EDBCFE9FFFC0EDBCFEAFFE7506C
:1010C000E926000EEA22200EEECFDBFF210EEECF46
:1010D000DBFF220EEECFDBFF230EEECFDBFF0C0E8D
:1010E000DB6A0D0EDB6A0E0EDB6A0F0EDB6AD9506F
:1010F0000C0FE96EDACFEAFF200EEE5C000EEE5820
:10110000000EEE58000EEE5801E31ED1D9CFE9FFD4
:10111000DACFEAFFEECF04F0EECF05F0EECF06F027
:10112000EFCF07F0040E1F0B07E0D890043605360A
:1011300006360736E806F9E1D9501C0FE96EDACF1A
:10114000EAFF0450EE24006E0550EE20016E0650BA
:10115000EE20026E0750EE20036E080EDBCF08F083
:10116000090EDBCF09F00A0EDBCF0AF00B0EDBCF46
:101170000BF0D9CFE9FFDACFEAFFEE500826EE50A8
:101180000922EE500A22EE500B220850001A095094
:10119000011A0A50021A0B50031AD9CFE9FFDACF0D
:1011A000EAFFEECF10F0EECF11F0EECF12F0EFCF5E
:1011B00013F0050ED8901332123211321032E806B5
:1011C000F9E1D950200FE96EDACFEAFF1050EE2492
:1011D0000C6E1150EE200D6E1250EE200E6E13505C
:1011E000EE200F6E0C50001A0D50011A0E50021A0C
:1011F0000F50031AD950040FE96EDACFEAFF0050FE
:10120000EE5E0150EE5A0250EE5A0350EE5A040EB2
:10121000DBCF04F0050EDBCF05F0060EDBCF06F0CA
:10122000070EDBCF07F0040E1F0B07E0D890043643
:10123000053606360736E806F9E1D950140FE96E8F
:10124000DACFEAFF0450EE24006E0550EE20016E66
:101250000650EE20026E0750EE20036E080EDBCF24
:1012600008F0090EDBCF09F00A0EDBCF0AF00B0EF7
:10127000DBCF0BF0D950040FE96EDACFEAFFEE5066
:101280000826EE500922EE500A22EE500B2208509A
:10129000001A0950011A0A50021A0B50031A040EC0
:1012A000DBCF10F0050EDBCF11F0060EDBCF12F016
:1012B000070EDBCF13F0050ED89013321232113225
:1012C0001032E806F9E1D950180FE96EDACFEAFFDB
:1012D0001050EE240C6E1150EE200D6E1250EE20C8
:1012E0000E6E1350EE200F6E0C50001A0D50011AA6
:1012F0000E50021A0F50031AD9CFE9FFDACFEAFFD6
:101300000050EE5E0150EE5A0250EE5A0350EE5A73
:10131000D950080FE96EDACFEAFF100EDB50EE5E0F
:10132000110EDB50EE5A120EDB50EE5A130EDB504C
:10133000EE5AD9500C0FE96EDACFEAFFEE2A000E12
:10134000EE22EE22EE22D3D6FD0EDBCFE9FFFE0E1B
:10135000DBCFEAFFDFCFEEFF010EDBCFEEFF020EA9
:10136000DBCFEEFF030EDBCFEEFF040EE76EFD0ECC
:10137000DBCFE9FFFE0EDBCFEAFFE750E926000EE8
:10138000EA22040EDBCFEEFF050EDBCFEEFF060EEA
:10139000DBCFEEFF070EDBCFEEFF240EE15C02E2B7
:0E13A000E16AE552E16EE552E7CFD9FF120097
:0213AE00D9CF95
:1013B000E6FFE1CFD9FFE652DF6AFC0EDBCFE9FFA3
:1013C000FD0EDBCFEAFFEF50E66EFE0EDB50DF24B2
:1013D000E66EE66A5DEC00F0E552E552E552010E7C
:1013E000E66ECEEC0EF0E552FC0EDBCFE9FFFD0E13
:1013F000DBCFEAFFEF50230807E0FC0EDB2AFD0EEF
:1014000001E3DB2ADF2AD9D7E552E552E7CFD9FF3E
:101410001200D9CFE6FFE1CFD9FFE652DF6AFE0E18
:10142000DB50DF24E66EE66AB9EC00F0E552E552E7
:10143000E66EDF50E76EFC0EDBCFE9FFFD0EDBCF83
:10144000EAFFE750E926000EEA22E552E750EF6E88
:10145000010EE66ECEEC0EF0E552DF50E76EFC0EAC
:10146000DBCFE9FFFD0EDBCFEAFFE750E926000EF8
:10147000EA22EF50230811E0DF50E76EFC0EDBCFCD
:10148000E9FFFD0EDBCFEAFFE750E926000EEA2276
:10149000EF50FF0802E0DF2AC2D7DF50E552E552E5
:1014A000E7CFD9FF1200D9CFE6FFE1CFD9FFE6524F
:1014B000DF6ADF6ADF50006E016AD890015004E6EF
:1014C000000E005C010E015812E2DFCFE6FFE66A73
:1014D000B9EC00F0E552E552FF0802E1DF5007D019
:1014E000010EE66ECEEC0EF0E552DF2AE3D7E552B0
:1014F000E552E7CFD9FF1200D9CFE6FFE1CFD9FF00
:10150000060EE126010EF36E040EF3CFDBFFCBDFF8
:10151000E76E050EE7CFDBFFDECFE9FFDDCFEAFFA9
:10152000550EEF6E020EDBCFE9FF030EDBCFEAFFB5
:10153000500EEF6EFD0EDBCFE9FFFE0EDBCFEAFFB4
:10154000EF5010E1040EDB50E76E000EDFCFE9FF35
:10155000010EDBCFEAFFE750E926000EEA22230E58
:10156000EF6E20D0FD0EDBCFE9FFFE0EDBCFEAFFF2
:10157000EF50E66E040EDB50E76E000EDFCFE9FFA2
:10158000010EDBCFEAFFE750E926000EEA22E55222
:10159000E750EF6EFD0EDB2AFE0E01E3DB2A040EA0
:1015A000DB2AC8D7DECFE6FFDDCFE6FF050EDBCFB7
:1015B000E6FFFDDEE552E552E552050EDBCFE6FF24
:1015C000040EDB28E552E724E76E050EE7CFDBFFCC
:1015D000010EF36E040EF3CFDBFFFB0EDBCFE9FF52
:1015E000FC0EDBCFEAFFEF5010E1040EDB50E76E9C
:1015F000020EDBCFE9FF030EDBCFEAFFE750E9265F
:10160000000EEA22230EEF6E20D0FB0EDBCFE9FFA7
:10161000FC0EDBCFEAFFEF50E66E040EDB50E76E08
:10162000020EDBCFE9FF030EDBCFEAFFE750E9262E
:10163000000EEA22E552E750EF6EFB0EDB2AFC0EAD
:1016400001E3DB2A040EDB2AC8D7020EDBCFE6FF5C
:10165000030EDBCFE6FF050EDBCFE6FFA8DEE5528B
:10166000E552E552060EE15C02E2E16AE552E16E06
:10167000E552E7CFD9FF1200D9CFE6FFE1CFD9FF7E
:10168000080EE126060EDB6A010EF36E070EF3CF9D
:10169000DBFF020EDBCFE9FF030EDBCFEAFF550EC7
:1016A000EF6E040EDBCFE9FF050EDBCFEAFF500E35
:1016B000EF6EFD0EDBCFE9FFFE0EDBCFEAFFEF5052
:1016C00010E1070EDB50E76E020EDBCFE9FF030EE1
:1016D000DBCFEAFFE750E926000EEA22230EEF6E89
:1016E00020D0FD0EDBCFE9FFFE0EDBCFEAFFEF508F
:1016F000E66E070EDB50E76E020EDBCFE9FF030E4E
:10170000DBCFEAFFE750E926000EEA22E552E75078
:10171000EF6EFD0EDB2AFE0E01E3DB2A070EDB2A4D
:10172000C8D7010EF36E070EF3CFDBFFFB0EDBCF46
:10173000E9FFFC0EDBCFEAFFEF5010E1070EDB50B4
:10174000E76E040EDBCFE9FF050EDBCFEAFFE750C3
:10175000E926000EEA22230EEF6E20D0FB0EDBCF2F
:10176000E9FFFC0EDBCFEAFFEF50E66E070EDB5021
:10177000E76E040EDBCFE9FF050EDBCFEAFFE75093
:10178000E926000EEA22E552E750EF6EFB0EDB2A57
:10179000FC0E01E3DB2A070EDB2AC8D7DECFE6FF0B
:1017A000DDCFE6FF060EDBCFE6FF33DEE552E55286
:1017B000E552010F006E060EDBCFE7FF0050E72673
:1017C000060EE7CFDBFFDB0402E1060EDB06010EAF
:1017D000E66EE66A020EDBCFE6FF030EDBCFE6FF26
:1017E000DECFE6FFDDCFE6FF90EC00F0006E060EE8
:1017F000E15E005000092FE1DECFE6FFDDCFE6FF1E
:10180000060EDBCFE6FF05DEE552E552E552010F9D
:10181000006E060EDBCFE7FF0050E726060EE7CF8F
:10182000DBFF010EE66EE66A040EDBCFE6FF050E77
:10183000DBCFE6FFDECFE6FFDDCFE6FF90EC00F08A
:10184000006E060EE15E0050000903E1010EF36E2A
:1018500009D0F36A07D027DEF36E060EDB50F35C87
:101860009DE1F36AF46A080EE15C02E2E16AE55286
:10187000E16EE552E7CFD9FF1200D9CFE6FFE1CF05
:10188000D9FF100EE126D950020FE96EDACFEAFF38
:10189000520EEE6E390EEE6EEE6EEE6E230EEE6EA4
:1018A000D950070FE96EDACFEAFF500EEE6E310E17
:1018B000EE6E320EEE6E330EEE6E340EEE6E350EB2
:1018C000EE6E360EEE6E230EEE6E0F0EDB6ADECF80
:1018D000E6FFDDCFE6FF0F0EDBCFE6FF9ADDE55238
:1018E000E552E552010F006E0F0EDBCFE7FF00500F
:1018F000E7260F0EE7CFDBFFDB0402E10F0EDB066E
:10190000010EE66EE66AD950020FE66E000EDA208E
:10191000E66EDECFE6FFDDCFE6FF90EC00F0006E76
:10192000060EE15E005000091EE0BDDDF36E0F0EF5
:10193000DB50F35CCCE1D950020FE66E000EDA20EA
:10194000E66EB1DDE66E33DDE552E552E552D95083
:10195000070FE66E000EDA20E66EA5DDE66E27DDE7
:10196000E552E552E552100EE15C02E2E16AE55211
:10197000E16EE552E7CFD9FF1200D9CFE6FFE1CF04
:10198000D9FF0B0EE126D950020FE96EDACFEAFF3C
:10199000520EEE6E390EEE6EEE6EEE6E230EEE6EA3
:1019A000090EDB6A010EF36E0A0EF3CFDBFF070EA2
:1019B000DBCFE9FF080EDBCFEAFF500EEF6EFD0E26
:1019C000DBCFE9FFFE0EDBCFEAFFEF5010E10A0E9E
:1019D000DB50E76E070EDBCFE9FF080EDBCFEAFF37
:1019E000E750E926000EEA22230EEF6E20D0FD0E0E
:1019F000DBCFE9FFFE0EDBCFEAFFEF50E66E0A0E0B
:101A0000DB50E76E070EDBCFE9FF080EDBCFEAFF06
:101A1000E750E926000EEA22E552E750EF6EFD0E90
:101A2000DB2AFE0E01E3DB2A0A0EDB2AC8D7DECF53
:101A3000E6FFDDCFE6FF090EDBCFE6FFEADCE5528D
:101A4000E552E552010F006E090EDBCFE7FF0050B3
:101A5000E726090EE7CFDBFFDB0402E1090EDB0618
:101A6000010EE66EE66AD950020FE66E000EDA202D
:101A7000E66EDECFE6FFDDCFE6FF90EC00F0006E15
:101A8000060EE15E0050000932E1070EDBCFE6FFF3
:101A9000080EDBCFE6FF090EDBCFE6FF88DCE55260
:101AA000E552E552DECFE6FFDDCFE6FF090EDBCFE4
:101AB000E6FFAFDCE552E552E552010EE66EE66A5E
:101AC000070EDBCFE6FF080EDBCFE6FFDECFE6FF3B
:101AD000DDCFE6FF90EC00F0006E060EE15E0050F8
:101AE000000903E1010EF36E09D0F36A07D0DBDCD5
:101AF000F36E090EDB50F35C9AE1F36AF46A0B0EA5
:101B0000E15C02E2E16AE552E16EE552E7CFD9FF1E
:021B10001200C1
:0E1B1200D9CFE6FFE1CFD9FF050EE1260F0E79
:101B2000DF6EDE52060EDD6E010EF36E020EF3CF97
:101B3000DBFF8492849084940F0EC16E966A936A40
:101B4000030EDB6AF36EDBCFF4FFE850F45C07E2D0
:101B5000300E816E33D83DD8030EDB2AF3D7FE0E4C
:101B6000DB0402E1300E01D0380E816E27D831D867
:101B7000030EDB6AF36EDBCFF4FFE850F45C13E294
:101B8000D9CF00F0DACF01F0030EDB500F01D924DA
:101B9000E96E000EDA20EA6EEF50816E0FD819D888
:101BA000030EDB2AE7D79368050EE15C02E2E16AE7
:101BB000E552E16EE552E7CFD9FF120010D88482DA
:101BC0000ED884921200020EE66EC0EC0EF0E552C2
:101BD0001200010EE66EDBEC00F0E5521200000090
:101BE00000000000000000000000000000000000F5
:101BF00000000000000000000000000000001200D3
:101C000000000000000000000000000000000000D4
:101C100000000000000000000000000000000000C4
:101C2000120084848490DBDF8482D9DF81AE03D00C
:101C300084928494010C84928494000CD9CFE6FFA2
:101C4000E1CFD9FF936AFE0EDB50816E84808494CD
:101C5000B5DF8490C4DF9368E552E7CFD9FF120067
:101C6000D9CFE6FFE1CFD9FF936AFE0EDB50816E3C
:101C700084908494A3DF8490B2DF9368E552E7CF29
:101C8000D9FF1200D9CFE6FFE1CFD9FFFD0EDBCFA0
:101C9000F6FFFE0EDBCFF7FF0800F55014E0C1DFC2
:101CA0000009FDE1FD0EDBCFF6FFFE0EDBCFF7FFF7
:101CB0000800F550E66EC2DFE552FD0EDB2AFE0E8F
:101CC000E5E3DB2AE3D7E552E7CFD9FF1200D9CF0E
:101CD000E6FFE1CFD9FF210EE126800EE66EC0DFE0
:101CE000E5529FDF0009FDE1200EDB6AF36EDBCFDA
:101CF000F4FFE850F45C2AE2100EF36E200EDBCF06
:101D0000F4FFF350F45C07E2E66898DFE55289DF00
:101D1000000919E0FCD7200EDB5010080EE1C00EC0
:101D2000E66E9EDFE5527DDF0009FDE1E66886DFB5
:101D3000E55277DF000907E0FCD7E6687FDFE55270
:101D400070DF0009FDE1200EDB2AD0D7210EE15C17
:101D500002E2E16AE552E16EE552E7CFD9FF1200F7
:101D6000000EF36E00EE00F0080E01D81200EA60DB
:101D700002D0EE6AFCD7F350E9601200EE6AFCD79D
:101D8000FF0EE350176E1B0E00D001D0200EE76E41
:0C1D9000E72EFED7172EFAD700D0120065
:041D9C00FF0EE35003
:101DA000E84E1200000000D000D000D0E82EFAD794
:021DB00012001F
:0E1DB200436F6E6E656374696E672E2E2E0091
:101DC000000000506C6561736520576169742100E3
:101DD000000000004F4B2100000000000000000048
:101DE00000000000002000000000000000000000D3
:101DF00000000000000000010153454E48413A0038
:101E000000000000000000000000555355415249F9
:101E10004F3A0000000000000000004E4F564120E5
:101E200053454E48413A0000000000000001010106
:101E30000101000101010101000101010101526FD5
:101E40006F743A0000000000000000000000005223
:101E500065706574653A20202020202020202020F5
:101E600053656A612062656D2076696E646F21201A
:101E70000053656E686120696E76616C69646120EB
:101E80002000010000000000000000000000000031
:071E90000100010001000147
:020000040030CA
:0100000000FF
:010001000CF2
:0100020019E4
:010003001EDE
:010005008377
:010006008178
:010008000FE8
:01000900C036
:01000A000FE6
:01000B00E014
:01000C000FE4
:01000D0040B2
:00000001FF
