:020000040000FA
:06000000F2EF00F0120017
:020006001200E6
:0600080063EF07F0120097
:02000E000100EF
:0C0010001618000000010000AF00000006
:04001C000E0EF66E60
:10002000000EF76E000EF86E01010900F550B46F76
:100030000900F550B56F03E1B46701D03DD0090068
:10004000F550AF6F0900F550B06F0900F550B16F72
:1000500009000900F550E96E0900F550EA6E090043
:1000600009000900F550B26F0900F550B36F09009F
:100070000900F6CFB6F1F7CFB7F1F8CFB8F1AFC1BD
:10008000F6FFB0C1F7FFB1C1F8FF0101B25302E1C1
:10009000B35307E00900F550EE6EB207F8E2B3077C
:1000A000F9D7B6C1F6FFB7C1F7FFB8C1F8FF010134
:0A00B000B407000EB55BBFD71200C5
:0600BA00D9CFE6FFDACF0A
:1000C000E6FFE1CFD9FFE2CFDAFFE652DF6AFF0EAB
:1000D000E76EFC0EDBCF00F0E75000160050A96E73
:1000E000FB0EDB50A86EA69EA69CA684F250800B49
:1000F00001E0010EDF6EF29E550EA76EAA0EA76EEE
:10010000A682A6B2FED7DF50E8B0F28EE8A0F29E3B
:10011000A694E552E552E5CFDAFFE7CFD9FF12000A
:10012000D9CFE6FFDACFE6FFFA0EE3CFD9FFFB0E19
:10013000E3CFDAFFFC0EE3CFE9FFFD0EE3CFEAFFEA
:10014000F80EE35003E1F90EE35008E0F80EE30681
:1001500002E2F90EE306DE50EE5CF2E0F36EFF0E13
:10016000E3CFDAFFE552FF0EE3CFD9FFE552F350BC
:0201700012007B
:0E017200D9CFE6FFDACFE6FFE1CFD9FFE2CF2B
:10018000DAFFFF0EE76EFC0EDBCF00F0FD0EDBCFDB
:1001900001F0E7500016016A0050A96EA69CA69EC9
:1001A000A68000000000A85000D0E552E5CFDAFF9D
:0601B000E7CFD9FF1200A9
:0A01B600FF0EE350176EEF0E01D0AC
:1001C000F30EE76EE72EE2EF00F00C0E166EE76A14
:1001D000E72EE8EF00F0162EE7EF00F0172EE0EF25
:0401E00000F0120019
:0C01E40013EE00F023EE00F0F86A159C0A
:1001F0000EEC00F003EC00F049EC05F0FBD7120028
:10020000D9CFE6FFE1CFD9FFFD0EDBCFE9FFFE0E30
:10021000DBCFEAFFEF5015E043EC0BF00009FCE107
:10022000FD0EDBCFE9FFFE0EDBCFEAFFEF50E66EFF
:1002300050EC0BF0E552FD0EDB2AFE0EE5E3DB2A67
:0A024000E3D7E552E7CFD9FF120023
:06024A00D9CFE6FFE1CF71
:10025000D9FF240EE126FD0EDBCFE9FFFE0EDBCF3A
:10026000EAFFEECFDFFF010EEECFDBFF020EEECF97
:10027000DBFF030EEECFDBFF040EE76EFD0EDBCFE0
:10028000E9FFFE0EDBCFEAFFE750E926000EEA2287
:10029000040EEECFDBFF050EEECFDBFF060EEECF3A
:1002A000DBFF070EEECFDBFF080EDB6A090EDB6A11
:1002B0000A0EDB6A0B0EDB6AB90EF36E100EF3CF7B
:1002C000DBFF790EF36E110EF3CFDBFF370EF36E0B
:1002D000120EF3CFDBFF9E0EF36E130EF3CFDBFF98
:1002E000FB0EDBCFE9FFFC0EDBCFEAFF140EEECFF7
:1002F000DBFF150EEECFDBFF160EEECFDBFF170E8A
:10030000EECFDBFF040EE76EFB0EDBCFE9FFFC0E4A
:10031000DBCFEAFFE750E926000EEA22180EEECF07
:10032000DBFF190EEECFDBFF1A0EEECFDBFF1B0E4D
:10033000EECFDBFF080EE76EFB0EDBCFE9FFFC0E16
:10034000DBCFEAFFE750E926000EEA221C0EEECFD3
:10035000DBFF1D0EEECFDBFF1E0EEECFDBFF1F0E11
:10036000EECFDBFF0C0EE76EFB0EDBCFE9FFFC0EE2
:10037000DBCFEAFFE750E926000EEA22200EEECF9F
:10038000DBFF210EEECFDBFF220EEECFDBFF230ED5
:10039000EECFDBFF0C0EDB6A0D0EDB6A0E0EDB6AA6
:1003A0000F0EDB6AD9500C0FE96EDACFEAFF200E90
:1003B000EE5C000EEE58000EEE58000EEE5801E313
:1003C0001CD1D950080FE96EDACFEAFF100EDB50CE
:1003D000EE26110EDB50EE22120EDB50EE22130E33
:1003E000DB50EE22040EDBCF04F0050EDBCF05F070
:1003F000060EDBCF06F0070EDBCF07F0040E1F0B57
:1004000007E0D8900436053606360736E806F9E1E7
:10041000D950140FE96EDACFEAFF0450EE24006ED3
:100420000550EE20016E0650EE20026E0750EE20C1
:10043000036E080EDBCF08F0090EDBCF09F00A0EC1
:10044000DBCF0AF00B0EDBCF0BF0D950040FE96EB7
:10045000DACFEAFFEE500826EE500922EE500A22CB
:10046000EE500B220850001A0950011A0A50021AC5
:100470000B50031A040EDBCF10F0050EDBCF11F08A
:10048000060EDBCF12F0070EDBCF13F0050ED8906F
:100490001332123211321032E806F9E1D950180F36
:1004A000E96EDACFEAFF1050EE240C6E1150EE2008
:1004B0000D6E1250EE200E6E1350EE200F6E0C508B
:1004C000001A0D50011A0E50021A0F50031A005054
:1004D000DE260150DE220250DE220350DD22DD52F4
:1004E000DD52D9CFE9FFDACFEAFFEECF04F0EECF4D
:1004F00005F0EECF06F0EFCF07F0040E1F0B07E07C
:10050000D8900436053606360736E806F9E1D950A4
:100510001C0FE96EDACFEAFF0450EE24006E05509E
:10052000EE20016E0650EE20026E0750EE20036EA4
:10053000080EDBCF08F0090EDBCF09F00A0EDBCF87
:100540000AF00B0EDBCF0BF0D9CFE9FFDACFEAFFD1
:10055000EE500826EE500922EE500A22EE500B22F1
:100560000850001A0950011A0A50021A0B50031AB7
:10057000D9CFE9FFDACFEAFFEECF10F0EECF11F0DE
:10058000EECF12F0EFCF13F0050ED89013321232E7
:1005900011321032E806F9E1D950200FE96EDACFB6
:1005A000EAFF1050EE240C6E1150EE200D6E12502A
:1005B000EE200E6E1350EE200F6E0C50001A0D50F0
:1005C000011A0E50021A0F50031AD950040FE96E87
:1005D000DACFEAFF0050EE260150EE220250EE2262
:1005E0000350EE22D9500C0FE96EDACFEAFFEE2A63
:1005F000000EEE22EE22EE22D5D6FD0EDBCFE9FF75
:10060000FE0EDBCFEAFFDFCFEEFF010EDBCFEEFF0A
:10061000020EDBCFEEFF030EDBCFEEFF040EE76E24
:10062000FD0EDBCFE9FFFE0EDBCFEAFFE750E92648
:10063000000EEA22040EDBCFEEFF050EDBCFEEFF4D
:10064000060EDBCFEEFF070EDBCFEEFF240EE15CE4
:1006500002E2E16AE552E16EE552E7CFD9FF12000E
:10066000D9CFE6FFE1CFD9FF240EE126FD0EDBCF87
:10067000E9FFFE0EDBCFEAFFEECFDFFF010EEECF8C
:10068000DBFF020EEECFDBFF030EEECFDBFF040E2F
:10069000E76EFD0EDBCFE9FFFE0EDBCFEAFFE75092
:1006A000E926000EEA22040EEECFDBFF050EEECFA8
:1006B000DBFF060EEECFDBFF070EEECFDBFF200EDB
:1006C000F36E080EF3CFDBFF370EF36E090EF3CF98
:1006D000DBFFEF0EF36E0A0EF3CFDBFFC60EF36EF9
:1006E0000B0EF3CFDBFFB90EF36E100EF3CFDBFF73
:1006F000790EF36E110EF3CFDBFF370EF36E120E91
:10070000F3CFDBFF9E0EF36E130EF3CFDBFFFB0E7A
:10071000DBCFE9FFFC0EDBCFEAFF140EEECFDBFFF1
:10072000150EEECFDBFF160EEECFDBFF170EEECF72
:10073000DBFF040EE76EFB0EDBCFE9FFFC0EDBCF29
:10074000EAFFE750E926000EEA22180EEECFDBFFA3
:10075000190EEECFDBFF1A0EEECFDBFF1B0EEECF36
:10076000DBFF080EE76EFB0EDBCFE9FFFC0EDBCFF5
:10077000EAFFE750E926000EEA221C0EEECFDBFF6F
:100780001D0EEECFDBFF1E0EEECFDBFF1F0EEECFFA
:10079000DBFF0C0EE76EFB0EDBCFE9FFFC0EDBCFC1
:1007A000EAFFE750E926000EEA22200EEECFDBFF3B
:1007B000210EEECFDBFF220EEECFDBFF230EEECFBE
:1007C000DBFF0C0EDB6A0D0EDB6A0E0EDB6A0F0E12
:1007D000DB6AD9500C0FE96EDACFEAFF200EEE5C2F
:1007E000000EEE58000EEE58000EEE5801E31ED13A
:1007F000D9CFE9FFDACFEAFFEECF04F0EECF05F074
:10080000EECF06F0EFCF07F0040E1F0B07E0D890F5
:100810000436053606360736E806F9E1D9501C0FCE
:10082000E96EDACFEAFF0450EE24006E0550EE20A8
:10083000016E0650EE20026E0750EE20036E080E89
:10084000DBCF08F0090EDBCF09F00A0EDBCF0AF090
:100850000B0EDBCF0BF0D9CFE9FFDACFEAFFEE507A
:100860000826EE500922EE500A22EE500B220850C4
:10087000001A0950011A0A50021A0B50031AD9CF54
:10088000E9FFDACFEAFFEECF10F0EECF11F0EECFB6
:1008900012F0EFCF13F0050ED8901332123211324E
:1008A0001032E806F9E1D950200FE96EDACFEAFFFD
:1008B0001050EE240C6E1150EE200D6E1250EE20F2
:1008C0000E6E1350EE200F6E0C50001A0D50011AD0
:1008D0000E50021A0F50031AD950040FE96EDACFE6
:1008E000EAFF0050EE5E0150EE5A0250EE5A0350FD
:1008F000EE5A040EDBCF04F0050EDBCF05F0060E3A
:10090000DBCF06F0070EDBCF07F0040E1F0B07E06E
:10091000D8900436053606360736E806F9E1D95090
:10092000140FE96EDACFEAFF0450EE24006E055092
:10093000EE20016E0650EE20026E0750EE20036E90
:10094000080EDBCF08F0090EDBCF09F00A0EDBCF73
:100950000AF00B0EDBCF0BF0D950040FE96EDACFA3
:10096000EAFFEE500826EE500922EE500A22EE5021
:100970000B220850001A0950011A0A50021A0B5093
:10098000031A040EDBCF10F0050EDBCF11F0060EBC
:10099000DBCF12F0070EDBCF13F0050ED890133229
:1009A000123211321032E806F9E1D950180FE96E0F
:1009B000DACFEAFF1050EE240C6E1150EE200D6ECF
:1009C0001250EE200E6E1350EE200F6E0C50001AD7
:1009D0000D50011A0E50021A0F50031AD9CFE9FF19
:1009E000DACFEAFF0050EE5E0150EE5A0250EE5AA6
:1009F0000350EE5AD950080FE96EDACFEAFF100E15
:100A0000DB50EE5E110EDB50EE5A120EDB50EE5A4A
:100A1000130EDB50EE5AD9500C0FE96EDACFEAFF15
:100A2000EE2A000EEE22EE22EE22D3D6FD0EDBCF12
:100A3000E9FFFE0EDBCFEAFFDFCFEEFF010EDBCFDB
:100A4000EEFF020EDBCFEEFF030EDBCFEEFF040E58
:100A5000E76EFD0EDBCFE9FFFE0EDBCFEAFFE750CE
:100A6000E926000EEA22040EDBCFEEFF050EDBCFF7
:100A7000EEFF060EDBCFEEFF070EDBCFEEFF240E00
:100A8000E15C02E2E16AE552E16EE552E7CFD9FFAF
:020A9000120052
:0E0A9200D9CFE6FFE1CFD9FF240EE126010EF9
:100AA000DB6AD950020FE96EDACFEAFF550EEE6E1F
:100AB000530EEE6E450EEE6E520EEE6EEE6AEE6A5E
:100AC000EE6AEE6AEE6AEE6AEE6AEE6AEE6AEE6A66
:100AD000EE6AEE6AEE6AD950130FE96EDACFEAFFDA
:100AE0004E0EEE6E4F0EEE6E560EEE6E410EEE6E2A
:100AF000EE6AEE6AEE6AEE6AEE6AEE6AEE6AEE6A36
:100B0000EE6AEE6AEE6AEE6AEE6A14D8C00EE66E1F
:100B1000A7DAE552320EE66EBEDAE552010EE66E57
:100B2000AADAE552F28C020EE66EBBEC0AF0E55250
:100B30000FD8FFD7926A936A946AF00E956E966A00
:100B40000F0EC16E806A816A826A8368846A1200AD
:100B5000010EE66E62EC0BF0E55243EC0BF000097F
:100B6000FCE1000EE66E010EE66E45D8E552E55258
:100B7000110EE66E010EE66E81D8E552E5520101D6
:100B8000AA6BAB6B320EABAF02D0D89003D0AA5D8C
:100B9000000EAB5907E21BEC0BF00101AA2B000E73
:100BA000AB23F0D7220EE66E010EE66E24D8E55296
:100BB000E552330EE66E010EE66E60D8E552E55260
:100BC0000101AA6BAB6B320EABAF02D0D89003D051
:100BD000AA5D000EAB5907E21BEC0BF00101AA2B3A
:100BE000000EAB23F0D7580EE66E010EE66E03D86A
:100BF000E552E5521200D9CFE6FFE1CFD9FF020E50
:100C0000E126DE6ADD6A800EE66E62EC0BF0E552EC
:100C100043EC0BF00009FCE1DE6ADD6ADECF00F098
:100C2000DDCF01F0D890015004E6110E005C000EFB
:100C300001581AE2FD0EDBCF00F0FE0EDBCF01F013
:100C4000DE500024E96EDD500120EA6EEF50E66EC2
:100C500050EC0BF0E55243EC0BF00009FCE1DF2A0D
:100C6000010EDCE3DB2ADAD7020EE15C02E2E16A84
:100C7000E552E16EE552E7CFD9FF1200D9CFE6FF8A
:100C8000E1CFD9FF020EE126DE6ADD6AC00EE66E14
:100C900062EC0BF0E55243EC0BF00009FCE1DE6A7C
:100CA000DD6ADECF00F0DDCF01F0D890015004E620
:100CB000110E005C000E01581AE2FD0EDBCF00F0B1
:100CC000FE0EDBCF01F0DE500024E96EDD50012086
:100CD000EA6EEF50E66E50EC0BF0E55243EC0BF091
:100CE0000009FCE1DF2A010EDCE3DB2ADAD7020E81
:100CF000E15C02E2E16AE552E16EE552E7CFD9FF3D
:100D00001200D9CFE6FFE1CFD9FF440E0101A6259D
:100D1000E96E010EA721EA6EFE0EDBCFEFFFA62BD8
:100D2000000EA723030EA6191BE1A75119E1A26B20
:100D3000A36B470EE66E010EE66E5DDFE552E552EF
:100D4000330EE66E010EE66E99DFE552E552C00EF7
:100D5000E66E62EC0BF0E55243EC0BF00009FCE1AF
:100D6000E552E7CFD9FF1200D9CFE6FFE1CFD9FF97
:100D70007A0E0101A425E96E010EA521EA6EFE0E90
:100D8000DBCFEFFFA42B000EA523060EA41959E11B
:100D9000A55157E1A46BA56BA66BA76B8250010B05
:100DA00002E0829201D082827A0EE66E010EE66E39
:100DB000440EE66E010EE66EBEEC09F0E552E55219
:100DC000E552E552F3CF00F0F4CF01F0F350F41008
:100DD00004E0800EE66E010E03D0910EE66E010E69
:100DE000E66E09DFE552E552330EE66E010EE66E61
:100DF00045DFE552E5520101AA6BAB6B320EABAF9A
:100E000002D0D89003D0AA5D000EAB5907E21BECCC
:100E10000BF00101AA2B000EAB23F0D7010EA26F3D
:100E2000A36B580EE66E010EE66EE5DEE552E55266
:100E3000C00EE66E62EC0BF0E55243EC0BF00009DD
:100E4000FCE1E552E7CFD9FF1200D9CFE6FFE1CFB1
:100E5000D9FF0101AD51AE1109E1C00EE66E62ECA1
:100E60000BF0E55243EC0BF00009FCE10101A2514B
:100E7000A31104E0FE0EDBCFE6FF02D02A0EE66EE1
:100E800050EC0BF0E55243EC0BF00009FCE1140EC2
:100E9000E66EDBEC00F0E5520101AD2B000EAE2357
:100EA000030EA61907E1A75105E1FE0EDBCFE6FF11
:100EB0005BDF04D0FE0EDBCFE6FF23DFE552E55219
:100EC000E7CFD9FF1200DACFE4FFE2CFDAFFE9CFB4
:100ED000E4FFEACFE4FFF6CFE4FFF7CFE4FFF5CF7E
:100EE000E4FFF3CFE4FFF4CFE4FFFACFE4FF00EE3A
:100EF00014F0020EE80403E3EECFE4FFFBD700EEAC
:100F000000F0140EE80403E3EECFE4FFFBD7E65253
:100F1000F2A482D0F294320ED66E8350010B1CE004
:100F20000101AC0519E183A802D0310E0BD083AAD0
:100F300002D0360E07D083AC02D0370E03D083AE7A
:100F400004D02A0EE66E81DFE5528390838283947B
:100F500083960101020E5FD08350020B1DE0020E4A
:100F60000101AC5D19E183A802D0320E0BD083AA37
:100F700002D0350E07D083AC02D0380E03D083AE3A
:100F800004D0300EE66E61DFE55283908392838455
:100F900083960101030E3FD08350040B1DE0030E26
:100FA0000101AC5D19E183A802D0330E0BD083AAF6
:100FB00002D0340E07D083AC02D0390E03D083AEFA
:100FC00004D0230EE66E41DFE55283908392839432
:100FD00083860101040E1FD08350080B1DE0040E10
:100FE0000101AC5D19E183A802D0410E0BD083AAA8
:100FF00002D0420E07D083AC02D0430E03D083AEA2
:1010000004D0440EE66E21DFE55283808392839400
:1010100083960101010EAC6FE55200EE13F0140E41
:10102000E80403E3E5CFEDFFFBD700EE15F0020E79
:10103000E80403E3E5CFEDFFFBD7E5CFFAFFE5CF0B
:10104000F4FFE5CFF3FFE5CFF5FFE5CFF7FFE5CF01
:10105000F6FFE5CFEAFFE5CFE9FFE5CFDAFF1100C4
:10106000D9CFE6FFE1CFD9FFFE0EDB50D56EE552BA
:10107000E7CFD9FF1200D9CFE6FFE1CFD9FFFE0EAF
:10108000DB5003E0F28AF28E02D0F29AF29EE55231
:10109000E7CFD9FF1200D9CFE6FFE1CFD9FFFE0E8F
:1010A000DB50D66EE552E7CFD9FF1200D9CFE6FF6D
:1010B000E1CFD9FFFE0EDBCF01F001C000F00150FF
:1010C000D76EFD0EDB50D66EE552E7CFD9FF12008A
:1010D000D9CFE6FFE1CFD9FFE652DF6AFC0EDBCFC6
:1010E000E9FFFD0EDBCFEAFFEF50E66EFE0EDB50B0
:1010F000DF24E66EE66A5DEC00F0E552E552E5526B
:10110000010EE66E00EC0CF0E552FC0EDBCFE9FFC1
:10111000FD0EDBCFEAFFEF50230807E0FC0EDB2AD1
:10112000FD0E01E3DB2ADF2AD9D7E552E552E7CFEE
:10113000D9FF1200D9CFE6FFE1CFD9FFE652DF6A2F
:10114000FE0EDB50DF24E66EE66AB9EC00F0E552F5
:10115000E552E66EDF50E76EFC0EDBCFE9FFFD0ED9
:10116000DBCFEAFFE750E926000EEA22E552E7501E
:10117000EF6E010EE66E00EC0CF0E552DF50E76E0C
:10118000FC0EDBCFE9FFFD0EDBCFEAFFE750E926DF
:10119000000EEA22EF50230802E0DF2AD1D7DF5009
:1011A000E552E552E7CFD9FF1200D9CFE6FFE1CFF4
:1011B000D9FFE652DF6ADF6ADF50006E016AD8901D
:1011C000015004E6000E005C010E015812E2DFCF70
:1011D000E6FFE66AB9EC00F0E552E552FF0802E1ED
:1011E000DF5007D0010EE66E00EC0CF0E552DF2A6E
:1011F000E3D7E552E552E7CFD9FF1200D9CFE6FF9A
:10120000E1CFD9FF060EE126010EF36E040EF3CFF7
:10121000DBFFCBDFE76E050EE7CFDBFFDECFE9FFBD
:10122000DDCFEAFF550EEF6E020EDBCFE9FF030EB6
:10123000DBCFEAFF500EEF6EFD0EDBCFE9FFFE0EB7
:10124000DBCFEAFFEF5010E1040EDB50E76E000E3B
:10125000DFCFE9FF010EDBCFEAFFE750E926000E02
:10126000EA22230EEF6E20D0FD0EDBCFE9FFFE0E4B
:10127000DBCFEAFFEF50E66E040EDB50E76E000EA8
:10128000DFCFE9FF010EDBCFEAFFE750E926000ED2
:10129000EA22E552E750EF6EFD0EDB2AFE0E01E377
:1012A000DB2A040EDB2AC8D7DECFE6FFDDCFE6FF60
:1012B000050EDBCFE6FF0CDFE552E552E552050EE9
:1012C000DBCFE6FF040EDB28E552E724E76E050ED0
:1012D000E7CFDBFF010EF36E040EF3CFDBFFFB0E57
:1012E000DBCFE9FFFC0EDBCFEAFFEF5010E1040E8D
:1012F000DB50E76E020EDBCFE9FF030EDBCFEAFF28
:10130000E750E926000EEA22230EEF6E20D0FB0EF6
:10131000DBCFE9FFFC0EDBCFEAFFEF50E66E040EF9
:10132000DB50E76E020EDBCFE9FF030EDBCFEAFFF7
:10133000E750E926000EEA22E552E750EF6EFB0E79
:10134000DB2AFC0E01E3DB2A040EDB2AC8D7020EDF
:10135000DBCFE6FF030EDBCFE6FF050EDBCFE6FFBC
:10136000B7DEE552E552E552060EE15C02E2E16AC3
:10137000E552E16EE552E7CFD9FF1200D9CFE6FF83
:10138000E1CFD9FF080EE126060EDB6A010EF36EEF
:10139000070EF3CFDBFF020EDBCFE9FF030EDBCF3F
:1013A000EAFF550EEF6E040EDBCFE9FF050EDBCF33
:1013B000EAFF500EEF6EFD0EDBCFE9FFFE0EDBCF36
:1013C000EAFFEF5010E1070EDB50E76E020EDBCFB5
:1013D000E9FF030EDBCFEAFFE750E926000EEA2221
:1013E000230EEF6E20D0FD0EDBCFE9FFFE0EDBCF2C
:1013F000EAFFEF50E66E070EDB50E76E020EDBCF22
:10140000E9FF030EDBCFEAFFE750E926000EEA22F0
:10141000E552E750EF6EFD0EDB2AFE0E01E3DB2AFC
:10142000070EDB2AC8D7010EF36E070EF3CFDBFFE2
:10143000FB0EDBCFE9FFFC0EDBCFEAFFEF5010E144
:10144000070EDB50E76E040EDBCFE9FF050EDBCFA6
:10145000EAFFE750E926000EEA22230EEF6E20D0C5
:10146000FB0EDBCFE9FFFC0EDBCFEAFFEF50E66EB1
:10147000070EDB50E76E040EDBCFE9FF050EDBCF76
:10148000EAFFE750E926000EEA22E552E750EF6E48
:10149000FB0EDB2AFC0E01E3DB2A070EDB2AC8D792
:1014A000DECFE6FFDDCFE6FF060EDBCFE6FF42DE56
:1014B000E552E552E552010F006E060EDBCFE7FF65
:1014C0000050E726060EE7CFDBFF010EE66EE66A68
:1014D000020EDBCFE6FF030EDBCFE6FFDECFE6FF3B
:1014E000DDCFE6FF90EC00F0006E060EE15E0050EE
:1014F00000092FE1DECFE6FFDDCFE6FF060EDBCFF2
:10150000E6FF18DEE552E552E552010F006E060EC9
:10151000DBCFE7FF0050E726060EE7CFDBFF010E2B
:10152000E66EE66A040EDBCFE6FF050EDBCFE6FFD4
:10153000DECFE6FFDDCFE6FF90EC00F0006E060E9A
:10154000E15E0050000903E1010EF36E09D0F36A79
:1015500007D02BDEF36E060EDB50F35CA1E1F36ADD
:10156000F46A080EE15C02E2E16AE552E16EE552DE
:06157000E7CFD9FF1200D5
:0A157600D9CFE6FFE1CFD9FF050E43
:10158000E1260F0EDF6EDE52060EDD6E010EF36EEB
:10159000020EF3CFDBFF8492849084940F0EC16E11
:1015A000966A936A030EDB6AF36EDBCFF4FFE850B2
:1015B000F45C07E2300E816E33D83DD8030EDB2A8F
:1015C000F3D7FE0EDB0402E1300E01D0380E816E3F
:1015D00027D831D8030EDB6AF36EDBCFF4FFE85077
:1015E000F45C13E2D9CF00F0DACF01F0030EDB5048
:1015F0000F01D924E96E000EDA20EA6EEF50816EF9
:101600000FD819D8030EDB2AE7D79368050EE15CE3
:1016100002E2E16AE552E16EE552E7CFD9FF12003E
:1016200010D884820ED884921200020EE66EF2EC7C
:101630000BF0E5521200010EE66EDBEC00F0E55215
:101640001200000000000000000000000000000088
:10165000000000000000000000000000000000008A
:101660000000120000000000000000000000000068
:10167000000000000000000000000000000000006A
:1016800000000000120084848490DBDF8482D9DFB4
:1016900081AE03D084928494010C84928494000CD3
:1016A000D9CFE6FFE1CFD9FF936AFE0EDB50816E02
:1016B00084808494B5DF8490C4DF9368E552E7CFDB
:1016C000D9FF1200D9CFE6FFE1CFD9FF936AFE0E12
:1016D000DB50816E84908494A3DF8490B2DF9368A2
:1016E000E552E7CFD9FF1200D9CFE6FFE1CFD9FF0E
:1016F000FD0EDBCFF6FFFE0EDBCFF7FF0800F55047
:1017000014E0C1DF0009FDE1FD0EDBCFF6FFFE0EA8
:10171000DBCFF7FF0800F550E66EC2DFE552FD0EA5
:10172000DB2AFE0EE5E3DB2AE3D7E552E7CFD9FF5C
:101730001200D9CFE6FFE1CFD9FF210EE126800EBE
:10174000E66EC0DFE5529FDF0009FDE1200EDB6A97
:10175000F36EDBCFF4FFE850F45C2AE2100EF36E78
:10176000200EDBCFF4FFF350F45C07E2E66898DF6D
:10177000E55289DF000919E0FCD7200EDB50100884
:101780000EE1C00EE66E9EDFE5527DDF0009FDE151
:10179000E66886DFE55277DF000907E0FCD7E668F8
:1017A0007FDFE55270DF0009FDE1200EDB2AD0D794
:1017B000210EE15C02E2E16AE552E16EE552E7CF1B
:0417C000D9FF12003B
:0C17C400000EF36E00EE00F0080E01D8DD
:1017D0001200EA6002D0EE6AFCD7F350E960120012
:0417E000EE6AFCD7DA
:0C17E400FF0EE350176E1B0E00D001D06A
:1017F000200EE76EE72EFED7172EFAD700D0120084
:10180000FF0EE350E84E1200000000D000D000D0E0
:06181000E82EFAD71200D9
:0A181600436F6E6E656374696E67C0
:101820002E2E2E00000000506C65617365205761FC
:1018300069742100000000004F4B210000000000EF
:101840000000000000000000002000000000000078
:101850000000000000000000000000000053454EA2
:1018600048413A000000000000000000000055530D
:10187000554152494F3A0000000000000000004E60
:101880004F56412053454E48413A000000000000A9
:1018900000000000000053656A612062656D2076DB
:1018A000696E646F21200053656E686120696E76F1
:1018B000E16C69646120200001000000000000006C
:0518C000000001000022
:020000040030CA
:0100000000FF
:010001000CF2
:0100020019E4
:010003001EDE
:010005008377
:010006008178
:010008000FE8
:01000900C036
:01000A000FE6
:01000B00E014
:01000C000FE4
:01000D0040B2
:00000001FF
