:020000040000FA
:06000000D9EF00F0120030
:020006001200E6
:060008000DEF05F01200EF
:02000E000100EF
:0C001000A616000000010000F600000031
:04001C000E0EF66E60
:10002000000EF76E000EF86E01010900F550FB6F2F
:100030000900F550FC6F03E1FB6701D03DD00900DA
:10004000F550F66F0900F550F76F0900F550F86F9D
:1000500009000900F550E96E0900F550EA6E090043
:1000600009000900F550F96F0900F550FA6F090011
:100070000900F6CFFDF1F7CFFEF1F8CFFFF1F6C1A1
:10008000F6FFF7C1F7FFF8C1F8FF0101F95302E1EC
:10009000FA5307E00900F550EE6EF907F8E2FA07A7
:1000A000F9D7FDC1F6FFFEC1F7FFFFC1F8FF01015F
:0A00B000FB07000EFC5BBFD7120037
:0600BA00D9CFE6FFDACF0A
:1000C000E6FFE1CFD9FFE2CFDAFFE652DF6AFF0EAB
:1000D000E76EFC0EDBCF00F0E75000160050A96E73
:1000E000FB0EDB50A86EA69EA69CA684F250800B49
:1000F00001E0010EDF6EF29E550EA76EAA0EA76EEE
:10010000A682A6B2FED7DF50E8B0F28EE8A0F29E3B
:10011000A694E552E552E5CFDAFFE7CFD9FF12000A
:10012000D9CFE6FFDACFE6FFE1CFD9FFE2CFDAFFA2
:10013000FF0EE76EFC0EDBCF00F0FD0EDBCF01F013
:10014000E7500016016A0050A96EA69CA69EA680E4
:1001500000000000A85000D0E552E5CFDAFFE7CF5D
:04016000D9FF1200B1
:0C016400FF0EE3500B6EEF0E01D0F30E07
:10017000E76EE72EB9EF00F00C0E0A6EE76AE72E85
:10018000BFEF00F00A2EBEEF00F00B2EB7EF00F02D
:0201900012005B
:0E019200000EF36E00EE00F0080E01D8120011
:1001A000EA6002D0EE6AFCD7F350E9601200EE6A12
:0201B000FCD77A
:0E01B20013EE00F023EE00F0F86A099C0EEC4C
:0E01C00000F003EC00F025EC01F0FBD712007C
:0201CE00FF0E22
:1001D000E3500B6E1B0E00D001D0200EE76EE72E11
:0A01E000FED70B2EFAD700D0120054
:0601EA00FF0EE350E84E99
:1001F0001200000000D000D000D0E82EFAD7120084
:10020000D9CFE6FFE1CFD9FFFD0EDBCFE9FFFE0E30
:10021000DBCFEAFFEF5015E0AFEC0AF00009FCE19C
:10022000FD0EDBCFE9FFFE0EDBCFEAFFEF50E66EFF
:10023000BCEC0AF0E552FD0EDB2AFE0EE5E3DB2AFC
:0A024000E3D7E552E7CFD9FF120023
:06024A00D9CFE6FFE1CF71
:10025000D9FF090EE126D9CFE9FFDACFEAFF300E48
:10026000EE6EEE6EEE6ED950030FE96EDACFEAFF56
:10027000310EEE6E320EEE6EEE6E340EEE6E330E0C
:10028000EE6E360EEE6E29D8C00EE66EDAEC05F094
:10029000E552320EE66EF5EC05F0E552010EE66E23
:1002A000E5EC05F0E552F28C020EE66E27EC0AF062
:1002B000E55221D8DEEC08F0D950030FE66E000EAF
:1002C000DA20E66ED9CFE6FFDACFE6FF2AEC07F0B8
:1002D000E552E552E552E552FFD7926A936A946A75
:1002E000F00E956E966A0F0EC16E806A816A826A00
:1002F0008368846A1200010EE66ECEEC0AF0E552C5
:10030000AFEC0AF00009FCE1000EE66E010EE66EAD
:1003100051D8E552E552110EE66E010EE66E8DD80B
:10032000E552E5520101EB6BEC6B320EECAF02D003
:10033000D89003D0EB5D000EEC5907E287EC0AF091
:100340000101EB2B000EEC23F0D7220EE66E010E1E
:10035000E66E30D8E552E552330EE66E010EE66EDB
:100360006CD8E552E5520101EB6BEC6B320EECAF51
:1003700002D0D89003D0EB5D000EEC5907E287EC79
:100380000AF00101EB2B000EEC23F0D7580EE66EBD
:10039000010EE66E0FD8E552E552C00EE66ECEECC9
:1003A0000AF0E552AFEC0AF00009FCE10101F36B41
:1003B000F46B1200D9CFE6FFE1CFD9FF020EE126A0
:1003C000DE6ADD6A800EE66ECEEC0AF0E552AFEC36
:1003D0000AF00009FCE1DE6ADD6ADECF00F0DDCF65
:1003E00001F0D890015004E6110E005C000E015897
:1003F0001AE2FD0EDBCF00F0FE0EDBCF01F0DE5087
:100400000024E96EDD500120EA6EEF50E66EBCEC90
:100410000AF0E552AFEC0AF00009FCE1DF2A010E18
:10042000DCE3DB2ADAD7020EE15C02E2E16AE552A4
:10043000E16EE552E7CFD9FF1200D9CFE6FFE1CF59
:10044000D9FF020EE126DE6ADD6AC00EE66ECEEC52
:100450000AF0E552AFEC0AF00009FCE1DE6ADD6A61
:10046000DECF00F0DDCF01F0D890015004E6110E90
:10047000005C000E01581AE2FD0EDBCF00F0FE0E0C
:10048000DBCF01F0DE500024E96EDD500120EA6E82
:10049000EF50E66EBCEC0AF0E552AFEC0AF0000952
:1004A000FCE1DF2A010EDCE3DB2ADAD7020EE15C95
:1004B00002E2E16AE552E16EE552E7CFD9FF1200B0
:1004C000D9CFE6FFE1CFD9FF440E0101E525E96E62
:1004D000010EE621EA6EFE0EDBCFEFFFE52B000EEC
:1004E000E623030EE5191BE1E65119E1E16BE26B2E
:1004F000470EE66E010EE66E5DDFE552E552330E05
:10050000E66E010EE66E99DFE552E552C00EE66E2C
:10051000CEEC0AF0E552AFEC0AF00009FCE1E5523E
:10052000E7CFD9FF1200D9CFE6FFE1CFD9FF7A0E8E
:100530000101E325E96E010EE421EA6EFE0EDBCF38
:10054000EFFFE32B000EE423060EE31901E09CD03D
:10055000E45101E099D0E36BE46BE56BE66B7A0E56
:10056000E66E010EE66E440EE66E010EE66EE9ECF6
:1005700007F0E552E552E552E552F3CF00F0F4CF33
:1005800001F0F350F4101DE08280BF0EE66E010E04
:10059000E66E10DFE552E5520101EB6BEC6B320EBB
:1005A000ECAF02D0D89003D0EB5D000EEC5907E21F
:1005B00087EC0AF00101EB2B000EEC23F0D78290C0
:1005C0001CD08282D00EE66E010EE66EF3DEE5529E
:1005D000E5520101EB6BEC6B320EECAF02D0D89020
:1005E00003D0EB5D000EEC5907E287EC0AF0010145
:1005F000EB2B000EEC23F0D78292330EE66E010E49
:10060000E66E1BDFE552E5520101EB6BEC6B320E3F
:10061000ECAF02D0D89003D0EB5D000EEC5907E2AE
:1006200087EC0AF00101EB2B000EEC23F0D7010E52
:10063000E16FE26B580EE66E010EE66EBBDEE55230
:10064000E552330EE66E010EE66EF7DEE552E55238
:10065000C00EE66ECEEC0AF0E552AFEC0AF00009EF
:10066000FCE10101EB6BEC6B320EECAF02D0D890E9
:1006700003D0EB5D000EEC5907E287EC0AF00101B4
:10068000EB2B000EEC23F0D7E552E7CFD9FF120099
:10069000D9CFE6FFE1CFD9FF800E0101E925E96E50
:1006A000010EEA21EA6EFE0EDBCFEFFFE92B000E12
:1006B000EA23E552E7CFD9FF1200D9CFE6FFE1CF19
:1006C000D9FF080EE1260101F351F41101E09BD19D
:1006D000ED51EE1101E141D1FE0EDBCFE6FFD8DF97
:1006E000E5522A0EE66EBCEC0AF0E552AFEC0AF0D9
:1006F0000009FCE1140EE66EB2EC00F0E5520101D7
:10070000060EE91901E07FD1EA5101E07CD1DE6AF1
:10071000DD6AE96BEA6BE56BE66BDE6ADD6ADECF0C
:1007200000F0DDCF01F0D890015004E6030E005C2C
:10073000000E01580FE2DECFE9FFDDCFEAFF440EE5
:10074000E926010EEA22390EEF6EDF2A010EE7E3F9
:10075000DB2AE5D70101EF51F01129E0800EE66EAA
:10076000010EE66E440EE66E010EE66EE9EC07F051
:10077000E552E552E552E552F3CF00F0F4CF01F037
:10078000F350F41001E1DAD00101EF6BF06B010ED0
:10079000F16FF26B690EE66E010EE66E0BDEE5524E
:1007A000E552330EE66E010EE66E47DEC5D0F1511E
:1007B000F21147E0020EDB6A030EDB6A020EDB6A0F
:1007C000030EDB6A020EDBCF00F0030EDBCF01F07D
:1007D000D890015004E6060E005C000E01581FE29E
:1007E000020EDBCFE9FF030EDBCFEAFF800EE92626
:1007F000010EEA22EF50E66E020EDBCFE9FF030E98
:10080000DBCFEAFF860EE926010EEA22E552E75029
:10081000EF6E020EDB2A030ED5E3DB2AD3D79C0E44
:10082000E66E160EE66EC6DDE552E552AE0EE66EDB
:10083000010EE66E02DEE552E5520101F16BF26B4C
:100840007DD0010EF36E040EF3CFDBFF050EDB6AE5
:10085000060EDB6A070EDB6AED6BEE6B010EF16FC5
:10086000F26BEF6FF06BE16FE26B060EDB6A070E67
:10087000DB6A060EDBCF00F0070EDBCF01F0D8906D
:10088000015004E6060E005C000E015831E2D9501A
:10089000040FE96EDACFEAFFEE50ED1029E0060E04
:1008A000DBCFE9FF070EDBCFEAFF860EE926010E5C
:1008B000EA22EFCF00F0060EDBCFE9FF070EDBCF19
:1008C000EAFF800EE926010EEA22EF50005C06E105
:1008D000010EF36E040EF3CFDBFF02D0040EDB6AD1
:1008E000050EDB6A060EDB2A070EC3E3DB2AC1D73F
:1008F000D950040FE96EDACFEAFFEE50ED1004E0B4
:10090000580EE66E010E03D0D00EE66E010EE66EB6
:1009100051DDE552E552330EE66E010EE66E8DDDD9
:10092000E552E552140EE66EB2EC00F0E552580EB8
:10093000E66E010EE66E3EDDE552E552140EE66E01
:10094000B2EC00F0E552C00EE66ECEEC0AF0E552D5
:10095000AFEC0AF0000957E0FBD7E151E21104E0E7
:10096000FE0EDBCFE6FF02D02A0EE66EBCEC0AF0EC
:10097000E552AFEC0AF00009FCE1140EE66EB2ECB1
:1009800000F0E5520101030EE51907E1E65105E12A
:10099000FE0EDBCFE6FFC7DD04D0FE0EDBCFE6FFA9
:1009A0008FDDE5522A0E006EFE0EDB50005C2BE15F
:1009B0000101E72B000EE823030EE71924E1E851BB
:1009C00022E1010EED6FEE6B8C0EE66E010EE66E0F
:1009D000F1DCE552E552330EE66E010EE66E2DDDDA
:1009E000E552E552140EE66EB2EC00F0E552C00E90
:1009F000E66ECEEC0AF0E552AFEC0AF00009FCE13D
:100A00000101E76BE86B080EE15C02E2E16AE55286
:100A1000E16EE552E7CFD9FF1200DACFE4FFE2CF73
:100A2000DAFFE9CFE4FFEACFE4FFF6CFE4FFF7CF48
:100A3000E4FFF5CFE4FFF3CFE4FFF4CFE4FFFACF18
:100A4000E4FF00EE08F0020EE80403E3EECFE4FF5B
:100A5000FBD700EE00F0080EE80403E3EECFE4FF5E
:100A6000FBD7E652F2A482D0F294320ED66E8350B7
:100A7000010B1CE00101F50519E183A802D0310E3C
:100A80000BD083AA02D0360E07D083AC02D0370E2B
:100A900003D083AE04D02A0EE66E0FDEE5528390BB
:100AA0008382839483960101020E5FD08350020BF0
:100AB0001DE0020E0101F55D19E183A802D0320E9E
:100AC0000BD083AA02D0350E07D083AC02D0380EEB
:100AD00003D083AE04D0300EE66EEFDDE552839096
:100AE0008392838483960101030E3FD08350040BCD
:100AF0001DE0030E0101F55D19E183A802D0330E5C
:100B00000BD083AA02D0340E07D083AC02D0390EAA
:100B100003D083AE04D0230EE66ECFDDE552839082
:100B20008392839483860101040E1FD08350080BA7
:100B30001DE0040E0101F55D19E183A802D0410E0C
:100B40000BD083AA02D0420E07D083AC02D0430E52
:100B500003D083AE04D0440EE66EAFDDE552838051
:100B60008392839483960101010EF56FE55200EEA6
:100B700007F0080EE80403E3E5CFEDFFFBD700EE36
:100B800009F0020EE80403E3E5CFEDFFFBD7E5CF64
:100B9000FAFFE5CFF4FFE5CFF3FFE5CFF5FFE5CFB3
:100BA000F7FFE5CFF6FFE5CFEAFFE5CFE9FFE5CFB9
:100BB000DAFF1100D9CFE6FFE1CFD9FFFE0EDB50FF
:100BC000D56EE552E7CFD9FF1200D9CFE6FFE1CFCE
:100BD000D9FFFE0EDB5003E0F28AF28E02D0F29AC9
:100BE000F29EE552E7CFD9FF1200D9CFE6FFE1CF61
:100BF000D9FFFE0EDB50D66EE552E7CFD9FF1200CB
:100C0000D9CFE6FFE1CFD9FFFE0EDBCF01F001C067
:100C100000F00150D76EFD0EDB50D66EE552E7CFE7
:040C2000D9FF1200E6
:0C0C2400D9CFE6FFE1CFD9FFE652DF6A2E
:100C3000FC0EDBCFE9FFFD0EDBCFEAFFEF50E66EE7
:100C4000FE0EDB50DF24E66EE66A5DEC00F0E55256
:100C5000E552E552010EE66EF5EC00F0E552FC0EB1
:100C6000DBCFE9FFFD0EDBCFEAFFEF50230807E003
:100C7000FC0EDB2AFD0E01E3DB2ADF2AD9D7E55281
:100C8000E552E7CFD9FF1200D9CFE6FFE1CFD9FF78
:100C9000E652DF6AFE0EDB50DF24E66EE66A90EC79
:100CA00000F0E552E552E66EDF50E76EFC0EDBCF5A
:100CB000E9FFFD0EDBCFEAFFE750E926000EEA224E
:100CC000E552E750EF6E010EE66EF5EC00F0E552EE
:100CD000DF50E76EFC0EDBCFE9FFFD0EDBCFEAFF56
:100CE000E750E926000EEA22EF50230811E0DF501A
:100CF000E76EFC0EDBCFE9FFFD0EDBCFEAFFE7502E
:100D0000E926000EEA22EF50FF0802E0DF2AC2D7F0
:100D1000DF50E552E552E7CFD9FF1200D9CFE6FF09
:100D2000E1CFD9FFE652DF6ADF6ADF50006E016A69
:100D3000D890015004E6000E005C010E015812E24A
:100D4000DFCFE6FFE66A90EC00F0E552E552FF08DF
:100D500002E1DF5007D0010EE66EF5EC00F0E5523F
:100D6000DF2AE3D7E552E552E7CFD9FF1200D9CF0A
:100D7000E6FFE1CFD9FF020EE126DE6ADD6AFD0E55
:100D8000DBCF01F0FE0EDBCF02F0DE500124E96E76
:100D9000DD500220EA6EEFCF00F0FB0EDBCF03F058
:100DA000FC0EDBCF04F0DE500324E96EDD5004209E
:100DB000EA6EEF50005C02E0F36A41D0FD0EDBCF3B
:100DC00000F0FE0EDBCF01F0DE500024E96EDD50B6
:100DD0000120EA6EEF50230830E0FD0EDBCF02F079
:100DE000FE0EDBCF03F0DE500224E96EDD5003205F
:100DF000EA6EEF5022E0FB0EDBCF04F0FC0EDBCFFF
:100E000005F0DE500424E96EDD500520EA6EEF5057
:100E100014E0FB0EDBCF06F0FC0EDBCF07F0DE505C
:100E20000624E96EDD500720EA6EEF50230805E046
:100E3000DF2A010EA4E3DB2AA2D7010EF36EF46AC7
:100E4000020EE15C02E2E16AE552E16EE552E7CFB3
:100E5000D9FF1200D9CFE6FFE1CFD9FF660EE12618
:100E6000010EF36E640EF3CFDBFF58DFE76E650E05
:100E7000E7CFDBFF550EDF6E500EF36E320EF3CF71
:100E8000DBFFFD0EDBCFE9FFFE0EDBCFEAFFEF500D
:100E900004E0640EDB5003080FE2D9CF00F0DACF94
:100EA00001F0640EDB500F01D924E96E000EDA2048
:100EB000EA6E230EEF6E1FD0FD0EDBCFE9FFFE0EB4
:100EC000DBCFEAFFEF50E66ED9CF00F0DACF01F0CA
:100ED000640EDB500F01D924E96E000EDA20EA6EB1
:100EE000E552E750EF6EFD0EDB2AFE0E01E3DB2A32
:100EF000640EDB2AC6D7D9CFE6FFDACFE6FF650E50
:100F0000DBCFE6FF8FDEE552E552E552650EDBCF23
:100F1000E6FF640EDB28E552E724E76E650EE7CFB7
:100F2000DBFF010EF36E640EF3CFDBFFFB0EDBCFB6
:100F3000E9FFFC0EDBCFEAFFEF5004E0640EDB506C
:100F4000060810E2D950320F006EDACF01F0640EBD
:100F5000DB500F010024E96E000EDA20EA6E230E4A
:100F6000EF6E20D0FB0EDBCFE9FFFC0EDBCFEAFFFC
:100F7000EF50E66ED950320F006EDACF01F0640EFA
:100F8000DB500F010024E96E000EDA20EA6EE55214
:100F9000E750EF6EFB0EDB2AFC0E01E3DB2A640E4A
:100FA000DB2AC4D7D950320FE66E000EDA20E66E87
:100FB000650EDBCFE6FF36DEE552E552E552660E02
:100FC000E15C02E2E16AE552E16EE552E7CFD9FF6A
:100FD0001200D9CFE6FFE1CFD9FF700EE1266E0EE9
:100FE000DB6A010EF36E6F0EF3CFDBFF550EDF6E83
:100FF000500EF36E190EF3CFDBFFFD0EDBCFE9FFD2
:10100000FE0EDBCFEAFFEF5004E06F0EDB5003086B
:101010000BE26F0EDB500F01D924E96E000EDA20CF
:10102000EA6E230EEF6E1AD0FD0EDBCFE9FFFE0E47
:10103000DBCFEAFFEF50E66E6F0EDB50D924E96E8E
:10104000000EDA20EA6EE552E750EF6EFD0EDB2A65
:10105000FE0E01E3DB2A6F0EDB2ACFD7010EF36E03
:101060006F0EF3CFDBFFFB0EDBCFE9FFFC0EDBCF18
:10107000EAFFEF5004E06F0EDB5006080FE2D95094
:10108000190F006EDACF01F06F0EDB500024E96E0D
:10109000000EDA20EA6E230EEF6E1DD0FB0EDBCFC2
:1010A000E9FFFC0EDBCFEAFFEF50E66ED950190FD7
:1010B000006E6F0EDB500024E96E000EDA20EA6E3F
:1010C000E552E750EF6EFB0EDB2AFC0E01E3DB2A54
:1010D0006F0EDB2AC8D7D9503C0FE66E000EDA201F
:1010E000E66E6E0EDBCFE6FFCFDDE552E552E55250
:1010F000010F006E6E0EDBCFE7FF0050E7266E0E8D
:10110000E7CFDBFFDB0402E16E0EDB06D9CFE6FFA3
:10111000DACFE6FFD9503C0FE66E000EDA20E66E1D
:1011200026DEE552E552E552E552F3CF00F0F4CF6A
:1011300001F0F350F41030E0D9503C0FE66E000E91
:10114000DA20E66E6E0EDBCFE6FF9EDDE552E5525D
:10115000E552010F006E6E0EDBCFE7FF0050E72671
:101160006E0EE7CFDBFFD950190FE66E000EDA20C6
:10117000E66ED9503C0FE66E000EDA20E66EF7DD23
:10118000E552E552E552E552F350F41003E0010E4A
:10119000F36E09D0F36A07D0C1DDF36E6E0EDB503B
:1011A000F35C99E1F36AF46A700EE15C02E2E16AD1
:1011B000E552E16EE552E7CFD9FF1200D9CFE6FF45
:1011C000E1CFD9FF400EE126D950320FE96EDACFD8
:1011D000EAFF550EEE6E390EEE6EEE6EEE6E230EDB
:1011E000EE6ED950370FE96EDACFEAFF500EEE6E91
:1011F000310EEE6E320EEE6E330EEE6E340EEE6E7D
:10120000350EEE6E360EEE6E230EEE6E3F0EDB6A80
:10121000D9CFE6FFDACFE6FF3F0EDBCFE6FF34DDC6
:10122000E552E552E552010F006E3F0EDBCFE7FFBE
:101230000050E7263F0EE7CFDBFFDB0402E13F0E65
:10124000DB06D950320FE66E000EDA20E66ED9CFFB
:10125000E6FFDACFE6FF8BDDE552E552E552E552D7
:10126000F3CF00F0F4CF01F0F350F4101EE156DD9F
:10127000F36E3F0EDB50F35CCBE1D950320FE66EDC
:10128000000EDA20E66E4ADDE66ECCDCE552E55271
:10129000E552D950370FE66E000EDA20E66E3EDDDD
:1012A000E66EC0DCE552E552E552400EE15C02E23A
:1012B000E16AE552E16EE552E7CFD9FF1200D9CFDE
:1012C000E6FFE1CFD9FF6B0EE126D950320FE96E70
:1012D000DACFEAFF550EEE6E390EEE6EEE6EEE6E62
:1012E000230EEE6E690EDB6A010EF36E6A0EF3CF0B
:1012F000DBFF500EF36E370EF3CFDBFFFD0EDBCFBF
:10130000E9FFFE0EDBCFEAFFEF5004E06A0EDB5090
:10131000060810E2D950370F006EDACF01F06A0EDE
:10132000DB500F010024E96E000EDA20EA6E230E76
:10133000EF6E1DD0FD0EDBCFE9FFFE0EDBCFEAFF27
:10134000EF50E66ED950370F006E6A0EDB50002466
:10135000E96E000EDA20EA6EE552E750EF6EFD0E00
:10136000DB2AFE0E01E3DB2A6A0EDB2AC7D7D9CFC0
:10137000E6FFDACFE6FF690EDBCFE6FF85DCE5525C
:10138000E552E552010F006E690EDBCFE7FF00501A
:10139000E726690EE7CFDBFFDB0402E1690EDB061F
:1013A000D950320FE66E000EDA20E66ED9CFE6FF96
:1013B000DACFE6FFDCDCE552E552E552E552F3CF49
:1013C00000F0F4CF01F0F350F4102FE0D950370FB4
:1013D000E66E000EDA20E66E690EDBCFE6FF22DC59
:1013E000E552E552E552D9CFE6FFDACFE6FF690EC6
:1013F000DBCFE6FF49DCE552E552E552D950370F25
:10140000E66E000EDA20E66ED9CFE6FFDACFE6FF11
:10141000AEDCE552E552E552E552F350F41003E03C
:10142000010EF36E09D0F36A07D078DCF36E690E13
:10143000DB50F35C9CE1F36AF46A6B0EE15C02E260
:0E144000E16AE552E16EE552E7CFD9FF1200F6
:02144E00D9CFF4
:10145000E6FFE1CFD9FF050EE1260F0EDF6EDE526B
:10146000060EDD6E010EF36E020EF3CFDBFF8492EB
:10147000849084940F0EC16E966A936A030EDB6AA1
:10148000F36EDBCFF4FFE850F45C07E2300E816EC0
:1014900033D83DD8030EDB2AF3D7FE0EDB0402E17E
:1014A000300E01D0380E816E27D831D8030EDB6A9A
:1014B000F36EDBCFF4FFE850F45C13E2D9CF00F019
:1014C000DACF01F0030EDB500F01D924E96E000ED4
:1014D000DA20EA6EEF50816E0FD819D8030EDB2A9E
:1014E000E7D79368050EE15C02E2E16AE552E16E3E
:1014F000E552E7CFD9FF120010D884820ED884922B
:101500001200020EE66EE7EC00F0E5521200010E4A
:10151000E66EB2EC00F0E5521200000000000000A0
:1015200000000000000000000000000000000000BB
:101530000000000000000000000012000000000099
:10154000000000000000000000000000000000009B
:101550000000000000000000000000001200848471
:101560008490DBDF8482D9DF81AE03D084928494BF
:10157000010C84928494000CD9CFE6FFE1CFD9FF0F
:10158000936AFE0EDB50816E84808494B5DF849074
:10159000C4DF9368E552E7CFD9FF1200D9CFE6FF49
:1015A000E1CFD9FF936AFE0EDB50816E8490849464
:1015B000A3DF8490B2DF9368E552E7CFD9FF120032
:1015C000D9CFE6FFE1CFD9FFFD0EDBCFF6FFFE0E50
:1015D000DBCFF7FF0800F55014E0C1DF0009FDE1A3
:1015E000FD0EDBCFF6FFFE0EDBCFF7FF0800F55058
:1015F000E66EC2DFE552FD0EDB2AFE0EE5E3DB2AD6
:10160000E3D7E552E7CFD9FF1200D9CFE6FFE1CF0C
:10161000D9FF210EE126800EE66EC0DFE5529FDF86
:101620000009FDE1200EDB6AF36EDBCFF4FFE8502A
:10163000F45C2AE2100EF36E200EDBCFF4FFF350C1
:10164000F45C07E2E66898DFE55289DF000919E0FB
:10165000FCD7200EDB5010080EE1C00EE66E9EDFB8
:10166000E5527DDF0009FDE1E66886DFE55277DFC0
:10167000000907E0FCD7E6687FDFE55270DF00096C
:10168000FDE1200EDB2AD0D7210EE15C02E2E16A07
:0C169000E552E16EE552E7CFD9FF1200F1
:04169C00524F4F5406
:0616A0003A20393939003F
:0A16A600436F6E6E656374696E6732
:1016B0002E2E2E00000000506C656173652057616E
:1016C00069742100000000004F4B21000000000061
:1016D00000000000000000000020000000000000EA
:1016E0000000000000000000000000010153454E12
:1016F00048413A000000000000000000000055537F
:10170000554152494F3A0000000000000000004ED1
:101710004F56412053454E48413A0000000000001A
:1017200000010101010100010101010100010101AC
:101730000101524F4F543A00000000000000000029
:1017400000000053454E4841204F4B21200000002F
:10175000000000005245504554453A2020202020EA
:10176000202020202053454A412042454D20564903
:101770004E444F21200053454E484120494E56418A
:101780004C494441202000010000000000000000FE
:0C17900000000000000100010001000149
:020000040030CA
:0100000000FF
:010001000CF2
:0100020019E4
:010003001EDE
:010005008377
:010006008178
:010008000FE8
:01000900C036
:01000A000FE6
:01000B00E014
:01000C000FE4
:01000D0040B2
:00000001FF
