:020000040000FA
:06000000D9EF00F0120030
:020006001200E6
:0600080070EF08F0120089
:02000E000100EF
:0C001000241D000000010000EA000000B8
:04001C000E0EF66E60
:10002000000EF76E000EF86E01010900F550EF6F3B
:100030000900F550F06F03E1EF6701D03DD00900F2
:10004000F550EA6F0900F550EB6F0900F550EC6FC1
:1000500009000900F550E96E0900F550EA6E090043
:1000600009000900F550ED6F0900F550EE6F090029
:100070000900F6CFF1F1F7CFF2F1F8CFF3F1EAC1D1
:10008000F6FFEBC1F7FFECC1F8FF0101ED5302E110
:10009000EE5307E00900F550EE6EED07F8E2EE07CB
:1000A000F9D7F1C1F6FFF2C1F7FFF3C1F8FF010183
:0A00B000EF07000EF05BBFD712004F
:0600BA00D9CFE6FFDACF0A
:1000C000E6FFE1CFD9FFE2CFDAFFE652DF6AFF0EAB
:1000D000E76EFC0EDBCF00F0E75000160050A96E73
:1000E000FB0EDB50A86EA69EA69CA684F250800B49
:1000F00001E0010EDF6EF29E550EA76EAA0EA76EEE
:10010000A682A6B2FED7DF50E8B0F28EE8A0F29E3B
:10011000A694E552E552E5CFDAFFE7CFD9FF12000A
:10012000D9CFE6FFDACFE6FFE1CFD9FFE2CFDAFFA2
:10013000FF0EE76EFC0EDBCF00F0FD0EDBCF01F013
:10014000E7500016016A0050A96EA69CA69EA680E4
:1001500000000000A85000D0E552E5CFDAFFE7CF5D
:04016000D9FF1200B1
:0C016400FF0EE3500B6EEF0E01D0F30E07
:10017000E76EE72EB9EF00F00C0E0A6EE76AE72E85
:10018000BFEF00F00A2EBEEF00F00B2EB7EF00F02D
:0201900012005B
:0E019200000EF36E00EE00F0080E01D8120011
:1001A000EA6002D0EE6AFCD7F350E9601200EE6A12
:0201B000FCD77A
:0E01B20013EE00F023EE00F0F86A099C0EEC4C
:0E01C00000F003EC00F025EC01F0FBD712007C
:0201CE00FF0E22
:1001D000E3500B6E1B0E00D001D0200EE76EE72E11
:0A01E000FED70B2EFAD700D0120054
:0601EA00FF0EE350E84E99
:1001F0001200000000D000D000D0E82EFAD7120084
:10020000D9CFE6FFE1CFD9FFFD0EDBCFE9FFFE0E30
:10021000DBCFEAFFEF5015E0F3EC0DF00009FCE155
:10022000FD0EDBCFE9FFFE0EDBCFEAFFEF50E66EFF
:1002300000EC0EF0E552FD0EDB2AFE0EE5E3DB2AB4
:0A024000E3D7E552E7CFD9FF120023
:06024A0017D8C00EE66E9D
:1002500030EC09F0E552320EE66E4BEC09F0E55257
:10026000010EE66E3BEC09F0E552F28C020EE66EF2
:100270006BEC0DF0E5520FD8FFD7926A936A946A3F
:10028000F00E956E966A0F0EC16E806A816A826A60
:100290008368846A1200D9CFE6FFE1CFD9FF330E1D
:1002A000E126D9CFE9FFDACFEAFF430EEE6E6F0EFB
:1002B000EE6E6E0EEE6EEE6E650EEE6E630EEE6E12
:1002C000740EEE6E690EEE6E6E0EEE6E670EEE6ED4
:1002D0002E0EEE6EEE6EEE6EEE6AEE6AEE6AEE6A6E
:1002E000D950110FE96EDACFEAFF500EEE6E6C0EA8
:1002F000EE6E650EEE6E610EEE6E730EEE6E650EB8
:10030000EE6E200EEE6E570EEE6E610EEE6E690E04
:10031000EE6E740EEE6E210EEE6EEE6AEE6AEE6A10
:10032000EE6AEE6AD950220FE96EDACFEAFF4F0E7D
:10033000EE6E4B0EEE6E210EEE6EEE6AEE6AEE6A19
:10034000EE6AEE6AEE6AEE6AEE6AEE6AEE6AEE6AED
:10035000EE6AEE6AEE6A010EE66E12EC0EF0E552FF
:10036000F3EC0DF00009FCE1D9CFE6FFDACFE6FFB0
:100370005BD8E552E552D950110FE66E000EDA2037
:10038000E66E95D8E552E55228D8D950220FE66E90
:10039000000EDA20E66E48D8E552E552000EE66E11
:1003A000010EE66E84D8E552E55217D8250EE66EAA
:1003B000010EE66E39D8E552E55242D90101E76BEC
:1003C000E86B22EC0CF0330EE15C02E2E16AE552EC
:1003D000E16EE552E7CFD9FF1200D9CFE6FFE1CFBA
:1003E000D9FF020EE126DE6ADD6ADE6ADD6ADECF53
:1003F00000F0DDCF01F0D890015004E6320E005C31
:10040000000E015807E2CBEC0DF0DF2A010EEFE3FE
:10041000DB2AEDD7020EE15C02E2E16AE552E16E11
:10042000E552E7CFD9FF1200D9CFE6FFE1CFD9FFE0
:10043000020EE126DE6ADD6A800EE66E12EC0EF038
:10044000E552F3EC0DF00009FCE1DE6ADD6ADECF77
:1004500000F0DDCF01F0D890015004E6110E005CF1
:10046000000E01581AE2FD0EDBCF00F0FE0EDBCFCE
:1004700001F0DE500024E96EDD500120EA6EEF50FD
:10048000E66E00EC0EF0E552F3EC0DF00009FCE135
:10049000DF2A010EDCE3DB2ADAD7020EE15C02E29E
:1004A000E16AE552E16EE552E7CFD9FF1200D9CFFC
:1004B000E6FFE1CFD9FF020EE126DE6ADD6AC0D891
:1004C000DE6ADD6ADECF00F0DDCF01F0D8900150AA
:1004D00004E6110E005C000E01581AE2FD0EDBCF9F
:1004E00000F0FE0EDBCF01F0DE500024E96EDD509F
:1004F0000120EA6EEF50E66E00EC0EF0E552F3ECF0
:100500000DF00009FCE1DF2A010EDCE3DB2ADAD77B
:10051000020EE15C02E2E16AE552E16EE552E7CFEC
:10052000D9FF1200D9CFE6FFE1CFD9FF110E0101AB
:10053000D725E96E010ED821EA6EFE0EDBCFEFFF64
:10054000D72B000ED823030ED71913E1D85111E190
:10055000D36BD46B140EE66E010EE66E65DFE552CA
:10056000E552000EE66E010EE66EA1DFE552E552A1
:1005700067D8E552E7CFD9FF1200D9CFE6FFE1CF28
:10058000D9FF470E0101D525E96E010ED621EA6E8D
:10059000FE0EDBCFEFFFD52B000ED623060ED519AE
:1005A0004BE1D65149E1D56BD66BD76BD86B000EBA
:1005B000E66E010EE66E7BDFE552E552470EE66E13
:1005C000010EE66E110EE66E010EE66E2DEC0BF0DE
:1005D000E552E552E552E552F3CF00F0F4CF01F0D9
:1005E000F350F4100BE08280B10EE66E010EE66E61
:1005F0001BDFE552E552F1DE82900AD08282C20E04
:10060000E66E010EE66E10DFE552E552E6DE8292FE
:10061000010E0101D36FD46B250EE66E010EE66E5E
:1006200003DFE552E552000EE66E010EE66E3FDF97
:10063000E552E55205D8D1DEE552E7CFD9FF1200E9
:10064000C00EE66E12EC0EF0E552F3EC0DF0000970
:10065000FCE11200D9CFE6FFE1CFD9FF4D0E010139
:10066000DD25E96E010EDE21EA6EFE0EDBCFEFFF27
:10067000DD2B000EDE23E552E7CFD9FF1200D9CFE4
:10068000E6FFE1CFD9FF560EE1260101E751E8115F
:1006900002E023EF08F02A0E006EFE0EDB50005C35
:1006A00031E1DB2B000EDC23030EDB1901E0ADD0C2
:1006B000DC5101E0AAD0010EDF6FE06BD36BD46B8D
:1006C0007E0EE66E010EE66EAFDEE552E5528F0E4F
:1006D000E66E010EE66EEBDEE552E5527EDE5C0E66
:1006E000E66E010EE66EA0DEE552E552000EE66E05
:1006F000010EE66EDCDEE552E552A2DF0101DB6BA6
:10070000DC6B83D0DB6BDC6B230E006EFE0EDB50EC
:10071000005C01E080D0D92B000EDA23040ED91939
:1007200074E1DA5172E1D9CFE9FFDACFEAFF4D0E79
:10073000EE6E4F0EEE6E440EEE6E4F0EEE6E200E0F
:10074000EE6E440EEE6E450EEE6E200EEE6E430E15
:10075000EE6E410EEE6E440EEE6E410EEE6E530ED8
:10076000EE6E540EEE6E520EEE6E4F0EEE6EEE6AA2
:10077000D950110FE96EDACFEAFF200EEE6EEE6E61
:10078000440EEE6E450EEE6E200EEE6E550EEE6EC3
:10079000530EEE6E550EEE6E410EEE6E520EEE6E76
:1007A000490EEE6E4F0EEE6E530EEE6E200EEE6E96
:1007B000EE6EEE6EEE6AD9CFE6FFDACFE6FF34DEFC
:1007C000E552E552D950110FE66E000EDA20E66EC2
:1007D0006EDEE552E55201DE5C0EE66E010EE66E5F
:1007E00023DEE552E552000EE66E010EE66E5FDE98
:1007F000E552E55225DF0101D96BDA6B010EE16F9D
:10080000E26BE36FE46BD36BD46B140EE66EB2EC69
:1008100000F022EF08F0D96BDA6BDF51E01101E153
:1008200059D1FE0EDBCFE6FF15DFE5522A0EE66E4C
:1008300000EC0EF0E552F3EC0DF00009FCE1140EB3
:10084000E66EB2EC00F0E5520101060EDD1901E0A2
:10085000FAD3DE5101E0F7D3DD6BDE6BD76BD86BDB
:10086000E351E41152E0220EDB6A230EDB6A220E12
:10087000DB6A230EDB6A220EDBCF00F0230EDBCF18
:1008800001F0D890015004E6030E005C000E015800
:1008900012E2220EDBCFE9FF230EDBCFEAFF110EBF
:1008A000E926010EEA22390EEF6E220EDB2A230E14
:1008B000E2E3DB2AE0D74D0EE66E010EE66E110E86
:1008C000E66E010EE66E2DEC0BF0E552E552E552B8
:1008D000E552F3CF00F0F4CF01F0F350F4100AE04A
:1008E0000101E36BE46B010EE56FE66B360EE66E1D
:1008F000010EF0D10101DF6BE06B010EE56FE66BDD
:10090000E36FE46BD36FD46BD0D0E551E6115CE0BC
:10091000240EDB6A250EDB6AD950260FE96EDACF8A
:10092000EAFF520EEE6E4F0EEE6EEE6E540EEE6E4F
:100930003A0EEE6E200EEE6E390EEE6EEE6EEE6E2E
:10094000EE6AEE6AEE6AEE6AEE6AEE6AEE6AEE6AE7
:10095000240EDB6A250EDB6A240EDBCF00F0250EA9
:10096000DBCF01F0D890015004E6060E005C000ECB
:1009700001581FE2240EDBCFE9FF250EDBCFEAFF93
:100980004D0EE926010EEA22EF50E66E240EDBCF73
:10099000E9FF250EDBCFEAFF530EE926010EEA221E
:1009A000E552E750EF6E240EDB2A250ED5E3DB2A55
:1009B000D3D7D950260FE66E000EDA20E66E34DD6E
:1009C000E552E5523DDE41D2010EF36E370EF3CF14
:1009D000DBFF380EDB6A390EDB6A3A0EDB6ADD6B51
:1009E000DE6BD56BD66BD76BD86BDF6BE06B010E14
:1009F000E56FE66BE36FE46BD36FD46B390EDB6AA4
:100A00003A0EDB6A390EDBCF00F03A0EDBCF01F095
:100A1000D890015004E6060E005C000E015831E249
:100A2000D950370FE96EDACFEAFFEE50ED1029E02A
:100A3000390EDBCFE9FF3A0EDBCFEAFF530EE92692
:100A4000010EEA22EFCF00F0390EDBCFE9FF3A0EBC
:100A5000DBCFEAFF4D0EE926010EEA22EF50005CE3
:100A600006E1010EF36E370EF3CFDBFF02D0370E37
:100A7000DB6A380EDB6A390EDB2A3A0EC3E3DB2A67
:100A8000C1D7D950370FE96EDACFEAFFEE50ED103B
:100A90000CE04D0EE66E010EE66EA3EC0CF0E55296
:100AA000E5526D0EE66E010E03D0C20EE66E010E2B
:100AB000E66EBADCE552E552000EE66E010EE66E19
:100AC000F6DCE552E55289DC250EE66E010EE66E97
:100AD000ABDC0BD1E151E21101E18ED2E351E41123
:100AE00001E198D0FE0EDBCFE6FFB4DDE5522A0E21
:100AF000E66E00EC0EF0E552F3EC0DF00009FCE1BF
:100B0000140EE66EB2EC00F0E5520101060EDD199E
:100B100001E099D2DE5101E096D23B0EDB6A3C0E39
:100B2000DB6ADD6BDE6BD76BD86B3B0EDB6A3C0E92
:100B3000DB6A3B0EDBCF00F03C0EDBCF01F0D89040
:100B4000015004E6030E005C000E015812E23B0E59
:100B5000DBCFE9FF3C0EDBCFEAFF110EE926010EE9
:100B6000EA22390EEF6E3B0EDB2A3C0EE2E3DB2A73
:100B7000E0D74D0EE66E010EE66E110EE66E010E2A
:100B8000E66E2DEC0BF0E552E552E552E552F3CF5F
:100B900000F0F4CF01F0F350F41031E0D9503D0FE4
:100BA000E96EDACFEAFF4E0EEE6E4F0EEE6E560E87
:100BB000EE6E4F0EEE6E200EEE6E550EEE6E530E76
:100BC000EE6E550EEE6E410EEE6E520EEE6E490E4C
:100BD000EE6E4F0EEE6E3A0EEE6EEE6AEE6AEE6A54
:100BE000EE6A0101E36BE46B010EE56FE66BD36F18
:100BF000D46BD9503D0FE66E000EDA206BD00101A8
:100C0000E16BE26B010EE56FE66BE36FE46BD36FB4
:100C1000D46BD5D1D351D4116FE0FE0EDBCFE6FFFC
:100C200019DDE552FE0EDBCFE6FF00EC0EF0E552DB
:100C3000F3EC0DF00009FCE1140EE66EB2EC00F0EE
:100C4000E5520101030EDD1901E0FDD1DE5101E0A5
:100C5000FAD14E0EDB6A4F0EDB6ADD6BDE6BD76BB3
:100C6000D86B010EE56FE66BD36BD46B4E0EDB6A6F
:100C70004F0EDB6A4E0EDBCF00F04F0EDBCF01F0E4
:100C8000D890015004E6030E005C000E01581FE2EC
:100C90004E0EDBCFE9FF4F0EDBCFEAFF4D0EE9260C
:100CA000010EEA22EF50E66E4E0EDBCFE9FF4F0E4B
:100CB000DBCFEAFF110EE926010EEA22E552E750EA
:100CC000EF6E4E0EDB2A4F0ED5E3DB2AD3D7140E80
:100CD000E66E010EE66E14EC02F0E552E552000EEF
:100CE000E66E010EE66E57EC02F0E552E552140E88
:100CF000E66EB2EC00F07CD1E551E61101E1CCD01A
:100D0000FE0EDBCFE6FFA6DCE5522A0EE66E00EC17
:100D10000EF0E552F3EC0DF00009FCE1140EE66E66
:100D2000B2EC00F0E5520101060EDD1901E08BD1B5
:100D3000DE5101E088D1500EDB6A510EDB6ADD6BBB
:100D4000DE6B800EE66E12EC0EF0E552F3EC0DF069
:100D50000009FCE1520EE66E00EC0EF0E5524F0E7B
:100D6000E66E00EC0EF0E5524F0EE66E00EC0EF073
:100D7000E552540EE66E00EC0EF0E5523A0EE66EC9
:100D800000EC0EF0E552200EE66E00EC0EF0E5529F
:100D9000F3EC0DF00009FCE1500EDB6A510EDB6A4A
:100DA000500EDBCF00F0510EDBCF01F0D890015098
:100DB00004E6030E005C000E015815E2500EDBCF76
:100DC000E9FF510EDBCFEAFF110EE926010EEA2200
:100DD000EF50E66E00EC0EF0E552500EDB2A510E9D
:100DE000DFE3DB2ADDD72CDC500EDB6A510EDB6A39
:100DF000500EDBCF00F0510EDBCF01F0D890015048
:100E000004E6060E005C000E01581FE2500EDBCF18
:100E1000E9FF510EDBCFEAFF4D0EE926010EEA2273
:100E2000EF50E66E500EDBCFE9FF510EDBCFEAFF4D
:100E3000530EE926010EEA22E552E750EF6E500EFE
:100E4000DB2A510ED5E3DB2AD3D7520EE66E00EC37
:100E50000EF0E552450EE66E00EC0EF0E552500E37
:100E6000E66E00EC0EF0E552450EE66E00EC0EF07C
:100E7000E552540EE66E00EC0EF0E552450EE66EBD
:100E800000EC0EF0E5523A0EE66E00EC0EF0E55284
:100E90000101E56BE66BD7D0FE0EDBCFE6FF2AEC57
:100EA00003F0E5522A0EE66E00EC0EF0E552F3EC8C
:100EB0000DF00009FCE1140EE66EB2EC00F0E55214
:100EC0000101060EDD1901E0BED0DE5101E0BBD00C
:100ED000010EF36E520EF3CFDBFF530EDB6A540E9E
:100EE000DB6A550EDB6ADD6BDE6BD56BD66BD76BC1
:100EF000D86BE16BE26B010EE56FE66BE36FE46BC1
:100F0000D36FD46B540EDB6A550EDB6A540EDBCF05
:100F100000F0550EDBCF01F0D890015004E6060E2C
:100F2000005C000E015831E2D950520FE96EDACF61
:100F3000EAFFEE50ED1029E0540EDBCFE9FF550E2D
:100F4000DBCFEAFF530EE926010EEA22EFCF00F0D5
:100F5000540EDBCFE9FF550EDBCFEAFF4D0EE9263D
:100F6000010EEA22EF50005C06E1010EF36E520E14
:100F7000F3CFDBFF02D0520EDB6A530EDB6A540E56
:100F8000DB2A550EC3E3DB2AC1D7D950520FE96ED5
:100F9000DACFEAFFEE50ED1012E04D0EE66E010ED4
:100FA000E66E110EE66E010EE66E6EEC0AF0E5528C
:100FB000E552E552E5526D0EE66E010E03D0C20E0B
:100FC000E66E010EE66E14EC02F0E552E552000EFC
:100FD000E66E010EE66E57EC02F0E552E552EDECDE
:100FE00001F0250EE66E010EE66E14EC02F0E552FD
:100FF000E55220EC03F027D0D351D41104E0FE0ECB
:10100000DBCFE6FF02D02A0EE66E00EC0EF0E552D2
:10101000F3EC0DF00009FCE1140EE66EB2EC00F00A
:10102000E5520101030ED71908E1D85106E1FE0E81
:10103000DBCFE6FFBDEC02F005D0FE0EDBCFE6FF16
:1010400092EC02F0E552560EE15C02E2E16AE552F2
:10105000E16EE552E7CFD9FF12000101D351D4115F
:1010600007E0D751D8113BE0D707000ED85B17D067
:10107000DF51E01104E0DD51DE1131E006D0E15135
:10108000E21107E0DD51DE112AE0DD07000EDE5B34
:1010900006D0D551D61123E0D507000ED65B100E31
:1010A000E66E12EC0EF0E552F3EC0DF00009FCE1F7
:1010B000200EE66E00EC0EF0E552F3EC0DF00009A8
:1010C000FCE1100EE66E12EC0EF0E552F3EC0DF0C2
:1010D0000009FCE1140EE66EB2EC00F0E5521200DD
:1010E000DACFE4FFE2CFDAFFE9CFE4FFEACFE4FFB3
:1010F000F6CFE4FFF7CFE4FFF5CFE4FFF3CFE4FF53
:10110000F4CFE4FFFACFE4FF00EE08F0020EE804AB
:1011100003E3EECFE4FFFBD700EE00F0080EE80497
:1011200003E3EECFE4FFFBD7E652F2A475D0F294CE
:10113000320ED66E8350010B1DE00101E9051AE164
:1011400083A802D0310E0BD083AA02D0360E07D06E
:1011500083AC02D0370E03D083AE05D02A0EE66EE4
:101160003FEC03F0E55283908382839483960101E0
:10117000020E51D08350020B1EE0020E0101E95D08
:101180001AE183A802D0320E0BD083AA02D0350E0A
:1011900007D083AC02D0380E03D083AE05D0300E1A
:1011A000E66E3FEC03F0E55283908392838483964E
:1011B0000101030E30D08350040B1EE0030E010129
:1011C000E95D1AE183A802D0330E0BD083AA02D0C6
:1011D000340E07D083AC02D0390E03D083AE05D0D5
:1011E000230EE66E3FEC03F0E552839083928394E6
:1011F00083860101040E0FD08350080B0DE0040E0E
:101200000101E95D09E183BE28DF83808392839435
:1012100083960101010EE96FE55200EE07F0080E1A
:10122000E80403E3E5CFEDFFFBD700EE09F0020E83
:10123000E80403E3E5CFEDFFFBD7E5CFFAFFE5CF09
:10124000F4FFE5CFF3FFE5CFF5FFE5CFF7FFE5CFFF
:10125000F6FFE5CFEAFFE5CFE9FFE5CFDAFF1100C2
:10126000D9CFE6FFE1CFD9FFFE0EDB50D56EE552B8
:10127000E7CFD9FF1200D9CFE6FFE1CFD9FFFE0EAD
:10128000DB5003E0F28AF28E02D0F29AF29EE5522F
:10129000E7CFD9FF1200D9CFE6FFE1CFD9FFFE0E8D
:0C12A000DB50D66EE552E7CFD9FF1200FC
:0412AC00D9CFE6FFB1
:1012B000E1CFD9FFE652DF6AFC0EDBCFE9FFFD0E7E
:1012C000DBCFEAFFEF50E66EFE0EDB50DF24E66E6A
:1012D000E66A5DEC00F0E552E552E552010EE66E7D
:1012E000F5EC00F0E552FC0EDBCFE9FFFD0EDBCFA5
:1012F000EAFFEF50230807E0FC0EDB2AFD0E01E3B6
:10130000DB2ADF2AD9D7E552E552E7CFD9FF120011
:10131000D9CFE6FFE1CFD9FFE652DF6AFE0EDB5000
:10132000DF24E66EE66A90EC00F0E552E552E66EE8
:10133000DF50E76EFC0EDBCFE9FFFD0EDBCFEAFFEF
:10134000E750E926000EEA22E552E750EF6E010E63
:10135000E66EF5EC00F0E552DF50E76EFC0EDBCFF9
:10136000E9FFFD0EDBCFEAFFE750E926000EEA2297
:10137000EF50230811E0DF50E76EFC0EDBCFE9FFF2
:10138000FD0EDBCFEAFFE750E926000EEA22EF5020
:10139000FF0802E0DF2AC2D7DF50E552E552E7CF6F
:1013A000D9FF1200D9CFE6FFE1CFD9FFE652DF6ABD
:1013B000DF6ADF50006E016AD890015004E6000E2B
:1013C000005C010E015812E2DFCFE6FFE66A90EC06
:1013D00000F0E552E552FF0802E1DF5007D0010EB0
:1013E000E66EF5EC00F0E552DF2AE3D7E552E55270
:1013F000E7CFD9FF1200D9CFE6FFE1CFD9FF020E28
:10140000E126DE6ADD6AFD0EDBCF01F0FE0EDBCFEA
:1014100002F0DE500124E96EDD500220EA6EEFCFCB
:1014200000F0FB0EDBCF03F0FC0EDBCF04F0DE5050
:101430000324E96EDD500420EA6EEF50005C02E008
:10144000F36A41D0FD0EDBCF00F0FE0EDBCF01F0E2
:10145000DE500024E96EDD500120EA6EEF502308D3
:1014600030E0FD0EDBCF02F0FE0EDBCF03F0DE50EE
:101470000224E96EDD500320EA6EEF5022E0FB0EFD
:10148000DBCF04F0FC0EDBCF05F0DE500424E96E68
:10149000DD500520EA6EEF5014E0FB0EDBCF06F0C6
:1014A000FC0EDBCF07F0DE500624E96EDD5007208E
:1014B000EA6EEF50230805E0DF2A010EA4E3DB2AE1
:1014C000A2D7010EF36EF46A020EE15C02E2E16A59
:1014D000E552E16EE552E7CFD9FF1200D9CFE6FF22
:1014E000E1CFD9FF660EE126010EF36E640EF3CF55
:1014F000DBFF58DFE76E650EE7CFDBFF550EDF6ED3
:10150000500EF36E320EF3CFDBFFFD0EDBCFE9FFA3
:10151000FE0EDBCFEAFFEF5004E0640EDB50030861
:101520000FE2D9CF00F0DACF01F0640EDB500F01EB
:10153000D924E96E000EDA20EA6E230EEF6E1FD07A
:10154000FD0EDBCFE9FFFE0EDBCFEAFFEF50E66ECC
:10155000D9CF00F0DACF01F0640EDB500F01D924AF
:10156000E96E000EDA20EA6EE552E750EF6EFD0EEE
:10157000DB2AFE0E01E3DB2A640EDB2AC6D7D9CFB5
:10158000E6FFDACFE6FF650EDBCFE6FF8FDEE55242
:10159000E552E552650EDBCFE6FF640EDB28E5522F
:1015A000E724E76E650EE7CFDBFF010EF36E640EF6
:1015B000F3CFDBFFFB0EDBCFE9FFFC0EDBCFEAFF57
:1015C000EF5004E0640EDB50060810E2D950320FF1
:1015D000006EDACF01F0640EDB500F010024E96EDB
:1015E000000EDA20EA6E230EEF6E20D0FB0EDBCF6A
:1015F000E9FFFC0EDBCFEAFFEF50E66ED950320F69
:10160000006EDACF01F0640EDB500F010024E96EAA
:10161000000EDA20EA6EE552E750EF6EFB0EDB2A91
:10162000FC0E01E3DB2A640EDB2AC4D7D950320F4B
:10163000E66E000EDA20E66E650EDBCFE6FF36DEE4
:10164000E552E552E552660EE15C02E2E16AE552DE
:10165000E16EE552E7CFD9FF1200D9CFE6FFE1CF27
:10166000D9FF700EE1266E0EDB6A010EF36E6F0E6F
:10167000F3CFDBFF550EDF6E500EF36E190EF3CF76
:10168000DBFFFD0EDBCFE9FFFE0EDBCFEAFFEF5005
:1016900004E06F0EDB5003080BE26F0EDB500F010E
:1016A000D924E96E000EDA20EA6E230EEF6E1AD00E
:1016B000FD0EDBCFE9FFFE0EDBCFEAFFEF50E66E5B
:1016C0006F0EDB50D924E96E000EDA20EA6EE55287
:1016D000E750EF6EFD0EDB2AFE0E01E3DB2A6F0EF4
:1016E000DB2ACFD7010EF36E6F0EF3CFDBFFFB0EBD
:1016F000DBCFE9FFFC0EDBCFEAFFEF5004E06F0E1B
:10170000DB5006080FE2D950190F006EDACF01F056
:101710006F0EDB500024E96E000EDA20EA6E230E15
:10172000EF6E1DD0FB0EDBCFE9FFFC0EDBCFEAFF37
:10173000EF50E66ED950190F006E6F0EDB5000248B
:10174000E96E000EDA20EA6EE552E750EF6EFB0E0E
:10175000DB2AFC0E01E3DB2A6F0EDB2AC8D7D95047
:101760003C0FE66E000EDA20E66E6E0EDBCFE6FF73
:10177000CFDDE552E552E552010F006E6E0EDBCF74
:10178000E7FF0050E7266E0EE7CFDBFFDB0402E148
:101790006E0EDB06D9CFE6FFDACFE6FFD9503C0F5D
:1017A000E66E000EDA20E66E26DEE552E552E552E0
:1017B000E552F3CF00F0F4CF01F0F350F41030E035
:1017C000D9503C0FE66E000EDA20E66E6E0EDBCFCF
:1017D000E6FF9EDDE552E552E552010F006E6E0E0A
:1017E000DBCFE7FF0050E7266E0EE7CFDBFFD950D7
:1017F000190FE66E000EDA20E66ED9503C0FE66E49
:10180000000EDA20E66EF7DDE552E552E552E552CC
:10181000F350F41003E0010EF36E09D0F36A07D021
:10182000C1DDF36E6E0EDB50F35C99E1F36AF46A8E
:10183000700EE15C02E2E16AE552E16EE552E7CF4B
:10184000D9FF1200D9CFE6FFE1CFD9FF400EE12644
:10185000D950320FE96EDACFEAFF550EEE6E390E2F
:10186000EE6EEE6EEE6E230EEE6ED950370FE96E11
:10187000DACFEAFF500EEE6E310EEE6E320EEE6EE5
:10188000330EEE6E340EEE6E350EEE6E360EEE6EDE
:10189000230EEE6E3F0EDB6AD9CFE6FFDACFE6FF0E
:1018A0003F0EDBCFE6FF34DDE552E552E552010F96
:1018B000006E3F0EDBCFE7FF0050E7263F0EE7CF7D
:1018C000DBFFDB0402E13F0EDB06D950320FE66E90
:1018D000000EDA20E66ED9CFE6FFDACFE6FF8BDD29
:1018E000E552E552E552E552F3CF00F0F4CF01F0B6
:1018F000F350F4101EE156DDF36E3F0EDB50F35C47
:10190000CBE1D950320FE66E000EDA20E66E4ADDEA
:10191000E66ECCDCE552E552E552D950370FE66E63
:10192000000EDA20E66E3EDDE66EC0DCE552E552E2
:10193000E552400EE15C02E2E16AE552E16EE552F9
:10194000E7CFD9FF1200D9CFE6FFE1CFD9FF6B0E69
:10195000E126D950320FE96EDACFEAFF550EEE6E6E
:10196000390EEE6EEE6EEE6E230EEE6E690EDB6AD3
:10197000010EF36E6A0EF3CFDBFF500EF36E370EDF
:10198000F3CFDBFFFD0EDBCFE9FFFE0EDBCFEAFF7F
:10199000EF5004E06A0EDB50060810E2D950370F12
:1019A000006EDACF01F06A0EDB500F010024E96E01
:1019B000000EDA20EA6E230EEF6E1DD0FD0EDBCF97
:1019C000E9FFFE0EDBCFEAFFEF50E66ED950370F8E
:1019D000006E6A0EDB500024E96E000EDA20EA6E1B
:1019E000E552E750EF6EFD0EDB2AFE0E01E3DB2A27
:1019F0006A0EDB2AC7D7D9CFE6FFDACFE6FF690E3A
:101A0000DBCFE6FF85DCE552E552E552010F006EC3
:101A1000690EDBCFE7FF0050E726690EE7CFDBFF5B
:101A2000DB0402E1690EDB06D950320FE66E000ED0
:101A3000DA20E66ED9CFE6FFDACFE6FFDCDCE5524E
:101A4000E552E552E552F3CF00F0F4CF01F0F35048
:101A5000F4102FE0D950370FE66E000EDA20E66E54
:101A6000690EDBCFE6FF22DCE552E552E552D9CF25
:101A7000E6FFDACFE6FF690EDBCFE6FF49DCE55291
:101A8000E552E552D950370FE66E000EDA20E66EC9
:101A9000D9CFE6FFDACFE6FFAEDCE552E552E552FC
:101AA000E552F350F41003E0010EF36E09D0F36A2F
:101AB00007D078DCF36E690EDB50F35C9CE1F36ACF
:101AC000F46A6B0EE15C02E2E16AE552E16EE55216
:061AD000E7CFD9FF120070
:0A1AD600D9CFE6FFE1CFD9FF050EDE
:101AE000E1260F0EDF6EDE52060EDD6E010EF36E86
:101AF000020EF3CFDBFF8492849084940F0EC16EAC
:101B0000966A936A030EDB6AF36EDBCFF4FFE8504C
:101B1000F45C07E2300E816E33D83DD8030EDB2A29
:101B2000F3D7FE0EDB0402E1300E01D0380E816ED9
:101B300027D831D8030EDB6AF36EDBCFF4FFE85011
:101B4000F45C13E2D9CF00F0DACF01F0030EDB50E2
:101B50000F01D924E96E000EDA20EA6EEF50816E93
:101B60000FD819D8030EDB2AE7D79368050EE15C7E
:101B700002E2E16AE552E16EE552E7CFD9FF1200D9
:101B800010D884820ED884921200020EE66EE7EC22
:101B900000F0E5521200010EE66EB2EC00F0E552E4
:101BA0001200000000000000000000000000000023
:101BB0000000000000000000000000000000000025
:101BC0000000120000000000000000000000000003
:101BD0000000000000000000000000000000000005
:101BE00000000000120084848490DBDF8482D9DF4F
:101BF00081AE03D084928494010C84928494000C6E
:101C0000D9CFE6FFE1CFD9FF936AFE0EDB50816E9C
:101C100084808494B5DF8490C4DF9368E552E7CF75
:101C2000D9FF1200D9CFE6FFE1CFD9FF936AFE0EAC
:101C3000DB50816E84908494A3DF8490B2DF93683C
:101C4000E552E7CFD9FF1200D9CFE6FFE1CFD9FFA8
:101C5000FD0EDBCFF6FFFE0EDBCFF7FF0800F550E1
:101C600014E0C1DF0009FDE1FD0EDBCFF6FFFE0E43
:101C7000DBCFF7FF0800F550E66EC2DFE552FD0E40
:101C8000DB2AFE0EE5E3DB2AE3D7E552E7CFD9FFF7
:101C90001200D9CFE6FFE1CFD9FF210EE126800E59
:101CA000E66EC0DFE5529FDF0009FDE1200EDB6A32
:101CB000F36EDBCFF4FFE850F45C2AE2100EF36E13
:101CC000200EDBCFF4FFF350F45C07E2E66898DF08
:101CD000E55289DF000919E0FCD7200EDB5010081F
:101CE0000EE1C00EE66E9EDFE5527DDF0009FDE1EC
:101CF000E66886DFE55277DF000907E0FCD7E66893
:101D00007FDFE55270DF0009FDE1200EDB2AD0D72E
:101D1000210EE15C02E2E16AE552E16EE552E7CFB5
:041D2000D9FF1200D5
:0C1D240020000000000000000000000093
:101D3000000000000000010153454E48413A0000F8
:101D40000000000000000000005553554152494F6B
:101D50003A0000000000000000004E4F56412053A2
:101D6000454E48413A000000000000000101010119
:101D70000100010101010100010101010100010156
:101D8000524F4F543A0000000000000000000000D5
:101D90000053454E4841204F4B21200000000000D9
:101DA00000004D4F442E20414C5445524143414F79
:101DB0000000004445205553554152494F20524F91
:101DC0004F5400DC5245504554453A2020202020F5
:101DD000202020202053454A412042454D2056498D
:101DE0004E444F21200053454E484120494E564114
:101DF0004C49444120200001000000000000000088
:0E1E00000000000000000001000100010001D0
:020000040030CA
:0100000000FF
:010001000CF2
:0100020019E4
:010003001EDE
:010005008377
:010006008178
:010008000FE8
:01000900C036
:01000A000FE6
:01000B00E014
:01000C000FE4
:01000D0040B2
:00000001FF
