:020000040000FA
:06000000D9EF00F0120030
:020006001200E6
:06000800D3EF08F0120026
:02000E000100EF
:0C001000301E000000010000FF00000096
:04001C000E0EF66E60
:10002000000EF76E000EF86E00010900F550656FC6
:100030000900F550666F03E1656701D03DD0090006
:10004000F550606F0900F550616F0900F550626F5F
:1000500009000900F550E96E0900F550EA6E090043
:1000600009000900F550636F0900F550646F09003D
:100070000900F6CF67F0F7CF68F0F8CF69F060C0FD
:10008000F6FF61C0F7FF62C0F8FF0001635302E1B1
:10009000645307E00900F550EE6E6307F8E2640769
:1000A000F9D767C0F6FF68C0F7FF69C0F8FF000125
:0A00B0006507000E665BBFD7120063
:0600BA00D9CFE6FFDACF0A
:1000C000E6FFE1CFD9FFE2CFDAFFE652DF6AFF0EAB
:1000D000E76EFC0EDBCF00F0E75000160050A96E73
:1000E000FB0EDB50A86EA69EA69CA684F250800B49
:1000F00001E0010EDF6EF29E550EA76EAA0EA76EEE
:10010000A682A6B2FED7DF50E8B0F28EE8A0F29E3B
:10011000A694E552E552E5CFDAFFE7CFD9FF12000A
:10012000D9CFE6FFDACFE6FFE1CFD9FFE2CFDAFFA2
:10013000FF0EE76EFC0EDBCF00F0FD0EDBCF01F013
:10014000E7500016016A0050A96EA69CA69EA680E4
:1001500000000000A85000D0E552E5CFDAFFE7CF5D
:04016000D9FF1200B1
:0C016400FF0EE3500B6EEF0E01D0F30E07
:10017000E76EE72EB9EF00F00C0E0A6EE76AE72E85
:10018000BFEF00F00A2EBEEF00F00B2EB7EF00F02D
:0201900012005B
:0E019200000EF36E00EE00F0080E01D8120011
:1001A000EA6002D0EE6AFCD7F350E9601200EE6A12
:0201B000FCD77A
:0E01B20013EE00F023EE00F0F86A099C0EEC4C
:0E01C00000F003EC00F025EC01F0FBD712007C
:0201CE00FF0E22
:1001D000E3500B6E1B0E00D001D0200EE76EE72E11
:0A01E000FED70B2EFAD700D0120054
:0601EA00FF0EE350E84E99
:1001F0001200000000D000D000D0E82EFAD7120084
:10020000D9CFE6FFE1CFD9FFFD0EDBCFE9FFFE0E30
:10021000DBCFEAFFEF5015E079EC0EF00009FCE1CE
:10022000FD0EDBCFE9FFFE0EDBCFEAFFEF50E66EFF
:1002300086EC0EF0E552FD0EDB2AFE0EE5E3DB2A2E
:0A024000E3D7E552E7CFD9FF120023
:06024A00D9CFE6FFE1CF71
:10025000D9FF090EE126D9CFE9FFDACFEAFF300E48
:10026000EE6EEE6EEE6ED950030FE96EDACFEAFF56
:10027000310EEE6E320EEE6EEE6E340EEE6E330E0C
:10028000EE6E360EEE6E29D8C00EE66EA4EC09F0C6
:10029000E552320EE66EBFEC09F0E552010EE66E55
:1002A000AFEC09F0E552F28C020EE66EF1EC0DF0C7
:1002B000E55221D8A8EC0CF0D950030FE66E000EE1
:1002C000DA20E66ED9CFE6FFDACFE6FFF4EC0AF0EB
:1002D000E552E552E552E552FFD7926A936A946A75
:1002E000F00E956E966A0F0EC16E806A816A826A00
:1002F0008368846A1200010EE66E98EC0EF0E552F7
:1003000079EC0EF00009FCE1000EE66E010EE66EDF
:1003100051D8E552E552110EE66E010EE66E8DD80B
:10032000E552E5520101F26BF36B320EF3AF02D0EE
:10033000D89003D0F25D000EF35907E251EC0EF0B5
:100340000101F22B000EF323F0D7220EE66E010E10
:10035000E66E30D8E552E552330EE66E010EE66EDB
:100360006CD8E552E5520101F26BF36B320EF3AF3C
:1003700002D0D89003D0F25D000EF35907E251ECA1
:100380000EF00101F22B000EF323F0D7580EE66EAB
:10039000010EE66E0FD8E552E552C00EE66E98ECFF
:1003A0000EF0E55279EC0EF00009FCE10101FC6B66
:1003B000FD6B1200D9CFE6FFE1CFD9FF020EE12697
:1003C000DE6ADD6A800EE66E98EC0EF0E55279EC9E
:1003D0000EF00009FCE1DE6ADD6ADECF00F0DDCF61
:1003E00001F0D890015004E6110E005C000E015897
:1003F0001AE2FD0EDBCF00F0FE0EDBCF01F0DE5087
:100400000024E96EDD500120EA6EEF50E66E86ECC6
:100410000EF0E55279EC0EF00009FCE1DF2A010E46
:10042000DCE3DB2ADAD7020EE15C02E2E16AE552A4
:10043000E16EE552E7CFD9FF1200D9CFE6FFE1CF59
:10044000D9FF020EE126DE6ADD6AC00EE66E98EC88
:100450000EF0E55279EC0EF00009FCE1DE6ADD6A8F
:10046000DECF00F0DDCF01F0D890015004E6110E90
:10047000005C000E01581AE2FD0EDBCF00F0FE0E0C
:10048000DBCF01F0DE500024E96EDD500120EA6E82
:10049000EF50E66E86EC0EF0E55279EC0EF00009B6
:1004A000FCE1DF2A010EDCE3DB2ADAD7020EE15C95
:1004B00002E2E16AE552E16EE552E7CFD9FF1200B0
:1004C000D9CFE6FFE1CFD9FF440E0101EA25E96E5D
:1004D000010EEB21EA6EFE0EDBCFEFFFEA2B000EE2
:1004E000EB23030EEA191BE1EB5119E1E46BE56B19
:1004F000470EE66E010EE66E5DDFE552E552330E05
:10050000E66E010EE66E99DFE552E552C00EE66E2C
:1005100098EC0EF0E55279EC0EF00009FCE1E552A2
:10052000E7CFD9FF1200D9CFE6FFE1CFD9FF7A0E8E
:100530000101E825E96E010EE921EA6EFE0EDBCF2E
:10054000EFFFE82B000EE923060EE81901E09CD02E
:10055000E95101E099D0E86BE96BEA6BEB6B7A0E3D
:10056000E66E010EE66E440EE66E010EE66EB3EC2C
:100570000BF0E552E552E552E552F3CF00F0F4CF2F
:1005800001F0F350F4101DE08280C20EE66E010E01
:10059000E66E10DFE552E5520101F26BF36B320EAD
:1005A000F3AF02D0D89003D0F25D000EF35907E20A
:1005B00051EC0EF00101F22B000EF323F0D78290E4
:1005C0001CD08282D30EE66E010EE66EF3DEE5529B
:1005D000E5520101F26BF36B320EF3AF02D0D8900B
:1005E00003D0F25D000EF35907E251EC0EF0010169
:1005F000F22B000EF323F0D78292330EE66E010E3B
:10060000E66E1BDFE552E5520101F26BF36B320E31
:10061000F3AF02D0D89003D0F25D000EF35907E299
:1006200051EC0EF00101F22B000EF323F0D7010E76
:10063000E46FE56B580EE66E010EE66EBBDEE5522A
:10064000E552330EE66E010EE66EF7DEE552E55238
:10065000C00EE66E98EC0EF0E55279EC0EF0000953
:10066000FCE10101F26BF36B320EF3AF02D0D890D4
:1006700003D0F25D000EF35907E251EC0EF00101D8
:10068000F22B000EF323F0D7E552E7CFD9FF12008B
:10069000D9CFE6FFE1CFD9FF800E0101F025E96E49
:1006A000010EF121EA6EFE0EDBCFEFFFF02B000E04
:1006B000F123E552E7CFD9FF1200D9CFE6FFE1CF12
:1006C000D9FF560EE1260101FC51FD1102E0C9EFF0
:1006D00008F0F451F51101E178D1FE0EDBCFE6FF11
:1006E000D7DFE5522A0EE66E86EC0EF0E55279EC85
:1006F0000EF00009FCE1140EE66EB2EC00F0E552DB
:100700000101060EF01902E0C9EF08F0F15102E014
:10071000C9EF08F0F06BF16BEA6BEB6BF851F91174
:1007200052E0DE6ADD6ADE6ADD6ADECF00F0DDCF30
:1007300001F0D890015004E6030E005C000E015851
:100740000FE2DECFE9FFDDCFEAFF440EE926010E1E
:10075000EA22390EEF6EDF2A010EE7E3DB2AE5D746
:10076000800EE66E010EE66E440EE66E010EE66E3B
:10077000B3EC0BF0E552E552E552E552F3CF00F051
:10078000F4CF01F0F350F41013E00101F86BF96BB2
:10079000010EFA6FFB6B690EE66E010EE66E0ADE65
:1007A000E552E552330EE66E010EE66E46DEFBD0F4
:1007B0000101F46BF56B010EFA6FFB6BF86FF96BCF
:1007C000E46FE56BD8D0FA51FB1164E0020EDB6AEE
:1007D000030EDB6AD950040FE96EDACFEAFF520E3E
:1007E000EE6E4F0EEE6EEE6E540EEE6E3A0EEE6E36
:1007F000200EEE6E390EEE6EEE6EEE6EEE6AEE6A64
:10080000EE6AEE6AEE6AEE6AEE6AEE6A020EDB6A83
:10081000030EDB6A020EDBCF00F0030EDBCF01F02C
:10082000D890015004E6060E005C000E01581FE24D
:10083000020EDBCFE9FF030EDBCFEAFF800EE926D5
:10084000010EEA22EF50E66E020EDBCFE9FF030E47
:10085000DBCFEAFF860EE926010EEA22E552E750D9
:10086000EF6E020EDB2A030ED5E3DB2AD3D7D95075
:10087000040FE66E000EDA20E66E9CDDE552E552CE
:10088000C00EE66E98EC0EF0E55279EC0EF0000921
:10089000FCE1A8D2010EF36E150EF3CFDBFF160EAE
:1008A000DB6A170EDB6A180EDB6AF06BF16BE86B24
:1008B000E96BEA6BEB6BF46BF56B010EFA6FFB6B9C
:1008C000F86FF96BE46FE56B170EDB6A180EDB6AE5
:1008D000170EDBCF00F0180EDBCF01F0D8900150DF
:1008E00004E6060E005C000E015831E2D950150FE7
:1008F000E96EDACFEAFFEE50ED1029E0170EDBCFFC
:10090000E9FF180EDBCFEAFF860EE926010EEA2288
:10091000EFCF00F0170EDBCFE9FF180EDBCFEAFFB9
:10092000800EE926010EEA22EF50005C06E1010E7E
:10093000F36E150EF3CFDBFF02D0150EDB6A160E39
:10094000DB6A170EDB2A180EC3E3DB2AC1D7D950A6
:10095000150FE96EDACFEAFFEE50ED100CE0800ED5
:10096000E66E010EE66E29EC0DF0E552E552A00EA2
:10097000E66E010E03D0D30EE66E010EE66E1ADDB2
:10098000E552E552330EE66E010EE66E56DDE55297
:10099000E552140EE66EB2EC00F0E552580EE66E2B
:1009A000010EE66E07DDE552E552140EE66EB2EC7E
:1009B00000F0E552C00EE66E98EC0EF0E55279ECD0
:1009C0000EF0000901E1E5D3FAD7F651F71101E184
:1009D000EAD2F851F91101E1D6D0FE0EDBCFE6FFE5
:1009E00057DEE5522A0EE66E86EC0EF0E55279EC03
:1009F0000EF00009FCE1140EE66EB2EC00F0E552D8
:100A00000101060EF01901E0C4D3F15101E0C1D398
:100A1000190EDB6A1A0EDB6AF06BF16BEA6BEB6B9B
:100A2000190EDB6A1A0EDB6A190EDBCF00F01A0E04
:100A3000DBCF01F0D890015004E6030E005C000EFD
:100A4000015812E2190EDBCFE9FF1A0EDBCFEAFFE5
:100A5000440EE926010EEA22390EEF6E190EDB2A4A
:100A60001A0EE2E3DB2AE0D7800EE66E010EE66E98
:100A7000440EE66E010EE66EB3EC0BF0E552E55265
:100A8000E552E552F3CF00F0F4CF01F0F350F4104B
:100A90004BE0D9501B0FE96EDACFEAFF4E0EEE6E37
:100AA0004F0EEE6E560EEE6E4F0EEE6E200EEE6E8A
:100AB000550EEE6E530EEE6E550EEE6E410EEE6E50
:100AC000520EEE6E490EEE6E4F0EEE6E3A0EEE6E5A
:100AD000EE6AEE6AEE6AEE6A0101F86BF96B010EDE
:100AE000FA6FFB6BE46FE56BD9501B0FE66E000EDF
:100AF000DA20E66E5FDCE552E552330EE66E010E5B
:100B0000E66E9BDCE552E552140EE66EB2EC00F0A8
:100B1000E552C00EE66E98EC0EF0E55279EC0EF060
:100B2000000901E136D3FAD70101F66BF76B010E2C
:100B3000FA6FFB6BF86FF96BE46FE56BD30EE66E43
:100B4000010EE66E37DCE552E552330EE66E010E1D
:100B5000E66E73DCE552E552140EE66EB2EC00F080
:100B6000E552580EE66E010EE66E24DCE552E552C3
:100B7000C00EE66E98EC0EF0E55279EC0EF000092E
:100B800001E107D3FAD7E451E51101E17AD0FE0E75
:100B9000DBCFE6FF7DDDE552FE0EDBCFE6FF86EC28
:100BA0000EF0E55279EC0EF00009FCE1140EE66E51
:100BB000B2EC00F0E5520101030EF01901E0E9D2B8
:100BC000F15101E0E6D22C0EDB6A2D0EDB6AF06BF0
:100BD000F16BEA6BEB6B010EFA6FFB6BE46BE56B91
:100BE0002C0EDB6A2D0EDB6A2C0EDBCF00F02D0EF7
:100BF000DBCF01F0D890015004E6030E005C000E3C
:100C000001581FE22C0EDBCFE9FF2D0EDBCFEAFFF0
:100C1000800EE926010EEA22EF50E66E2C0EDBCFA5
:100C2000E9FF2D0EDBCFEAFF440EE926010EEA2292
:100C3000E552E750EF6E2C0EDB2A2D0ED5E3DB2AB2
:100C4000D3D7470EE66E010EE66EDAEC01F0E55200
:100C5000E552330EE66E010EE66E1DEC02F0E55233
:100C6000E552140EE66EB2EC00F0E552C00EE66EF0
:100C700098EC0EF0E55279EC0EF0000901E189D212
:100C8000FAD7FA51FB1101E1D4D0FE0EDBCFE6FF1B
:100C9000FFDCE5522A0EE66E86EC0EF0E55279ECAA
:100CA0000EF00009FCE1140EE66EB2EC00F0E55225
:100CB0000101060EF01901E06CD2F15101E069D298
:100CC0002E0EDB6A2F0EDB6AF06BF16B800EE66E88
:100CD00098EC0EF0E55279EC0EF00009FCE1520EB2
:100CE000E66E86EC0EF0E5524F0EE66E86EC0EF0E8
:100CF000E5524F0EE66E86EC0EF0E552540EE66EAF
:100D000086EC0EF0E5523A0EE66E86EC0EF0E552F9
:100D1000200EE66E86EC0EF0E55279EC0EF000093E
:100D2000FCE12E0EDB6A2F0EDB6A2E0EDBCF00F00D
:100D30002F0EDBCF01F0D890015004E6030E005CCB
:100D4000000E015815E22E0EDBCFE9FF2F0EDBCF90
:100D5000EAFF440EE926010EEA22EF50E66E86EC29
:100D60000EF0E5522E0EDB2A2F0EDFE3DB2ADDD755
:100D7000C00EE66E98EC0EF0E55279EC0EF000092C
:100D8000FCE12E0EDB6A2F0EDB6A2E0EDBCF00F0AD
:100D90002F0EDBCF01F0D890015004E6060E005C68
:100DA000000E01581FE22E0EDBCFE9FF2F0EDBCF26
:100DB000EAFF800EE926010EEA22EF50E66E2E0EC3
:100DC000DBCFE9FF2F0EDBCFEAFF860EE926010E0F
:100DD000EA22E552E750EF6E2E0EDB2A2F0ED5E306
:100DE000DB2AD3D7520EE66E86EC0EF0E552450EA6
:100DF000E66E86EC0EF0E552500EE66E86EC0EF0D6
:100E0000E552450EE66E86EC0EF0E552540EE66EA7
:100E100086EC0EF0E552450EE66E86EC0EF0E552DD
:100E20003A0EE66E86EC0EF0E5520101FA6BFB6BB2
:100E3000B0D1FE0EDBCFE6FF2BDCE5526B0EE66E8B
:100E400086EC0EF0E55279EC0EF00009FCE1140E90
:100E5000E66EB2EC00F0E5520101060EF01901E079
:100E600098D1F15101E095D1010EF36E300EF3CF20
:100E7000DBFF310EDB6A320EDB6A330EDB6AF06BAE
:100E8000F16BE86BE96BEA6BEB6BF66BF76B010EE2
:100E9000FA6FFB6BF86FF96BE46FE56B320EDB6A90
:100EA000330EDB6A320EDBCF00F0330EDBCF01F006
:100EB000D890015004E6060E005C000E015831E2A5
:100EC000D950300FE96EDACFEAFFEE50ED1029E08D
:100ED000320EDBCFE9FF330EDBCFEAFF860EE926C9
:100EE000010EEA22EFCF00F0320EDBCFE9FF330E26
:100EF000DBCFEAFF800EE926010EEA22EF50005C0C
:100F000006E1010EF36E300EF3CFDBFF02D0300EA0
:100F1000DB6A310EDB6A320EDB2A330EC3E3DB2AD7
:100F2000C1D7D950300FE96EDACFEAFFEE50ED109D
:100F300012E0800EE66E010EE66E440EE66E010EC5
:100F4000E66EF4EC0AF0E552E552E552E552A00EE9
:100F5000E66E010E03D0D30EE66E010EE66EDAECFD
:100F600001F0E552E552330EE66E010EE66E1DEC21
:100F700002F0E552E552140EE66EB2EC00F0E552D6
:100F8000580EE66E010EE66EDAEC01F0E552E5521F
:100F9000C00EE66E98EC0EF0E55279EC0EF000090A
:100FA00001E1F7D0FAD7E451E51104E0FE0EDBCF02
:100FB000E6FF02D02A0EE66E86EC0EF0E55279ECE2
:100FC0000EF00009FCE1140EE66EB2EC00F0E55202
:100FD0000101030EEA1908E1EB5106E1FE0EDBCF39
:100FE000E6FF93EC02F005D0FE0EDBCFE6FF60ECEF
:100FF00002F0E5522A0E006EFE0EDB50005C2AE184
:101000000101EE2B000EEF23030EEE1926E1EF5146
:1010100024E1010EF46FF56B8F0EE66E010EE66EA5
:10102000DAEC01F0E552E552330EE66E010EE66EA3
:101030001DEC02F0E552E552140EE66EB2EC00F043
:10104000E552C00EE66E98EC0EF0E55279EC0EF02B
:101050000009FCE10101EE6BEF6B230E006EFE0E4A
:10106000DB50005C01E093D0EC2B000EED23040E6E
:10107000EC1901E08ED0ED5101E08BD0D950340F46
:10108000E96EDACFEAFF4D0EEE6E4F0EEE6E440EB5
:10109000EE6E4F0EEE6E200EEE6E440EEE6E450EB0
:1010A000EE6E200EEE6E430EEE6E410EEE6E440EB0
:1010B000EE6E410EEE6E530EEE6E540EEE6E520E4E
:1010C000EE6E4F0EEE6EEE6AD950450FE96EDACF36
:1010D000EAFF200EEE6EEE6E440EEE6E450EEE6EE4
:1010E000200EEE6E550EEE6E530EEE6E550EEE6E3B
:1010F000410EEE6E520EEE6E490EEE6E4F0EEE6E1D
:10110000530EEE6E200EEE6EEE6EEE6EEE6AD9505F
:10111000340FE66E000EDA20E66EDAEC01F0E552EE
:10112000E552D950450FE66E000EDA20E66E1DEC52
:1011300002F0E552E552320EE66EB2EC00F0E552F6
:101140008F0EE66E010EE66EDAEC01F0E552E55226
:10115000330EE66E010EE66E1DEC02F0E552E5522E
:10116000140EE66EB2EC00F0E552C00EE66E98EC9E
:101170000EF0E55279EC0EF00009FCE10101EC6B98
:10118000ED6B010EF66FF76BF86FF96B02D0EC6B3D
:10119000ED6B560EE15C02E2E16AE552E16EE5526A
:1011A000E7CFD9FF1200DACFE4FFE2CFDAFFE9CFD1
:1011B000E4FFEACFE4FFF6CFE4FFF7CFE4FFF5CF9B
:1011C000E4FFF3CFE4FFF4CFE4FFFACFE4FF00EE57
:1011D00008F0020EE80403E3EECFE4FFFBD700EED5
:1011E00000F0080EE80403E3EECFE4FFFBD7E6527D
:1011F000F2A486D0F294320ED66E8350010B1DE01D
:101200000101FE051AE183A802D0310E0BD083AA9A
:1012100002D0360E07D083AC02D0370E03D083AE97
:1012200005D02A0EE66E5DEC03F0E55283908382D2
:10123000839483960101020E62D08350020B1EE05C
:10124000020E0101FE5D1AE183A802D0320E0BD01E
:1012500083AA02D0350E07D083AC02D0380E03D05B
:1012600083AE05D0300EE66E5DEC03F0E552839060
:101270008392838483960101030E41D08350040B33
:101280001EE0030E0101FE5D1AE183A802D0330EB9
:101290000BD083AA02D0340E07D083AC02D0390E13
:1012A00003D083AE05D0230EE66E5DEC03F0E5526D
:1012B00083908392839483860101040E20D083500F
:1012C000080B1EE0040E0101FE5D1AE183A802D0A6
:1012D000410E0BD083AA02D0420E07D083AC02D0BD
:1012E000430E03D083AE05D0440EE66E5DEC03F0F2
:1012F000E55283808392839483960101010EFE6FF1
:10130000E55200EE07F0080EE80403E3E5CFEDFF39
:10131000FBD700EE09F0020EE80403E3E5CFEDFF92
:10132000FBD7E5CFFAFFE5CFF4FFE5CFF3FFE5CF3D
:10133000F5FFE5CFF7FFE5CFF6FFE5CFEAFFE5CF15
:10134000E9FFE5CFDAFF1100D9CFE6FFE1CFD9FF02
:10135000FE0EDB50D56EE552E7CFD9FF1200D9CF94
:10136000E6FFE1CFD9FFFE0EDB5003E0F28AF28EFA
:1013700002D0F29AF29EE552E7CFD9FF1200D9CF00
:10138000E6FFE1CFD9FFFE0EDB50D66EE552E7CF88
:10139000D9FF1200D9CFE6FFE1CFD9FFFE0EDBCF98
:1013A00001F001C000F00150D76EFD0EDB50D66E8B
:0813B000E552E7CFD9FF12005E
:0813B800D9CFE6FFE1CFD9FF18
:1013C000E652DF6AFC0EDBCFE9FFFD0EDBCFEAFF62
:1013D000EF50E66EFE0EDB50DF24E66EE66A5DEC53
:1013E00000F0E552E552E552010EE66EF5EC00F034
:1013F000E552FC0EDBCFE9FFFD0EDBCFEAFFEF503D
:10140000230807E0FC0EDB2AFD0E01E3DB2ADF2ABE
:10141000D9D7E552E552E7CFD9FF1200D9CFE6FF81
:10142000E1CFD9FFE652DF6AFE0EDB50DF24E66E25
:10143000E66A90EC00F0E552E552E66EDF50E76EAA
:10144000FC0EDBCFE9FFFD0EDBCFEAFFE750E9261C
:10145000000EEA22E552E750EF6E010EE66EF5EC63
:1014600000F0E552DF50E76EFC0EDBCFE9FFFD0E2A
:10147000DBCFEAFFE750E926000EEA22EF5023080F
:1014800011E0DF50E76EFC0EDBCFE9FFFD0EDBCF96
:10149000EAFFE750E926000EEA22EF50FF0802E0DB
:1014A000DF2AC2D7DF50E552E552E7CFD9FF12005D
:1014B000D9CFE6FFE1CFD9FFE652DF6ADF6ADF501E
:1014C000006E016AD890015004E6000E005C010E27
:1014D000015812E2DFCFE6FFE66A90EC00F0E55239
:1014E000E552FF0802E1DF5007D0010EE66EF5EC91
:1014F00000F0E552DF2AE3D7E552E552E7CFD9FF06
:101500001200D9CFE6FFE1CFD9FF020EE126DE6A55
:10151000DD6AFD0EDBCF01F0FE0EDBCF02F0DE5008
:101520000124E96EDD500220EA6EEFCF00F0FB0EE1
:10153000DBCF03F0FC0EDBCF04F0DE500324E96EBA
:10154000DD500420EA6EEF50005C02E0F36A41D007
:10155000FD0EDBCF00F0FE0EDBCF01F0DE500024ED
:10156000E96EDD500120EA6EEF50230830E0FD0EF9
:10157000DBCF02F0FE0EDBCF03F0DE500224E96E7B
:10158000DD500320EA6EEF5022E0FB0EDBCF04F0CB
:10159000FC0EDBCF05F0DE500424E96EDD500520A3
:1015A000EA6EEF5014E0FB0EDBCF06F0FC0EDBCF53
:1015B00007F0DE500624E96EDD500720EA6EEF509A
:1015C000230805E0DF2A010EA4E3DB2AA2D7010EDF
:1015D000F36EF46A020EE15C02E2E16AE552E16E4A
:1015E000E552E7CFD9FF1200D9CFE6FFE1CFD9FF0F
:1015F000660EE126010EF36E640EF3CFDBFF58DFBB
:10160000E76E650EE7CFDBFF550EDF6E500EF36E13
:10161000320EF3CFDBFFFD0EDBCFE9FFFE0EDBCF9B
:10162000EAFFEF5004E0640EDB5003080FE2D9CF6D
:1016300000F0DACF01F0640EDB500F01D924E96E1F
:10164000000EDA20EA6E230EEF6E1FD0FD0EDBCF08
:10165000E9FFFE0EDBCFEAFFEF50E66ED9CF00F0D8
:10166000DACF01F0640EDB500F01D924E96E000ED1
:10167000DA20EA6EE552E750EF6EFD0EDB2AFE0E31
:1016800001E3DB2A640EDB2AC6D7D9CFE6FFDACF27
:10169000E6FF650EDBCFE6FF8FDEE552E552E55251
:1016A000650EDBCFE6FF640EDB28E552E724E76E2C
:1016B000650EE7CFDBFF010EF36E640EF3CFDBFFA9
:1016C000FB0EDBCFE9FFFC0EDBCFEAFFEF5004E0BF
:1016D000640EDB50060810E2D950320F006EDACFEC
:1016E00001F0640EDB500F010024E96E000EDA20D9
:1016F000EA6E230EEF6E20D0FB0EDBCFE9FFFC0E6F
:10170000DBCFEAFFEF50E66ED950320F006EDACF32
:1017100001F0640EDB500F010024E96E000EDA20A8
:10172000EA6EE552E750EF6EFB0EDB2AFC0E01E39A
:10173000DB2A640EDB2AC4D7D950320FE66E000EC6
:10174000DA20E66E650EDBCFE6FF36DEE552E552C7
:10175000E552660EE15C02E2E16AE552E16EE552B5
:10176000E7CFD9FF1200D9CFE6FFE1CFD9FF700E46
:10177000E1266E0EDB6A010EF36E6F0EF3CFDBFF18
:10178000550EDF6E500EF36E190EF3CFDBFFFD0E1C
:10179000DBCFE9FFFE0EDBCFEAFFEF5004E06F0E78
:1017A000DB5003080BE26F0EDB500F01D924E96E0A
:1017B000000EDA20EA6E230EEF6E1AD0FD0EDBCF9C
:1017C000E9FFFE0EDBCFEAFFEF50E66E6F0EDB5057
:1017D000D924E96E000EDA20EA6EE552E750EF6E8A
:1017E000FD0EDB2AFE0E01E3DB2A6F0EDB2ACFD7CC
:1017F000010EF36E6F0EF3CFDBFFFB0EDBCFE9FFC5
:10180000FC0EDBCFEAFFEF5004E06F0EDB50060862
:101810000FE2D950190F006EDACF01F06F0EDB50D6
:101820000024E96E000EDA20EA6E230EEF6E1DD062
:10183000FB0EDBCFE9FFFC0EDBCFEAFFEF50E66EDD
:10184000D950190F006E6F0EDB500024E96E000EA8
:10185000DA20EA6EE552E750EF6EFB0EDB2AFC0E53
:1018600001E3DB2A6F0EDB2AC8D7D9503C0FE66EA6
:10187000000EDA20E66E6E0EDBCFE6FFCFDDE5521E
:10188000E552E552010F006E6E0EDBCFE7FF005010
:10189000E7266E0EE7CFDBFFDB0402E16E0EDB0610
:1018A000D9CFE6FFDACFE6FFD9503C0FE66E000E47
:1018B000DA20E66E26DEE552E552E552E552F3CF38
:1018C00000F0F4CF01F0F350F41030E0D9503C0FA9
:1018D000E66E000EDA20E66E6E0EDBCFE6FF9EDDD2
:1018E000E552E552E552010F006E6E0EDBCFE7FFC9
:1018F0000050E7266E0EE7CFDBFFD950190FE66EDA
:10190000000EDA20E66ED9503C0FE66E000EDA20AB
:10191000E66EF7DDE552E552E552E552F350F4107C
:1019200003E0010EF36E09D0F36A07D0C1DDF36E58
:101930006E0EDB50F35C99E1F36AF46A700EE15CC1
:1019400002E2E16AE552E16EE552E7CFD9FF12000B
:10195000D9CFE6FFE1CFD9FF400EE126D950320FB3
:10196000E96EDACFEAFF550EEE6E390EEE6EEE6ED0
:10197000EE6E230EEE6ED950370FE96EDACFEAFF26
:10198000500EEE6E310EEE6E320EEE6E330EEE6EC9
:10199000340EEE6E350EEE6E360EEE6E230EEE6EDD
:1019A0003F0EDB6AD9CFE6FFDACFE6FF3F0EDBCF93
:1019B000E6FF34DDE552E552E552010F006E3F0EC1
:1019C000DBCFE7FF0050E7263F0EE7CFDBFFDB046E
:1019D00002E13F0EDB06D950320FE66E000EDA2030
:1019E000E66ED9CFE6FFDACFE6FF8BDDE552E552B2
:1019F000E552E552F3CF00F0F4CF01F0F350F410CC
:101A00001EE156DDF36E3F0EDB50F35CCBE1D950A7
:101A1000320FE66E000EDA20E66E4ADDE66ECCDCB2
:101A2000E552E552E552D950370FE66E000EDA2046
:101A3000E66E3EDDE66EC0DCE552E552E552400E54
:101A4000E15C02E2E16AE552E16EE552E7CFD9FFDF
:101A50001200D9CFE6FFE1CFD9FF6B0EE126D950B6
:101A6000320FE96EDACFEAFF550EEE6E390EEE6EEA
:101A7000EE6EEE6E230EEE6E690EDB6A010EF36EF5
:101A80006A0EF3CFDBFF500EF36E370EF3CFDBFFA2
:101A9000FD0EDBCFE9FFFE0EDBCFEAFFEF5004E0E7
:101AA0006A0EDB50060810E2D950370F006EDACF0D
:101AB00001F06A0EDB500F010024E96E000EDA20FF
:101AC000EA6E230EEF6E1DD0FD0EDBCFE9FFFE0E9A
:101AD000DBCFEAFFEF50E66ED950370F006E6A0E8B
:101AE000DB500024E96E000EDA20EA6EE552E75082
:101AF000EF6EFD0EDB2AFE0E01E3DB2A6A0EDB2A07
:101B0000C7D7D9CFE6FFDACFE6FF690EDBCFE6FF16
:101B100085DCE552E552E552010F006E690EDBCF20
:101B2000E7FF0050E726690EE7CFDBFFDB0402E1A9
:101B3000690EDB06D950320FE66E000EDA20E66E33
:101B4000D9CFE6FFDACFE6FFDCDCE552E552E5521D
:101B5000E552F3CF00F0F4CF01F0F350F4102FE092
:101B6000D950370FE66E000EDA20E66E690EDBCF35
:101B7000E6FF22DCE552E552E552D9CFE6FFDACFA7
:101B8000E6FF690EDBCFE6FF49DCE552E552E552A0
:101B9000D950370FE66E000EDA20E66ED9CFE6FF99
:101BA000DACFE6FFAEDCE552E552E552E552F350FE
:101BB000F41003E0010EF36E09D0F36A07D078DC6D
:101BC000F36E690EDB50F35C9CE1F36AF46A6B0E12
:101BD000E15C02E2E16AE552E16EE552E7CFD9FF4E
:021BE0001200F1
:0E1BE200D9CFE6FFE1CFD9FF050EE1260F0EA9
:101BF000DF6EDE52060EDD6E010EF36E020EF3CFC7
:101C0000DBFF8492849084940F0EC16E966A936A6F
:101C1000030EDB6AF36EDBCFF4FFE850F45C07E2FF
:101C2000300E816E33D83DD8030EDB2AF3D7FE0E7B
:101C3000DB0402E1300E01D0380E816E27D831D896
:101C4000030EDB6AF36EDBCFF4FFE850F45C13E2C3
:101C5000D9CF00F0DACF01F0030EDB500F01D92409
:101C6000E96E000EDA20EA6EEF50816E0FD819D8B7
:101C7000030EDB2AE7D79368050EE15C02E2E16A16
:101C8000E552E16EE552E7CFD9FF120010D8848209
:101C90000ED884921200020EE66EE7EC00F0E552D8
:101CA0001200010EE66EB2EC00F0E55212000000E8
:101CB0000000000000000000000000000000000024
:101CC0000000000000000000000000000000120002
:101CD0000000000000000000000000000000000004
:101CE00000000000000000000000000000000000F4
:101CF000120084848490DBDF8482D9DF81AE03D03C
:101D000084928494010C84928494000CD9CFE6FFD1
:101D1000E1CFD9FF936AFE0EDB50816E84808494FC
:101D2000B5DF8490C4DF9368E552E7CFD9FF120096
:101D3000D9CFE6FFE1CFD9FF936AFE0EDB50816E6B
:101D400084908494A3DF8490B2DF9368E552E7CF58
:101D5000D9FF1200D9CFE6FFE1CFD9FFFD0EDBCFCF
:101D6000F6FFFE0EDBCFF7FF0800F55014E0C1DFF1
:101D70000009FDE1FD0EDBCFF6FFFE0EDBCFF7FF26
:101D80000800F550E66EC2DFE552FD0EDB2AFE0EBE
:101D9000E5E3DB2AE3D7E552E7CFD9FF1200D9CF3D
:101DA000E6FFE1CFD9FF210EE126800EE66EC0DF0F
:101DB000E5529FDF0009FDE1200EDB6AF36EDBCF09
:101DC000F4FFE850F45C2AE2100EF36E200EDBCF35
:101DD000F4FFF350F45C07E2E66898DFE55289DF30
:101DE000000919E0FCD7200EDB5010080EE1C00EF0
:101DF000E66E9EDFE5527DDF0009FDE1E66886DFE5
:101E0000E55277DF000907E0FCD7E6687FDFE5529F
:101E100070DF0009FDE1200EDB2AD0D7210EE15C46
:101E200002E2E16AE552E16EE552E7CFD9FF120026
:101E3000436F6E6E656374696E672E2E2E00000010
:101E400000506C6561736520576169742100000062
:101E500000004F4B210000000000000000000000C7
:101E60000000002000000000000000000000000052
:101E70000000000000010153454E48413A000000B7
:101E800000000000000000005553554152494F3AF0
:101E90000000000000000000004E4F564120534556
:101EA0004E48413A0000000000000001010101011C
:101EB00000010101010100010101010100010152C4
:101EC0004F4F543A000000000000000000000000E6
:101ED00053454E4841204F4B212000000000000098
:101EE000005245504554453A2020202020202020F3
:101EF000202053454A412042454D2056494E444FEB
:101F000021200053454E484120494E56414C4944FA
:101F1000412020000100000000000000000000003F
:0F1F2000000000000000000001000100010001AE
:020000040030CA
:0100000000FF
:010001000CF2
:0100020019E4
:010003001EDE
:010005008377
:010006008178
:010008000FE8
:01000900C036
:01000A000FE6
:01000B00E014
:01000C000FE4
:01000D0040B2
:00000001FF
