:020000040000FA
:0600000048EF05F01200BC
:020006000000F8
:08000800D9CFE6FFE1CFD9FFDB
:10001000270EE126D950030FE96EDACFEAFF550E1D
:10002000EE6E530EEE6E450EEE6E520EEE6EEE6AF4
:10003000EE6AEE6AEE6AEE6AEE6AEE6AEE6AEE6A00
:10004000EE6AEE6AEE6AEE6AD950140FE96EDACF04
:10005000EAFF4E0EEE6E4F0EEE6E560EEE6E410E37
:10006000EE6EEE6AEE6AEE6AEE6AEE6AEE6AEE6ACC
:10007000EE6AEE6AEE6AEE6AEE6AEE6A250EDB6AF8
:10008000260EDB6A69D8020EE66E70EC03F0E552CC
:100090004EEC04F0250EDB6A260EDB6A250EDBCF64
:1000A00002F0260EDBCF03F0D890035004E6640E76
:1000B000025C000E035808E2D0EC03F0250EDB2AA8
:1000C000260EECE3DB2AEAD7010EE66E17EC04F00D
:1000D000E552F8EC03F00009FCE1D950140FE66E8C
:1000E000000EDA20E66ED950030FE66E000EDA201D
:1000F000E66E7BEC02F0E552E552E552E552020E67
:10010000DBCFE6FFE66A00EC01F0E552E552F8ECE1
:1001100003F00009FCE1C00EE66E17EC04F0E552B6
:10012000F8EC03F00009FCE1D950140FE66E000E64
:10013000DA20E66E00EC01F0E552E552F8EC03F04F
:100140000009FCE10C0EE66E17EC04F0E552F8EC49
:1001500003F00009FCE1FFD7926A936A946A956AFA
:10016000966A0F0EC16E806A816A826A836A846AA7
:0201700012007B
:0E017200D9CFE6FFDACFE6FFE1CFD9FFE2CF2B
:10018000DAFFE652DF6AFF0EE76EFC0EDBCF02F00D
:10019000E75002160250A96EFB0EDB50A86EA69E19
:1001A000A69CA684F250800B01E0010EDF6EF29E49
:1001B000550EA76EAA0EA76EA682A6B2FED7DF5076
:1001C000E8B0F28EE8A0F29EA694E552E552E5CFA3
:0801D000DAFFE7CFD9FF1200AE
:0801D800000EF36E00EE00F0D2
:1001E000080E01D81200EA6002D0EE6AFCD7F35084
:0801F000E9601200EE6AFCD781
:0201F8001200F3
:10020000D9CFE6FFE1CFD9FFFD0EDBCFE9FFFE0E30
:10021000DBCFEAFFEF5015E0F8EC03F00009FCE15A
:10022000FD0EDBCFE9FFFE0EDBCFEAFFEF50E66EFF
:1002300005EC04F0E552FD0EDB2AFE0EE5E3DB2AB9
:0A024000E3D7E552E7CFD9FF120023
:06024A00D9CFE6FFE1CF71
:10025000D9FFE652DF6AFC0EDBCFE9FFFD0EDBCFF4
:10026000EAFFEF50E66EFE0EDB50DF24E66EE66A34
:10027000B9EC00F0E552E552E552010EE66E64EC91
:1002800005F0E552FC0EDBCFE9FFFD0EDBCFEAFF08
:10029000EF50230807E0FC0EDB2AFD0E01E3DB2A0A
:1002A000DF2AD9D7E552E552E7CFD9FF1200D9CFDF
:1002B000E6FFE1CFD9FFE652DF6AFE0EDB50DF2416
:1002C000E66EE66A0FEC05F0E552E552E66EDF50A9
:1002D000E76EFC0EDBCFE9FFFD0EDBCFEAFFE75058
:1002E000E926000EEA22E552E750EF6E010EE66EB7
:1002F00064EC05F0E552DF50E76EFC0EDBCFE9FF62
:10030000FD0EDBCFEAFFE750E926000EEA22EF50B0
:10031000230802E0DF2AD1D7DF50E552E552E7CFCC
:10032000D9FF1200D9CFE6FFE1CFD9FFE652DF6A4D
:10033000DF6ADF50026E036AD890035004E6000EB5
:10034000025C010E035812E2DFCFE6FFE66A0FEC13
:1003500005F0E552E552FF0802E1DF5007D0010E3B
:10036000E66E64EC05F0E552DF2AE3D7E552E5528C
:10037000E7CFD9FF1200D9CFE6FFE1CFD9FF060EB4
:10038000E126010EF36E040EF3CFDBFFCBDFE76E49
:10039000050EE7CFDBFFDECFE9FFDDCFEAFF550E2D
:1003A000EF6E020EDBCFE9FF030EDBCFEAFF500E4C
:1003B000EF6EFD0EDBCFE9FFFE0EDBCFEAFFEF5065
:1003C00010E1040EDB50E76E000EDFCFE9FF010EF7
:1003D000DBCFEAFFE750E926000EEA22230EEF6E9C
:1003E00020D0FD0EDBCFE9FFFE0EDBCFEAFFEF50A2
:1003F000E66E040EDB50E76E000EDFCFE9FF010E64
:10040000DBCFEAFFE750E926000EEA22E552E7508B
:10041000EF6EFD0EDB2AFE0E01E3DB2A040EDB2A63
:10042000C8D7DECFE6FFDDCFE6FF050EDBCFE6FF68
:100430000CDFE552E552E552050EDBCFE6FF040E78
:10044000DB28E552E724E76E050EE7CFDBFF010E60
:10045000F36E040EF3CFDBFFFB0EDBCFE9FFFC0EE8
:10046000DBCFEAFFEF5010E1040EDB50E76E020E27
:10047000DBCFE9FF030EDBCFEAFFE750E926000EF2
:10048000EA22230EEF6E20D0FB0EDBCFE9FFFC0E3D
:10049000DBCFEAFFEF50E66E040EDB50E76E020E94
:1004A000DBCFE9FF030EDBCFEAFFE750E926000EC2
:1004B000EA22E552E750EF6EFB0EDB2AFC0E01E369
:1004C000DB2A040EDB2AC8D7020EDBCFE6FF030EC1
:1004D000DBCFE6FF050EDBCFE6FFB7DEE552E552E8
:1004E000E552060EE15C02E2E16AE552E16EE55298
:1004F000E7CFD9FF1200D9CFE6FFE1CFD9FF080E31
:10050000E126060EDB6A010EF36E070EF3CFDBFF6A
:10051000020EDBCFE9FF030EDBCFEAFF550EEF6ED5
:10052000040EDBCFE9FF050EDBCFEAFF500EEF6EC6
:10053000FD0EDBCFE9FFFE0EDBCFEAFFEF5010E14F
:10054000070EDB50E76E020EDBCFE9FF030EDBCFB9
:10055000EAFFE750E926000EEA22230EEF6E20D0D4
:10056000FD0EDBCFE9FFFE0EDBCFEAFFEF50E66EBC
:10057000070EDB50E76E020EDBCFE9FF030EDBCF89
:10058000EAFFE750E926000EEA22E552E750EF6E57
:10059000FD0EDB2AFE0E01E3DB2A070EDB2AC8D79D
:1005A000010EF36E070EF3CFDBFFFB0EDBCFE9FF8F
:1005B000FC0EDBCFEAFFEF5010E1070EDB50E76ED9
:1005C000040EDBCFE9FF050EDBCFEAFFE750E9269B
:1005D000000EEA22230EEF6E20D0FB0EDBCFE9FFE8
:1005E000FC0EDBCFEAFFEF50E66E070EDB50E76E46
:1005F000040EDBCFE9FF050EDBCFEAFFE750E9266B
:10060000000EEA22E552E750EF6EFB0EDB2AFC0EED
:1006100001E3DB2A070EDB2AC8D7DECFE6FFDDCFFA
:10062000E6FF060EDBCFE6FF42DEE552E552E5527D
:10063000010F026E060EDBCFE7FF0250E726060E23
:10064000E7CFDBFF010EE66EE66A020EDBCFE6FFC8
:10065000030EDBCFE6FFDECFE6FFDDCFE6FFE6EC05
:1006600004F0026E060EE15E02500009D6E1DECF14
:10067000E6FFDDCFE6FF060EDBCFE6FF18DEE55234
:10068000E552E552010F026E060EDBCFE7FF025086
:10069000E726060EE7CFDBFF010EE66EE66A040EE4
:1006A000DBCFE6FF050EDBCFE6FFDECFE6FFDDCFDB
:1006B000E6FFE6EC04F0026E060EE15E0250000971
:1006C00003E1010EF36E01D0F36AF46A080EE15CF7
:1006D00002E2E16AE552E16EE552E7CFD9FF12008E
:1006E000D9CFE6FFE1CFD9FF050EE1260F0EDF6E71
:1006F000DE52060EDD6E010EF36E020EF3CFDBFF4F
:100700008492849084940F0EC16E966A936A030E4D
:10071000DB6AF36EDBCFF4FFE850F45C07E2300EE7
:10072000816E33D83DD8030EDB2AF3D7FE0EDB04EF
:1007300002E1300E01D0380E816E27D831D8030E79
:10074000DB6AF36EDBCFF4FFE850F45C13E2D9CF41
:1007500002F0DACF03F0030EDB500F01D924E96E6B
:10076000000EDA20EA6EEF50816E0FD819D8030E12
:10077000DB2AE7D79368050EE15C02E2E16AE55205
:10078000E16EE552E7CFD9FF120010D884820ED86F
:1007900084921200020EE66E56EC05F0E55212004D
:1007A000010EE66E31EC05F0E5521200000000008B
:1007B0000000000000000000000000000000000039
:1007C0000000000000000000000000001200000017
:1007D0000000000000000000000000000000000019
:1007E00000000000000000000000000000001200F7
:1007F00084848490DBDF8482D9DF81AE03D084924D
:100800008494010C84928494000CD9CFE6FFE1CF4C
:10081000D9FF936AFE0EDB50816E84808494B5DF2D
:100820008490C4DF9368E552E7CFD9FF1200D9CF97
:10083000E6FFE1CFD9FF936AFE0EDB50816E849014
:100840008494A3DF8490B2DF9368E552E7CFD9FFA9
:100850001200D9CFE6FFE1CFD9FFFD0EDBCFF6FFC7
:10086000FE0EDBCFF7FF0800F55014E0C1DF0009F2
:10087000FDE1FD0EDBCFF6FFFE0EDBCFF7FF08003C
:10088000F550E66EC2DFE552FD0EDB2AFE0EE5E313
:10089000DB2AE3D7E552E7CFD9FF1200D9CFE6FF35
:1008A000E1CFD9FF210EE126800EE66EC0DFE552D2
:1008B0009FDF0009FDE1200EDB6AF36EDBCFF4FF62
:1008C000E850F45C2AE2100EF36E200EDBCFF4FF4A
:1008D000F350F45C07E2E66898DFE55289DF00092F
:1008E00019E0FCD7200EDB5010080EE1C00EE66EBA
:1008F0009EDFE5527DDF0009FDE1E66886DFE55217
:1009000077DF000907E0FCD7E6687FDFE55270DF9C
:100910000009FDE1200EDB2AD0D7210EE15C02E2C6
:0E092000E16AE552E16EE552E7CFD9FF120021
:02092E00060EB3
:10093000F66E000EF76E000EF86E00010900F5501D
:10094000656F0900F550666F03E1656701D03DD022
:100950000900F550606F0900F550616F0900F5500E
:10096000626F09000900F550E96E0900F550EA6E62
:10097000090009000900F550636F0900F550646F24
:1009800009000900F6CF67F0F7CF68F0F8CF69F0FB
:1009900060C0F6FF61C0F7FF62C0F8FF000163535B
:1009A00002E1645307E00900F550EE6E6307F8E2D8
:1009B0006407F9D767C0F6FF68C0F7FF69C0F8FFA2
:0C09C00000016507000E665BBFD7120047
:0409CC00D9CFE6FF9A
:1009D000DACFE6FFFA0EE3CFD9FFFB0EE3CFDAFF63
:1009E000FC0EE3CFE9FFFD0EE3CFEAFFF80EE35084
:1009F00003E1F90EE35008E0F80EE30602E2F90E17
:100A0000E306DE50EE5CF2E0F36EFF0EE3CFDAFFBA
:0E0A1000E552FF0EE3CFD9FFE552F35012007E
:020A1E00D9CF2E
:100A2000E6FFDACFE6FFE1CFD9FFE2CFDAFFFF0E34
:100A3000E76EFC0EDBCF02F0FD0EDBCF03F0E750DC
:100A40000216036A0250A96EA69CA69EA68000000C
:100A50000000A85000D0E552E5CFDAFFE7CFD9FF7C
:020A6000120082
:0E0A6200FF0EE350056EEF0E01D0F30EE76EAF
:100A7000E72E38EF05F00C0E046EE76AE72E3EEF26
:100A800005F0042E3DEF05F0052E36EF05F01200BF
:100A900013EE00F023EE00F0F86A019C97EC04F0EE
:0C0AA000FCEC00F004EC00F0FBD71200AE
:040AAC00FF0EE35006
:100AB000056E1B0E00D001D0200EE76EE72EFED78C
:080AC000052EFAD700D0120048
:080AC800FF0EE350E84E12009E
:0E0AD000000000D000D000D0E82EFAD71200AF
:020000040030CA
:0100000000FF
:010001000CF2
:0100020019E4
:010003001EDE
:010005008377
:010006008178
:010008000FE8
:01000900C036
:01000A000FE6
:01000B00E014
:01000C000FE4
:01000D0040B2
:00000001FF
