:020000040000FA
:06000000E0EF00F0120029
:020006000000F8
:08000800D9CFE6FFE1CFD9FFDB
:10001000240EE126D9CFE9FFDACFEAFF530EEE6EC8
:10002000650EEE6E6A0EEE6E610EEE6E200EEE6ED8
:10003000620EEE6E650EEE6E6D0EEE6E200EEE6EC4
:10004000760EEE6E690EEE6E6E0EEE6E640EEE6E57
:100050006F0EEE6E210EEE6EEE6AD00EEE6ED95081
:10006000110FE96EDACFEAFF200EEE6EEE6EEE6E45
:100070004C0EEE6E430EEE6E440EEE6E200EEE6EE5
:10008000310EEE6E360EEE6E200EEE6E780EEE6EC9
:10009000200EEE6E320EEE6EEE6AEE6AEE6AEE6ADA
:1000A000220EDB6A230EDB6A57D8020EE66E25ECC1
:1000B00001F0E55203EC02F0220EDB6A230EDB6A4C
:1000C000220EDBCF02F0230EDBCF03F0D8900350DB
:1000D00004E6580E025C020E035808E285EC01F0BB
:1000E000220EDB2A230EECE3DB2AEAD7010EE66EB2
:1000F000CCEC01F0E552ADEC01F00009FCE1D9CF08
:10010000E6FFDACFE6FF00EC01F0E552E552ADEC98
:1001100001F00009FCE1C00EE66ECCEC01F0E55206
:10012000ADEC01F00009FCE1D950110FE66E000EB4
:10013000DA20E66E00EC01F0E552E552ADEC01F09C
:100140000009FCE10C0EE66ECCEC01F0E552ADECE2
:1001500001F00009FCE1FFD7926A936A946A956AFC
:10016000966A0F0EC16E806A816A826A836A846AA7
:0201700012007B
:0E017200FF0EE350056EEF0E01D0F30EE76EA8
:10018000E72EC0EF00F00C0E046EE76AE72EC6EF14
:1001900000F0042EC5EF00F0052EBEEF00F01200B7
:1001A000000EF36E00EE00F0080E01D81200EA60B7
:1001B00002D0EE6AFCD7F350E9601200EE6AFCD779
:1001C00013EE00F023EE00F0F86A019C4CEC02F014
:0C01D000FCEC00F004EC00F0FBD7120087
:0401DC00FF0EE350DF
:1001E000056E1B0E00D001D0200EE76EE72EFED765
:0801F000052EFAD700D0120021
:0201F8001200F3
:10020000D9CFE6FFE1CFD9FFFD0EDBCFE9FFFE0E30
:10021000DBCFEAFFEF5015E0ADEC01F00009FCE1A7
:10022000FD0EDBCFE9FFFE0EDBCFEAFFEF50E66EFF
:10023000BAEC01F0E552FD0EDB2AFE0EE5E3DB2A07
:0A024000E3D7E552E7CFD9FF120023
:06024A00D9CFE6FFE1CF71
:10025000D9FF050EE1260F0EDF6EDE52060EDD6EB3
:10026000010EF36E020EF3CFDBFF84928490849430
:100270000F0EC16E966A956A030EDB6AF36EDBCFD2
:10028000F4FFE850F45C07E2300E836E33D83DD8BB
:10029000030EDB2AF3D7FE0EDB0402E1300E01D0A1
:1002A000380E836E27D831D8030EDB6AF36EDBCFAE
:1002B000F4FFE850F45C13E2D9CF02F0DACF03F098
:1002C000030EDB500F01D924E96E000EDA20EA6E2E
:1002D000EF50836E0FD819D8030EDB2AE7D7956845
:1002E000050EE15C02E2E16AE552E16EE552E7CF1C
:1002F000D9FF120010D884820ED884921200020E08
:10030000E66EEEEC00F0E5521200010EE66EB9EC7E
:1003100000F0E552120000000000000000000000A4
:1003200000000000000000000000000000000000CD
:1003300000000000000012000000000000000000AB
:1003400000000000000000000000000000000000AD
:100350000000000000000000120084848490DBDFB5
:100360008482D9DF83AE03D084928494010C84927A
:100370008494000CD9CFE6FFE1CFD9FF956AFE0E39
:10038000DB50836E84808494B5DF8490C4DF9568ED
:10039000E552E7CFD9FF1200D9CFE6FFE1CFD9FF71
:1003A000956AFE0EDB50836E84908494A3DF849064
:1003B000B2DF9568E552E7CFD9FF1200D9CFE6FF4B
:1003C000E1CFD9FFFD0EDBCFF6FFFE0EDBCFF7FF4F
:1003D0000800F55014E0C1DF0009FDE1FD0EDBCFA0
:1003E000F6FFFE0EDBCFF7FF0800F550E66EC2DF2A
:1003F000E552FD0EDB2AFE0EE5E3DB2AE3D7E552EC
:10040000E7CFD9FF1200D9CFE6FFE1CFD9FF210E08
:10041000E126800EE66EC0DFE5529FDF0009FDE1B8
:10042000200EDB6AF36EDBCFF4FFE850F45C2AE2C7
:10043000100EF36E200EDBCFF4FFF350F45C07E2F6
:10044000E66898DFE55289DF000919E0FCD7200E45
:10045000DB5010080EE1C00EE66E9EDFE5527DDF38
:100460000009FDE1E66886DFE55277DF000907E075
:10047000FCD7E6687FDFE55270DF0009FDE1200E62
:10048000DB2AD0D7210EE15C02E2E16AE552E16E9F
:08049000E552E7CFD9FF12008D
:08049800060EF66E000EF76E71
:1004A000000EF86E00010900F550656F0900F55067
:1004B000666F03E1656701D03DD00900F550606FBC
:1004C0000900F550616F0900F550626F09000900DD
:1004D000F550E96E0900F550EA6E090009000900BF
:1004E000F550636F0900F550646F09000900F6CFFD
:1004F00067F0F7CF68F0F8CF69F060C0F6FF61C031
:10050000F7FF62C0F8FF0001635302E1645307E0A4
:100510000900F550EE6E6307F8E26407F9D767C08B
:10052000F6FF68C0F7FF69C0F8FF00016507000E1D
:06053000665BBFD712005C
:020000040030CA
:0100000000FF
:010001000CF2
:0100020019E4
:010003001EDE
:010005008377
:010006008178
:010008000FE8
:01000900C036
:01000A000FE6
:01000B00E014
:01000C000FE4
:01000D0040B2
:00000001FF
